:020000040800F2
:10000000008001206D7E00085D1A00085F1A00085C
:10001000611A0008631A0008651A00080000000051
:10002000000000000000000000000000017B00084C
:10003000671A000800000000A17B00088F76000806
:10004000BD7E0008BD7E0008BD7E0008691A00085C
:10005000791A0008BD7E0008811A0008BD7E0008DC
:10006000BD7E0008BD7E00088B1A0008BD7E00081A
:10007000BD7E0008BD7E0008BD7E0008951A000800
:10008000A51A0008BD7E0008BD7E0008BD7E0008E0
:10009000BD7E0008BD7E0008BD7E0008B51A0008C0
:1000A000BD7E0008BD7E0008BD7E0008BD7E000844
:1000B000BD7E0008BD7E0008BD7E0008BD7E000834
:1000C000BD7E0008BD7E0008BD7E0008BD7E000824
:1000D000BD7E0008C51A0008D91A0008BD7E0008B8
:1000E000ED1A0008BD7E0008BD7E0008BD7E000838
:1000F000BD7E0008BD7E0008BD7E0008BD7E0008F4
:10010000BD7E0008BD7E0008BD7E0008BD7E0008E3
:10011000BD7E0008BD7E0008F91A0008091B000812
:10012000BD7E0008BD7E0008BD7E0008BD7E0008C3
:10013000BD7E0008BD7E0008BD7E0008BD7E0008B3
:10014000BD7E0008BD7E0008BD7E0008BD7E0008A3
:10015000BD7E0008191B0008291B0008BD7E000891
:10016000BD7E0008BD7E0008BD7E0008BD7E000883
:10017000BD7E0008BD7E0008BD7E000800000000B6
:08018000BD7E0008BD7E0008F1
:1001900010B5054C237833B9044B13B10448AFF3C1
:1001A00000800123237010BD100200200000000019
:1001B00088C8000808B5034B1BB103490348AFF3D7
:1001C000008008BD000000001402002088C800085C
:1001D000034613F8012B002AFBD1181A0138704787
:1001E00001F0FF01102A2BDB10F0070F08D010F8E8
:1001F000013B013A8B422DD010F0070F42B3F6D1EC
:10020000F0B441EA012141EA014122F007047FF004
:1002100000070023F0E80256083C85EA010586EA5B
:10022000010685FA47F5A3FA87F586FA47F6A5FA97
:1002300087F68EB9EED1F0BC01F0FF0102F00702A3
:1002400032B110F8013B013A83EA010313B1F8D14E
:100250000020704701387047002D06BF354603382F
:10026000073815F0010F07D1013015F4807F02BF68
:10027000013015F4C03F0130F0BC0138704700BFB9
:1002800081F0004102E000BF83F0004330B54FEA47
:1002900041044FEA430594EA050F08BF90EA020FB4
:1002A0001FBF54EA000C55EA020C7FEA645C7FEA47
:1002B000655C00F0E2804FEA5454D4EB5555B8BF6A
:1002C0006D420CDD2C4480EA020281EA030382EADB
:1002D000000083EA010180EA020281EA0303362D6D
:1002E00088BF30BD11F0004F4FEA01314FF4801C40
:1002F0004CEA113102D0404261EB410113F0004F52
:100300004FEA03334CEA133302D0524263EB430308
:1003100094EA050F00F0A780A4F10104D5F1200EA6
:100320000DDB02FA0EFC22FA05F2801841F1000101
:1003300003FA0EF2801843FA05F359410EE0A5F1D5
:1003400020050EF1200E012A03FA0EFC28BF4CF006
:10035000020C43FA05F3C01851EBE37101F00045BC
:1003600007D54FF0000EDCF1000C7EEB00006EEBC9
:100370000101B1F5801F1BD3B1F5001F0CD3490853
:100380005FEA30004FEA3C0C04F101044FEA4452AA
:1003900012F5800F80F09A80BCF1004F08BF5FEA31
:1003A000500C50F1000041EB045141EA050130BD11
:1003B0005FEA4C0C404141EB0101013C28BFB1F523
:1003C000801FE9D291F0000F04BF01460020B1FA6E
:1003D00081F308BF2033A3F10B03B3F120020CDA41
:1003E0000C3208DD02F1140CC2F10C0201FA0CF01F
:1003F00021FA02F10CE002F11402D8BFC2F1200C84
:1004000001FA02F120FA0CFCDCBF41EA0C01904039
:10041000E41AA2BF01EB0451294330BD6FEA040482
:100420001F3C1CDA0C340EDC04F11404C4F120026D
:1004300020FA04F001FA02F340EA030021FA04F37F
:1004400045EA030130BDC4F10C04C4F1200220FAD6
:1004500002F001FA04F340EA0300294630BD21FA14
:1004600004F0294630BD94F0000F83F4801306BFDA
:1004700081F480110134013D4EE77FEA645C18BFCE
:100480007FEA655C29D094EA050F08BF90EA020F65
:1004900005D054EA000C04BF1946104630BD91EA5D
:1004A000030F1EBF0021002030BD5FEA545C05D160
:1004B0004000494128BF41F0004130BD14F580049F
:1004C0003CBF01F5801130BD01F0004545F0FE4113
:1004D00041F470014FF0000030BD7FEA645C1ABF48
:1004E000194610467FEA655C1CBF0B46024650EA7F
:1004F000013406BF52EA033591EA030F41F40021AB
:1005000030BD00BF90F0000F04BF0021704730B530
:100510004FF4806404F132044FF000054FF0000105
:1005200050E700BF90F0000F04BF0021704730B5C6
:100530004FF4806404F1320410F0004548BF40429B
:100540004FF000013EE700BF42004FEAE2014FEAF0
:1005500031014FEA02701FBF12F07F4393F07F4FCB
:1005600081F06051704732F07F4208BF704793F0CE
:100570007F4F04BF41F40021704730B54FF46074E1
:1005800001F0004521F000411CE700BF50EA0102E4
:1005900008BF704730B54FF000050AE050EA01028D
:1005A00008BF704730B511F0004502D5404261EBFD
:1005B00041014FF4806404F132045FEA915C3FF43E
:1005C000D8AE4FF003025FEADC0C18BF03325FEADB
:1005D000DC0C18BF033202EBDC02C2F1200300FA8C
:1005E00003FC20FA02F001FA03FE40EA0E0021FAB1
:1005F00002F11444BDE600BF70B54FF0FF0C4CF49F
:10060000E06C1CEA11541DBF1CEA135594EA0C0F50
:1006100095EA0C0F00F0DEF82C4481EA030621EA8B
:100620004C5123EA4C5350EA013518BF52EA0335C6
:1006300041F4801143F4801338D0A0FB02CE4FF078
:100640000005E1FB02E506F00042E0FB03E54FF0A8
:100650000006E1FB03569CF0000F18BF4EF0010EA0
:10066000A4F1FF04B6F5007F64F5407404D25FEA9C
:100670004E0E6D4146EB060642EAC62141EA55514F
:100680004FEAC52040EA5E504FEACE2EB4F1FD0C91
:1006900088BFBCF5E06F1ED8BEF1004F08BF5FEA0F
:1006A000500E50F1000041EB045170BD06F00046C1
:1006B00046EA010140EA020081EA0301B4EB5C046E
:1006C000C2BFD4EB0C0541EA045170BD41F4801166
:1006D0004FF0000E013C00F3AB8014F1360FDEBF8B
:1006E000002001F0004170BDC4F10004203C35DA67
:1006F0000C341BDC04F11404C4F1200500FA05F3EA
:1007000020FA04F001FA05F240EA020001F000428A
:1007100021F0004110EBD37021FA04F642EB060100
:100720005EEA430E08BF20EAD37070BDC4F10C042A
:10073000C4F1200500FA04F320FA05F001FA04F2EE
:1007400040EA020001F0004110EBD37041F10001DA
:100750005EEA430E08BF20EAD37070BDC4F12005E5
:1007600000FA05F24EEA020E20FA04F301FA05F24D
:1007700043EA020321FA04F001F0004121FA04F2F5
:1007800020EA020000EBD3705EEA430E08BF20EAC5
:10079000D37070BD94F0000F0FD101F000464000FF
:1007A00041EB010111F4801F08BF013CF7D041EA81
:1007B000060195F0000F18BF704703F00046520085
:1007C00043EB030313F4801F08BF013DF7D043EA56
:1007D0000603704794EA0C0F0CEA135518BF95EA0C
:1007E0000C0F0CD050EA410618BF52EA4306D1D193
:1007F00081EA030101F000414FF0000070BD50EAB2
:10080000410606BF1046194652EA430619D094EA3B
:100810000C0F02D150EA013613D195EA0C0F05D125
:1008200052EA03361CBF104619460AD181EA030179
:1008300001F0004141F0FE4141F470014FF0000031
:1008400070BD41F0FE4141F4780170BD70B54FF0CC
:10085000FF0C4CF4E06C1CEA11541DBF1CEA13554C
:1008600094EA0C0F95EA0C0F00F0A7F8A4EB05042E
:1008700081EA030E52EA03354FEA013100F0888025
:100880004FEA03334FF0805545EA131343EA1263EE
:100890004FEA022245EA111545EA10654FEA0026A3
:1008A0000EF000419D4208BF964244F1FD0404F55C
:1008B000407402D25B084FEA3202B61A65EB0305B8
:1008C0005B084FEA32024FF480104FF4002CB6EB75
:1008D000020E75EB030E22BFB61A754640EA0C00F5
:1008E0005B084FEA3202B6EB020E75EB030E22BF35
:1008F000B61A754640EA5C005B084FEA3202B6EB76
:10090000020E75EB030E22BFB61A754640EA9C0034
:100910005B084FEA3202B6EB020E75EB030E22BF04
:10092000B61A754640EADC0055EA060E18D04FEAC2
:10093000051545EA16754FEA06164FEAC30343EA62
:1009400052734FEAC2025FEA1C1CC0D111F4801F2F
:100950000BD141EA00014FF000004FF0004CB6E728
:1009600011F4801F04BF01430020B4F1FD0C88BFC7
:10097000BCF5E06F3FF6AFAEB5EB030C04BFB6EBD2
:10098000020C5FEA500C50F1000041EB045170BDC5
:100990000EF0004E4EEA113114EB5C04C2BFD4EBF2
:1009A0000C0541EA045170BD41F480114FF0000E76
:1009B000013C90E645EA060E8DE60CEA135594EAF2
:1009C0000C0F08BF95EA0C0F3FF43BAF94EA0C0FF5
:1009D0000AD150EA01347FF434AF95EA0C0F7FF46A
:1009E00025AF104619462CE795EA0C0F06D152EABE
:1009F00003353FF4FDAE1046194622E750EA4106A2
:100A000018BF52EA43067FF4C5AE50EA41047FF4B2
:100A10000DAF52EA43057FF4EBAE12E74FF0FF3C17
:100A200006E000BF4FF0010C02E000BF4FF0010CE8
:100A30004DF804CD4FEA410C7FEA6C5C4FEA430C61
:100A400018BF7FEA6C5C1BD001B050EA410C0CBFB0
:100A500052EA430C91EA030F02BF90EA020F002012
:100A6000704710F1000F91EA030F58BF994208BF79
:100A700090422CBFD8176FEAE37040F00100704736
:100A80004FEA410C7FEA6C5C02D150EA013C07D18D
:100A90004FEA430C7FEA6C5CD6D152EA033CD3D0D8
:100AA0005DF8040B704700BF8446104662468C46D2
:100AB0001946634600E000BF01B5FFF7B7FF002805
:100AC00048BF10F1000F01BD4DF808EDFFF7F4FF2E
:100AD0000CBF012000205DF808FB00BF4DF808EDB9
:100AE000FFF7EAFF34BF012000205DF808FB00BFDC
:100AF0004DF808EDFFF7E0FF94BF012000205DF8FE
:100B000008FB00BF4DF808EDFFF7CEFF94BF0120B2
:100B100000205DF808FB00BF4DF808EDFFF7C4FFAB
:100B200034BF012000205DF808FB00BF4FEA410CF4
:100B30007FEA6C5C02D150EA013C0AD14FEA430CD7
:100B40007FEA6C5C02D152EA033C02D14FF0000014
:100B500070474FF0010070474FEA410212F5001252
:100B600015D211D56FF47873B3EB625212D94FEAF4
:100B7000C12343F0004343EA505311F0004F23FADE
:100B800002F018BF404270474FF00000704750EA33
:100B9000013005D111F0004008BF6FF000407047F0
:100BA0004FF00000704700BF4A0011D212F500124A
:100BB00011D20DD56FF47873B3EB62520ED44FEAB5
:100BC000C12343F0004343EA505323FA02F0704735
:100BD0004FF00000704750EA013002D14FF0FF3073
:100BE00070474FF0000070474FEA4102B2F1E04316
:100BF00024BFB3F5001CDCF1FE5C0DD901F0004C04
:100C00004FEAC0024CEA5070B2F1004F40EB830053
:100C100008BF20F00100704711F0804F21D113F17F
:100C20003872BCBF01F00040704741F480114FEAB8
:100C30005252C2F11802C2F1200C10FA0CF320FA41
:100C400002F018BF40F001004FEAC1234FEAD3235E
:100C500003FA0CFC40EA0C0023FA02F34FEA4303C8
:100C6000CCE77FEA625307D150EA01331EBF4FF051
:100C7000FE4040F44000704701F0004040F0FE406C
:100C800040F40000704700BF53B94AB9002908BFBB
:100C900000281CBF4FF0FF314FF0FF3000F0AAB921
:100CA000ADF1080C6DE904CE00F03CF8DDF804E08D
:100CB000DDE9022304B0704738B500220023044662
:100CC0000D46FFF70BFF28B920462946BDE83840FE
:100CD00000F00AB8204605F1004100F005F8404256
:100CE00061EB410138BD00BFD0B50C4B0022064678
:100CF0000F46FFF781FCFFF757FF0446FFF702FCA2
:100D0000074B0022FFF778FC02460B463046394677
:100D1000FFF7BAFAFFF748FF2146D0BD0000F03DCB
:100D20000000F0412DE9F047089D04468E46002B57
:100D30004DD18A42944669D9B2FA82F252B101FA8F
:100D400002F3C2F1200120FA01F10CFA02FC41EA9F
:100D5000030E94404FEA1C48210CBEFBF8F61FFA24
:100D60008CF708FB16E341EA034306FB07F19942BF
:100D70000AD91CEB030306F1FF3080F01F81994272
:100D800040F21C81023E63445B1AA4B2B3FBF8F04C
:100D900008FB103344EA034400FB07F7A7420AD9D3
:100DA0001CEB040400F1FF3380F00A81A74240F2FB
:100DB00007816444023840EA0640E41B00261DB166
:100DC000D4400023C5E900433146BDE8F0878B429B
:100DD00009D9002D00F0EF800026C5E9000130465A
:100DE0003146BDE8F087B3FA83F6002E4AD18B4234
:100DF00002D3824200F2F980841A61EB03030120DE
:100E00009E46002DE0D0C5E9004EDDE702B9FFDEC9
:100E1000B2FA82F2002A40F09280A1EB0C014FEA74
:100E20001C471FFA8CFE0126200CB1FBF7F307FBD1
:100E3000131140EA01410EFB03F0884208D91CEB74
:100E4000010103F1FF3802D2884200F2CB80434611
:100E5000091AA4B2B1FBF7F007FB101144EA0144F0
:100E60000EFB00FEA64508D91CEB040400F1FF317F
:100E700002D2A64500F2BB800846A4EB0E0440EA6D
:100E800003409CE7C6F12007B34022FA07FC4CEA76
:100E9000030C20FA07F401FA06F31C43F9404FEA69
:100EA0001C4900FA06F3B1FBF9F8200C1FFA8CFE7E
:100EB00009FB181140EA014108FB0EF0884202FAD2
:100EC00006F20BD91CEB010108F1FF3A80F0888093
:100ED000884240F28580A8F102086144091AA4B250
:100EE000B1FBF9F009FB101144EA014100FB0EFED1
:100EF0008E4508D91CEB010100F1FF346CD28E4500
:100F00006AD90238614440EA0840A0FB0294A1EB90
:100F10000E01A142C846A64656D353D05DB1B3EBED
:100F2000080261EB0E0101FA07F722FA06F3F1401D
:100F30001F43C5E9007100263146BDE8F087C2F1C4
:100F40002003D8400CFA02FC21FA03F3914001433C
:100F50004FEA1C471FFA8CFEB3FBF7F007FB103675
:100F60000B0C43EA064300FB0EF69E4204FA02F421
:100F700008D91CEB030300F1FF382FD29E422DD974
:100F8000023863449B1B89B2B3FBF7F607FB1633A9
:100F900041EA034106FB0EF38B4208D91CEB010129
:100FA00006F1FF3816D28B4214D9023E6144C91AA9
:100FB00046EA004638E72E46284605E70646E3E6B9
:100FC0001846F8E64B45A9D2B9EB020864EB0C0EC3
:100FD0000138A3E74646EAE7204694E74046D1E7D2
:100FE000D0467BE7023B614432E7304609E7644480
:100FF000023842E7704700BF08B50268034B9A42C7
:1010000000D008BD01F05EFEFBE700BF0014004009
:1010100072B6FEE700B599B04422002107A806F099
:1010200097FF0023029303930493059306934FF4D1
:10103000007003F031FF00283BD1214B9A6D42F044
:1010400080529A659B6D03F080530093009B1D4A6C
:10105000136823F4C06343F400731360136803F44C
:10106000C0630193019B0A2207924FF480730A9395
:1010700001210C9110230B930223119312931391CE
:101080001492072215921693179307A801F0E2FE17
:1010900088B90F230293032303930023049305933A
:1010A0000693042102A802F0E3F930B919B05DF803
:1010B00004FBFFF7ADFFFFF7ABFFFFF7A9FF00BF92
:1010C000001002400070004008B501F0EBFDFFF792
:1010D000A1FF00F02FF800F079F900F02BFC4FF49D
:1010E000165000F0FDF94FF4E13000F013FA00F073
:1010F0009FF9142001F0F8FD00F0E8FB00F03AFB46
:1011000001F0CBFA01F0E8FC012001F042FC01F013
:101110008DFB4FF4FA7001F0E7FD01F02DF901F0BD
:101120008BFD06F0C1FA00F01BF906F0CFFA01F0D2
:10113000DDFCFCE72DE9F04F8DB000240794089406
:1011400009940A940B94774BDA6C42F01002DA643B
:10115000DA6C02F010020092009ADA6C42F004029B
:10116000DA64DA6C02F004020192019ADA6C42F05D
:101170008002DA64DA6C02F080020292029ADA6C7F
:1011800042F00102DA64DA6C02F001020392039A7F
:10119000DA6C42F00202DA64DA6C02F002020492C3
:1011A000049ADA6C42F00802DA64DA6C02F008029F
:1011B0000592059ADA6D42F00102DA65DB6D03F003
:1011C00001030693069B584F01220821384602F07E
:1011D000D8FF012240F203414FF0904002F0D1FFCE
:1011E000DFF84CA101220221504602F0CAFF4F4E07
:1011F00001228021304602F0C4FFDFF8388101224D
:101200001146404602F0BDFF402307934FF40415FA
:101210000895099407A9404602F0ACFE4FF400532C
:1012200007930895099407A9384602F0A3FE4FF0EA
:101230000809CDF81C900125089509944FF0030B7F
:10124000CDF828B007A9384602F094FECDF81CB0BE
:1012500008950994CDF828B007A94FF0904002F006
:1012600089FE302307934FF444130893099407A988
:10127000384602F07FFE02270797089509940A95E1
:1012800007A9504602F076FE4FF480630793089555
:1012900009940A9507A94FF0904002F06BFE07955C
:1012A0000894099707A9304602F064FE04230793C7
:1012B0000894099707A9304602F05CFE8023079343
:1012C000089509940A9507A9304602F053FE079540
:1012D000089509940A9507A9404602F04BFE22465C
:1012E0000521062003F032FE062003F067FE2246A9
:1012F00049460A2003F02AFE0A2003F05FFE224638
:101300000521172003F022FE172003F057FE224686
:101310000521282003F01AFE282003F04FFE0DB00F
:10132000BDE8F08F0010024000080048000C0048A3
:10133000000400480010004808B5012006F040FAFB
:10134000FBE708B5012006F03BFAFBE708B50120F2
:1013500006F036FAFBE708B5012006F031FAFBE7A4
:1013600008B50E4A00210E4806F0CCF90D4B186066
:101370000D4A00210D4806F0C5F90D4B18600D4AC5
:1013800000210D4806F0BEF90C4B18600C4A0021F4
:101390000C4806F0B7F90C4B186008BD40C90008AE
:1013A0003913000838020020F8C800084313000869
:1013B000300200201CC900084D1300083402002030
:1013C000D4C80008571300082C02002000B583B0D1
:1013D000164B9A6C42F002029A649A6C02F0020276
:1013E0000092009A9A6C42F001029A649B6C03F09E
:1013F00001030193019B002205210F2003F0A6FDAC
:101400000F2003F0DBFD00220521102003F09EFDDC
:10141000102003F0D3FD00220521452003F096FDA6
:10142000452003F0CBFD03B05DF804FB0010024043
:1014300008B51148114B0360A3F13E53A3F57D237A
:10144000A3F244634360002383600122C26003610E
:1014500043618361C361036203F08EF828B9002100
:10146000054803F05AFB18B908BDFFF7D1FDF6E7B0
:10147000FFF7CEFDF8E700BF3C020020005400401B
:1014800000B587B00023019302930393049305935F
:101490000268104B9A4202D007B05DF804FB4FF48B
:1014A00040730193122302930123039303230493B4
:1014B000042305930DEB0301074802F05BFD074B86
:1014C0009A6D42F400129A659B6D03F40013009329
:1014D000009BE1E700540040000400480010024077
:1014E00008B50A4B0A4A1A60586000229A60DA600E
:1014F0001A610C2159619A611A625A62184604F005
:10150000CEFA00B908BDFFF783FDFBE7740F00209A
:101510000080004008B50B4B0B4A1A60586000224F
:101520009A60DA601A610C2159619A61DA611A6273
:101530005A62184604F0B3FA00B908BDFFF768FD17
:10154000FBE700BF841000200044004030B5ABB082
:1015500004460021259126912791289129918822DE
:1015600003A806F0F5FC23685D4A934207D05D4A64
:10157000934245D05C4A934279D02BB030BD2023B2
:10158000039303A802F0DEF9002833D1574BDA6D3C
:1015900042F00102DA65DB6D03F001030093009B6A
:1015A00003232593022226920122279228930823BF
:1015B000299325A94E4802F0DDFC4E484E4B0360AE
:1015C0000423436000238360C3608022026143617F
:1015D0008361C361036203F0E7FA70B9454B636747
:1015E0009C6200220521462003F0B0FC462003F057
:1015F000E5FCC2E7FFF70CFDC8E7FFF709FDEDE7E3
:101600003A4B1A6E42F480421A661B6E03F4804312
:101610000193019BC023259302252695012327933F
:10162000032328930723299325A9344802F0A2FC19
:101630003348344B0360456000238360C3608022DD
:10164000026143618361C361036203F0ADFA58B97B
:101650002B4B63679C6200220521252003F076FC5A
:10166000252003F0ABFC88E7FFF7D2FCF0E71F4B27
:101670009A6D42F400329A659B6D03F40033029335
:10168000029B0C23259302252695012327930323F0
:1016900028930723299325A94FF0904002F06AFC74
:1016A00019481A4B0360456000238360C3608022A1
:1016B000026143618361C361036203F075FA58B943
:1016C000114B63679C6200220521262003F03EFC3B
:1016D000262003F073FC50E7FFF79AFCF0E700BF09
:1016E00000800040003801400044004000100240EB
:1016F000000800489C0E00208004024000040048BE
:10170000E40E0020580002402C0F00206C00024024
:10171000064BDB6913F0800FFAD080B2034B1885BB
:10172000024BDB6913F0400FFAD0704700440040D1
:1017300070B506460D46002403E0305DFFF7E8FF74
:101740000134A542F9D870BD0DE0094BDB6913F0F7
:10175000800FFAD0013092B2054B1A85044BDB6939
:1017600013F0400FFAD00278002AEED1704700BF84
:101770000044004038B50B4C236810251D62022040
:1017800001F0B2FA236840221A624FF480620649DF
:10179000204604F009FA226813682B43136023687B
:1017A0001D6238BD841000209C0A00200E4B1B686F
:1017B000DA6912F0100F00D1704710B510221A62CA
:1017C000094C204603F03DFC636F1B685B68C3F562
:1017D000806306494B80012301F8043B4FF480628B
:1017E000204604F0E1F910BD84100020980A002082
:1017F0000E4B1B68DA6912F0100F00D1704710B55C
:1018000010221A62094C204603F01BFC636F1B6810
:101810005B68C3F5806306494B80012301F8043BF4
:101820004FF48062204604F0BFF910BDFC0F002089
:1018300094060020064BDB6913F0800FFAD080B2CB
:10184000034B1885024BDB6913F0400FFAD0704749
:101850000080004070B506460D46002403E0305D70
:10186000FFF7E8FF0134A542F9D870BD10B5044672
:1018700002E00134FFF7DEFF20780028F9D110BD27
:101880000F4B1B68DA6912F0100F00D1704710B5CA
:1018900010221A620A4C204603F0D3FB636F1B68C8
:1018A0005B68084A1360C3F5806307494B800123D6
:1018B00001F8043B4FF48062204604F075F910BD36
:1018C000740F00200C1100209002002038B50B4C42
:1018D000236810251D62022001F006FA23684022C9
:1018E0001A624FF480620649204604F05DF92268CE
:1018F00013682B43136023681D6238BD740F0020EA
:10190000940200200FB400B5ADF20C4D0DF58263CA
:1019100053F8042B01934FF4806102A808F088F972
:1019200002A8FFF711FF0DF20C4D5DF804EB04B0B7
:101930007047000000B587B0002301930293039322
:101940000493059300931B481B4A026043607F2267
:101950008260FF22C260036143618361C36104F05E
:10196000AFF950B90021134804F024FA43F2F223EE
:10197000984205D107B05DF804FBFFF749FBF1E79A
:1019800015238DF8043057238DF8053006238DF884
:10199000003010238DF801300C238DF8023018230D
:1019A0008DF8033043F2F2220021024804F0F6F9E8
:1019B000E0E700BF101100200028004010B5A2B0E1
:1019C000044688220021684606F0C2FA2268114BBC
:1019D0009A4201D022B010BD4FF4003300934FF46F
:1019E00000732193684601F0ADFF78B90A4AD2F836
:1019F000903043F40043C2F89030002205210320C8
:101A000003F0A4FA032003F0D9FAE3E7FFF700FBA1
:101A1000ECE700BF002800400010024002680E4BB7
:101A20009A4200D0704700B583B003F500339A6D39
:101A300042F010029A659B6D03F010030193019B25
:101A400003220521362003F081FA362003F0B6FA8E
:101A500003B05DF804FB00BF00100040FEE7FEE7A6
:101A6000FEE7FEE7FEE7704708B5024804F07CF9A0
:101A700008BD00BF1011002008B502F08FF908BDA5
:101A800008B5012002F082FB08BD08B5102002F065
:101A90007DFB08BD08B5024803F092F908BD00BF00
:101AA000E40E002008B5024803F08AF908BD00BF23
:101AB0002C0F002008B5202002F068FB402002F027
:101AC00065FB08BD08B5FFF793FE024803F05AFB1B
:101AD00008BD00BFFC0F002008B5FFF767FE0248F5
:101AE00003F050FB08BD00BF8410002008B54FF480
:101AF000005002F04BFB08BD08B5024804F0AAF9FB
:101B000008BD00BF3411002008B5024804F0A2F956
:101B100008BD00BFAC4F002008B5024803F050F9E3
:101B200008BD00BF9C0E002008B5FFF7A9FE0248C3
:101B300003F028FB08BD00BF740F002000B583B080
:101B4000114B1A6E42F001021A661A6E02F001027F
:101B50000092009A9A6D42F080529A659B6D03F054
:101B600080530193019B00220F216FF0010003F0CD
:101B7000EDF900220521042003F0E8F9042003F028
:101B80001DFA03B05DF804FB00100240012070470D
:101B900008B506F095F9162303604FF0FF3008BD35
:101BA00008B54FF0FF31FFF7F3FFFEE770B50C46C5
:101BB0001646002506E0AFF30080214601F8010B30
:101BC00001350C46B542F6DB304670BD10464FF08D
:101BD000000C0AE000BF4FF060431B68002BF9D0F7
:101BE0004FF060431A700CF1010C844510DA11F8C3
:101BF000012B4FF06043D3F8803E13F0010FF2D079
:101C00004FF06043D3F8003E13F0010FE3D1EAE751
:101C10007047000008B503460B4A126842B10A4AF1
:101C2000106803446A46934206D8074A136008BD09
:101C3000054A06491160F2E706F042F90C230360F9
:101C40004FF0FF30F3E700BF801100200850002064
:101C50004FF0FF3070474FF400534B600020704747
:101C6000012070470020704738B5054601F036F86E
:101C7000044601F033F8001BA842FAD338BD000037
:101C800010B50446114B1B7853B901F027F8104BDF
:101C90001B6898420CD201F021F8012090B910BDC8
:101CA00001F01CF80A4B1860084B00221A70ECE790
:101CB00001F014F8064B1B68C31AA34234BF00207E
:101CC0000120EBE7014B01221A70E8E70500002034
:101CD0008411002005E0203B01F8013B10F8013B96
:101CE00053B10378A3F16102D2B2192AF3D9202BA0
:101CF000F4D001F8013BF1E770470CE001300CF142
:101D0000010C02789CF800309A4202D10AB1002BF3
:101D1000F4D14BB1013003782BB10B780BB18C4669
:101D2000EFE7002070470020704770B515461C464D
:101D3000FFF7E3FF58B38446034600211A78EAB15F
:101D40002A78DAB1AE46002004E001330EF1010E2C
:101D50000130C0B21E789EF80020964202D10EB12A
:101D6000002AF2D14AB110B1013B0138C0B20133AF
:101D70000144C9B20131C9B2E0E7012239B132B13F
:101D80001CF8013B04F8013B0139C9B2F6E770BD0C
:101D900010B586460020024606E0392B21D903EB18
:101DA000001057380132D2B28A4219D20EEB020427
:101DB0001EF80230A3F1410C5FFA8CFCBCF1190F44
:101DC00001D82033DBB22370A3F1300C5FFA8CFC16
:101DD000BCF1090FE1D9A3F16104E4B2192CDCD9FB
:101DE00010BD03EB00103038DCE70378012B03D083
:101DF0004378012B15D07047002303700B78032B19
:101E0000F9D8DFE803F005080B0200230B707047D8
:101E100001230B70704700230B70704700230B7079
:101E20007047002343700B78012B09D0032B04D09B
:101E3000002BE0D102230B70704702230B70704718
:101E400002230B70D7E7000008B54FF40051144887
:101E500002F090F920B94021124802F08BF980B1CC
:101E60004FF400510E4802F085F958B140210D4859
:101E700002F080F968B10C4B19680C4B1868FFF739
:101E8000B4FF08BD0A4B01221A70C82000F02CFFD5
:101E9000ECE7074B01225A70C82000F025FFEAE763
:101EA0000008004800100048000000200800002042
:101EB0008811002008B5022803D0032806D002208C
:101EC00008BD1021044802F055F9F9E72021024825
:101ED00002F050F9F4E700BF0008004808B510BB55
:101EE00089B1012921D14FF0904002F043F9012836
:101EF0001BD1002201214FF0904002F042F90A204C
:101F0000FFF7B2FE11E001214FF0904002F032F9EC
:101F100058B9012211464FF0904002F032F90A20E0
:101F2000FFF7A2FE01E0012800D008BD022910D071
:101F30000329FAD108210E4802F01CF90128F4D136
:101F4000002208210A4802F01CF90A20FFF78CFE43
:101F5000EBE70821064802F00DF90028E5D101223F
:101F60000821034802F00DF90A20FFF77DFEDCE7A7
:101F70000008004808B50D48FFF7C4FC0221012005
:101F8000FFF7ACFF002202214FF0904002F0F9F879
:101F90000F20FFF769FE012202214FF0904002F06E
:101FA000F0F8C820FFF760FE08BD00BF64C9000854
:101FB00010B5044601461D48FFF7A4FC202C16D896
:101FC00063B2EBB1013C1F2C1AD8DFE804F0161AFB
:101FD000191E191919221919191919191926191956
:101FE000191919191919191919191919192A402C16
:101FF00006D10F48FFF786FC02E00E48FFF782FC8F
:1020000010BD0D48FFF77EFCFAE70C48FFF77AFC9D
:10201000F6E70B48FFF776FCF2E70A48FFF772FC99
:10202000EEE70948FFF76EFCEAE700BF78C9000851
:1020300040CA00088CC90008A4C90008B8C9000833
:10204000CCC90008F8C9000818CA000838B5044609
:102050000D46084B01221A700320FFF72BFFA04208
:1020600006D12846FFF70CFE0028F5D0002000E03E
:10207000012038BD05000020F0B5C7B007460C466A
:1020800000254195429543954495459502210120AF
:10209000FFF724FF29462846FFF720FF01AE31460F
:1020A0003846FFF717FE3046FEF792F83218274BF6
:1020B00019889B7831529370254800F8045B4FF4DF
:1020C0008062294605F044FF3046FFF7CFFB214BE5
:1020D00001221A701E4A12782AB94FF4FA70FFF7DB
:1020E000CFFD0028F6D01A48002300F8043B1A4917
:1020F000FFF703FE0546F0B141AB184A18493846D0
:10210000FFF713FE00220132D2B202F58C710DEB03
:10211000010C1CF8140C0028F5D13A220CF8142CF0
:1021200023460D4A41A90F48FFF7FFFD281E18BF9F
:10213000012047B0F0BD0B4E3046FEF749F802468D
:102140003146204605F0F6FEF0E700BF98CA0008C9
:10215000900200200500002064CA000880CA000820
:1021600084CA00089402002070B506462F48FFF785
:10217000C9FB02210120FFF7B1FE01210020FFF77A
:10218000ADFE2B4B01221A700220FFF793FE05468D
:102190000320FFF78FFE04464FF47A7006FB00F031
:1021A000FFF76EFD0246F8B9224B1B784BB3224B6A
:1021B0001B7853BB012DE7D1012CE5D11C4B01222B
:1021C0001A701D4B1B782BB94FF49670FFF758FD12
:1021D0000028F6D0184B1B78FBB91848FFF792FB84
:1021E0000122174B1A700AE00024154B1C700321C2
:1021F0000120FFF773FE1348FFF784FB22461046C9
:1022000070BD0F4B00211970F9E70B4800230370D4
:1022100041880430FFF78CFACCE7074800230370AD
:1022200041880430FFF784FAD7E700BF88CA000866
:10223000050000200400002090020020ACCA000825
:10224000221200209CCA0008F8B506460D46046814
:1022500003E0204605F066FE3C4624B3A768012D46
:1022600009D0022D12D0002DF6D160680028F0D0E0
:1022700005F058FEEDE72388002BEDD1606808B12A
:1022800005F050FE204605F04DFEE5E72388002BC3
:10229000E2D1002FE0D0606808B105F043FE20468F
:1022A00005F040FED8E700233360F8BD08B5034BC6
:1022B00000221A70FFF7CEFA08BD00BF900200207E
:1022C000F8B50646036893B11D469B68002BFBD109
:1022D0000C2005F01FFE074650B3174B5C880480A6
:1022E0003CB9002343607B6843B1002415E01D46E0
:1022F000EEE7204605F00EFE7860F4E76CB1384654
:1023000005F010FE0D48FFF7FDFA0EE07A680A4B63
:1023100023441B7913550134A4B23B88A342F5D85A
:102320000023BB6033680BB1AF60F8BD3760FCE7DA
:102330000348FFF7E7FAF8E790020020C0CA000858
:1023400010CB000870B506460C46084D96220021B9
:10235000284605F0FDFD29463046FFF78DFE022197
:102360002819FFF715FDC0B270BD00BF8C11002009
:1023700008B5FFF7B3FD08BD08B5FFF7FBFD08BDC5
:1023800008B5FFF7F1FE08BD38B50446084D002337
:102390002B70FFF7F1FF2B7823B103210120FFF70A
:1023A0009DFD38BD2046FFF7DFFE2870F5E700BF32
:1023B0002212002070B506460D461446594B1B7874
:1023C000062B27D800212046FFF73EFF564B1B78EF
:1023D000002B00F0A080002D00F09F800221012042
:1023E000FFF77CFD01210020FFF778FD4FF47A71A3
:1023F0000020FFF72BFEA8B129463046FFF756FF15
:102400004FF47A710120FFF721FE88B1454B00227D
:102410001A7023E0434B00221A704FF49670FFF7B6
:10242000B3FFCFE73F4A137801331370082075E0FC
:102430003C4A13780133137020206FE03B4B1B782C
:10244000012B24D0394B00225A80394B1B781F2B8B
:102450002BD00320FFF72EFD00284DD14EF6602132
:102460000020FFF7F3FD002859D064210120FFF779
:10247000EDFD304B01221A702C4B1B78002BDDD167
:102480004FF49670FFF7FCFB0028F5D0D6E7274BFA
:1024900059880029D6D01846002300F8043BFFF7DE
:1024A00047F92046FFF70CFFCFE70320FFF702FDB7
:1024B0000028CED11D4B5B88092BCAD801221146BA
:1024C0001D48FFF73FFF012807D1022225211B48A5
:1024D000FFF738FF164B1870BBE7134C002323702F
:1024E000134A13701648FFF70DFA4FF49670FFF772
:1024F0003BFE2070042011E00220FFF7DBFC20B13E
:102500000B4B00221A70012008E0094A13780133AE
:102510001370042002E0022000E0402070BD102073
:10252000FCE700BF8A110020221200209002002048
:102530008B1100200500002048CB000854CB000878
:1025400060CB000870B5C0B005460C4616460021A9
:102550000091FB2201A805F0FBFC224629466846B3
:1025600005F0E8FC224669460648FFF7CBF93246FB
:1025700021462846FFF71EFF0446FFF719FD2046B7
:1025800040B070BD74CB000838B504460D4602F06B
:10259000BFFA60B90A4B23600123E360094B636013
:1025A00000232361A361E3612362A5606361204688
:1025B00001F0E2FF0021204602F0AFFA38BD00BF73
:1025C00000540040BC7D701008B501460148FFF77B
:1025D000DBFF08BD241200200048704724120020B1
:1025E000F0B585B007460D461646FFF7F5FF184BC8
:1025F0001B88ADF80C3000238DF80E308DF80C7070
:10260000022E22D104462B788DF80D306B788DF890
:102610000E30104B01221A7004E04FF4FA70FFF7ED
:102620002FFB90B94FF47A730093032303AA802100
:10263000204602F005F840B1204602F06CFA04286A
:10264000EBD0054BF3221A70E7E705B0F0BD00BFF1
:10265000A0C80008050000202312002000B583B0A8
:102660008023ADF80430022201A91046FFF7B8FF1D
:102670000F2000F039FB03B05DF804FB00B583B018
:10268000030A8DF804308DF80500022201A91046D6
:10269000FFF7A6FF03B05DF804FB08B58020FFF745
:1026A00093FFFFF7DBFF4FF48050FFF7E7FF0A20AF
:1026B00000F01AFB08BD000070B584B00D46164648
:1026C0008DF80F00FFF788FF04461D4B01221A709A
:1026D00004E04FF4FA70FFF7D3FA98B94FF47A7028
:1026E000009001230DF10F028021204601F0A8FF88
:1026F00040B1204602F00FFA0428EAD0114BF5222F
:102700001A70E6E70E4B01221A7004E04FF4FA70DB
:10271000FFF7B6FA90B94FF47A70009033462A4624
:102720008121204602F05EF840B1204602F0F3F924
:102730000428EBD0034BF4221A70E7E704B070BD15
:10274000050000202312002000B583B0022201A959
:102750000020FFF7B1FF9DF804009DF8053043EA23
:10276000002003B05DF804FB08B501460148FFF7FF
:102770000BFF08BD78120020004870477812002037
:102780002DE9F04385B08146884617461E46FFF77F
:10279000F3FF05460D4B01221A704FF47A74029430
:1027A0000196009743464A463821284602F0D8F859
:1027B00040B14FF4FA70FFF763FA0028EDD0044BF4
:1027C000ED221A7005B0BDE8F08300BF05000020BF
:1027D0002312002070B584B006460D46FFF7CCFFEB
:1027E00004460023ADF80C308DF80C602B788DF882
:1027F0000D300C4B01221A704FF47A7300930223B0
:1028000003AA3821204601F01BFF40B14FF4FA70B3
:10281000FFF736FA0028EFD0034BED221A7004B010
:1028200070BD00BF050000202312002000B583B05A
:102830003820FFF799FF01230DF1070219462A20DE
:10284000FFF79EFF9DF8073023F001038DF8073056
:1028500001220DF107012A20FFF7BCFF01230DF132
:10286000060219460E20FFF78BFF9DF8063043F055
:1028700001038DF8063001220DF106010E20FFF74D
:10288000A9FF9DF8073043F001038DF807300122BE
:102890000DF107012A20FFF79DFF0A2000F024FA1E
:1028A00003B05DF804FB000008B501460148FFF7DE
:1028B0006BFE08BDCC12002000487047CC120020EF
:1028C00070B584B006460D46FFF7F6FF04460023B8
:1028D000ADF80C308DF80C602B788DF80D300C4B6A
:1028E00001221A704FF47A730093022303AAC021C5
:1028F000204601F0A5FE40B14FF4FA70FFF7C0F991
:102900000028EFD0034BEF221A7004B070BD00BF57
:10291000050000202312002000B583B0E8B9B823D9
:102920008DF8073001220DF107012620FFF7C8FFBF
:1029300007238DF8073001220DEB03011320FFF769
:10294000BFFFB9238DF8073001220DF107012620C2
:10295000FFF7B6FF03B05DF804FB21238DF80730C5
:1029600001220DF107012620FFF7AAFF00238DF8B1
:10297000073001220DF107012720FFF7A1FF1123E6
:102980008DF8073001220DF107012820FFF798FF8D
:10299000E0E710B50446C020FFF786FF2046FFF7AA
:1029A000BBFF0A2000F0A0F910BD000008B50146E9
:1029B0000148FFF7E9FD08BD2013002000487047DB
:1029C0002013002070B584B00D4616468DF80F0018
:1029D000FFF7F4FF0446174B01221A704FF47A7088
:1029E000009001230DF10F028821204601F028FEFE
:1029F00040B14FF4FA70FFF743F90028EED00E4BC8
:102A0000F2221A700B4B01221A704FF47A70009068
:102A100033462A468921204601F0E4FE40B14FF4B6
:102A2000FA70FFF72DF90028EFD0034BF1221A704E
:102A300004B070BD050000202312002070B584B0E2
:102A400006460D46FFF7BAFF04460E4B1B88ADF84D
:102A50000C3000238DF80E308DF80C602B788DF83B
:102A60000D306B788DF80E304FF47A73009303239A
:102A700003AA8821204601F0E3FD0028F4D104B028
:102A800070BD00BFA4C8000800B583B0022201A930
:102A90000120FFF797FF9DF804209DF8053043EAD9
:102AA0000223C3F30B0242F4404213F4C06F05D17A
:102AB00023F4C0631B051B0D43F44442130A8DF835
:102AC00004308DF80520022201A90120FFF7B6FF8E
:102AD000002003B05DF804FB08B58820FFF766FF0F
:102AE000FFF7D2FF0A2000F0FFF808BD10B582B052
:102AF0000023ADF80630454B1B78012B2DD0022B5F
:102B000078D00BB102B010BD414B1B7873B9414B6B
:102B10001B78D3B9404B1B78002BF3D03E480023E1
:102B2000037041880430FEF703FEEBE70024384BC6
:102B30001C703A48FEF7E6FE02210120FFF718FC60
:102B400021462046FFF714FCE1E7324800230370DA
:102B500041880430FEF77EFEDCE72D4B1B78012B0D
:102B600012D12C4B1B784BBB2A4B1B78002B34D13A
:102B7000294B1B78002BC5D02748002303704188C0
:102B80000430FEF7D5FDBDE7214B01221A70244821
:102B9000FEF7B8FE7820FFF7F3FB0028B2D0FFF76E
:102BA000D3FD204BA3FB00239B09ADF806301E4A42
:102BB00002210DF10600FFF7C5FCD2E720211B48DA
:102BC00001F0D8FA0028CFD0124800230370164A2B
:102BD00081780430FFF7B6FCCAE72021134801F0E2
:102BE000C9FA0028C4D10B4B00221A701048FEF716
:102BF00089FEBDE7064B1B78022B83D0044B0222D3
:102C00001A700C48FEF77EFE7CE700BF040000202F
:102C10000C000020980A00209002002094CB0008AD
:102C2000A8CB0008D34D62107413002000080048A0
:102C3000C0CB0008F4CB000808B50F48FEF762FED1
:102C40000E4B0F4A0F491048FEF75CFE0F48FEF787
:102C500059FE0F48FEF756FE0E48FEF753FE0E488B
:102C6000FEF750FE0D48FEF74DFE0D48FEF74AFEFA
:102C7000642000F039F808BD08CC000810CC00082A
:102C80001CCC000828CC000830CC000898CA0008EA
:102C90008CCC0008A4CC0008C0CC0008E0CC000814
:102CA000F8CC000810B5032002F03EF90F2005F023
:102CB0008DF810B10124204610BD0446FEF73EFFFA
:102CC000F9E70000034B1B78034A11680B441360BB
:102CD000704700BF0D00002078130020014B1868DA
:102CE000704700BF7813002038B50446FFF7F6FFA1
:102CF0000546B4F1FF3F02D0044B1B781C44FFF79C
:102D0000EDFF401BA042FAD338BD00BF0D000020EC
:102D100030B583B00446204B9B6D13F0805F0BD021
:102D200002F0B2F8B0F5007F17D0802C1FD82DD05C
:102D3000702C2DD000211BE0174DAB6D43F080535C
:102D4000AB65AB6D03F080530193019B02F09CF8DF
:102D5000AB6D23F08053AB65E4E7802C03D9A02C46
:102D600003D9022104E0002102E0012100E0032157
:102D70000A4A136823F007030B431360136803F038
:102D800007038B4206D1002003B030BD0221EFE7DC
:102D90000121EDE70120F7E700100240002002408A
:102DA000284A9368D26802F0030213F00C030AD099
:102DB0000C2B06D0042B1FD0082B20D0002002465D
:102DC00010E0012AF6D11F4A126812F0080F0CD148
:102DD0001C4AD2F89420C2F303221B4951F8222046
:102DE00043B100200C2B0DD07047164A1268C2F375
:102DF0000312F2E71046F5E714480022F2E7144800
:102E00000022EFE70F4BDB6803F00303022B16D021
:102E1000032B00D10E4A0B49C868C0F30210431CB3
:102E2000C868C0F3062002FB00F0B0FBF3F0CB68EB
:102E3000C3F3416301335B00B0FBF3F0D4E7034A13
:102E4000E9E700BF0010024038CD00080024F4007C
:102E500000127A00002800F0F182F0B583B0044639
:102E6000964B9D6805F00C05DE6806F003060368C6
:102E700013F0100F5AD0E5B10C2D18D0A369002B18
:102E800000F0BB808D4A136843F001031360FFF725
:102E900025FF0746894B1B6813F0020F40F09A800C
:102EA000FFF71CFFC01B0228F4D90320D1E2012E3A
:102EB000E4D1824B1B6813F0020F03D0A369002BEF
:102EC00000F0BE82206A7D4B1B6813F0080F5BD0B8
:102ED0007A4B1B6803F0F00398425CD8774B1A6872
:102EE00042F008021A601A6822F0F002216A0A43CE
:102EF0001A605A6822F47F42E16942EA01225A606C
:102F0000002D60D0FFF74CFF6C4B9B68C3F303139D
:102F10006B4AD35C03F01F03D8406A4B18606A4BBE
:102F2000186804F053FF002840F09382236813F0E0
:102F3000010F00F08180082D75D00C2D71D06368D1
:102F4000B3F5803F00F09780B3F5A02F00F0998093
:102F50005A4B1A6822F480321A601A6822F48022CE
:102F60001A606368002B00F09980FFF7B7FE0746F0
:102F7000524B1B6813F4003F5ED1FFF7AFFEC01B3E
:102F80006428F5D9032064E24C4BD3F894301B0934
:102F900003F0F003A0E7FFF7BBFE002840F05282E9
:102FA000464B1A6842F008021A601A6822F0F002D2
:102FB000216A0A431A605A6822F47F42E16942EAB0
:102FC00001225A609EE7206AFFF7A2FE002899D0EE
:102FD00001203EE2394B1A6842F008021A601A6872
:102FE00022F0F002216A0A431A605A6822F47F42F2
:102FF000E16942EA01225A6098E7304A136823F0F7
:1030000001031360FFF76AFE07462C4B1B6813F0A1
:10301000020F8BD0FFF762FEC01B0228F5D90320F8
:1030200017E2032E8BD1254B1B6813F4003F03D00E
:103030006368002B00F00882236813F0020F58D059
:10304000042D45D00C2D41D0E368002B77D01B4ACE
:10305000136843F480731360FFF740FE0646174B76
:103060001B6813F4806F61D1FFF738FE801B0228C4
:10307000F5D90320EDE1114A136843F4803313605E
:103080006FE703F18043A3F53C331A6842F48022D2
:103090001A601A6842F480321A6062E7FFF71EFE77
:1030A0000746064B1B6813F4003FC5D0FFF716FE1A
:1030B000C01B6428F5D90320CBE100BF00100240FB
:1030C00020CD00083400002010000020022EBBD1CB
:1030D000A34B1B6813F4806F03D0E368002B00F050
:1030E000B5819F4A536823F0F853216943EA01638D
:1030F0005360236813F0080F4CD063699BB3984A60
:10310000D2F8943043F00103C2F89430FFF7E6FDA3
:103110000646934BD3F8943013F0020F3AD1FFF7E1
:10312000DDFD801B0228F4D9032092E18C4A53680C
:1031300023F0F853216943EA01635360D9E7884AD1
:10314000136823F480731360FFF7C8FD0646844BB1
:103150001B6813F4806FCCD0FFF7C0FD801B0228E2
:10316000F5D9032075E17E4AD2F8943023F00103AB
:10317000C2F89430FFF7B2FD0646794BD3F894308D
:1031800013F0020F06D0FFF7A9FD801B0228F4D927
:1031900003205EE1236813F0040F7AD0704B9B6D1F
:1031A00013F0805F36D16E4B9A6D42F080529A6573
:1031B0009B6D03F080530193019B0126694B1B68B3
:1031C00013F4807F28D0A368012B39D0052B3FD082
:1031D000634BD3F8902022F00102C3F89020D3F87B
:1031E000902022F00402C3F89020A368002B3DD069
:1031F000FFF774FD07465A4BD3F8903013F0020FD7
:1032000046D1FFF76BFDC01B41F288339842F2D9DB
:1032100003201EE10026D1E7524A136843F480736D
:103220001360FFF75BFD07464E4B1B6813F4807F6E
:10323000C9D1FFF753FDC01B0228F5D9032008E1CF
:10324000474AD2F8903043F00103C2F89030CCE7FF
:10325000434BD3F8902042F00402C3F89020D3F8F7
:10326000902042F00102C3F89020BEE7FFF736FD40
:1032700007463B4BD3F8903013F0020F08D0FFF70E
:103280002DFDC01B41F288339842F2D90320E0E0C3
:10329000EEB9A36A002B00F0DB80022B1DD00C2DB1
:1032A00000F0DD802E4A136823F080731360FFF76F
:1032B00015FD04462A4B1B6813F0007F00F0B78011
:1032C000FFF70CFD001B0228F4D90320C1E0244ABB
:1032D000936D23F080539365DBE7214BDB6803F0AC
:1032E0000301E26A91420FD00C2D00F0B4801C4B18
:1032F0001B6813F0806F40F0B080194B1B6813F00F
:10330000805F31D00120A4E003F07002216B01390D
:10331000B2EB011FE8D103F4FE42616BB2EB012F67
:10332000E2D103F40031A26B073A18BF01229142A7
:10333000DAD103F4C001E26B5208013AB1EB425F0B
:10334000D2D103F0C063226C5208013AB3EB426F52
:10335000CAD1034B1B6813F0007F4ED0002078E0E9
:1033600000100240007000403E4A136823F0807352
:103370001360FFF7B3FC05463A4B1B6813F0007F60
:1033800006D0FFF7ABFC401B0228F5D9032060E014
:10339000344AD36834491940E36A206B013843EA60
:1033A0000013606B43EA0023E06B4008013843EAF6
:1033B0004053206C4008013843EA4063A06B000989
:1033C00043EA40430B43D360136843F080731360B8
:1033D000D36843F08073D360FFF780FC0446214B31
:1033E0001B6813F0007F06D1FFF778FC001B022852
:1033F000F5D903202DE000202BE01A4B1A6842F08B
:1034000080721A60DA6842F08072DA60FFF766FC58
:103410000446144B1B6813F0007F06D1FFF75EFCD7
:10342000031B022BF5D9032013E0002011E00D4A05
:10343000D1680E4B0B40D36000200AE0012070479A
:10344000012006E0012004E0012002E0012000E06C
:10345000002003B0F0BD0120FBE70120F9E70120C7
:10346000F7E700BF001002408C809DF9FCFFEEFEE4
:10347000002800F0AF8070B50D460446594B1B681C
:1034800003F007038B420BD2564A136823F007035D
:103490000B431360136803F007038B4240F09C80DA
:1034A000236813F0020F0CD0A2684F4B9B6803F007
:1034B000F0039A4205D94C498B6823F0F0031A4374
:1034C0008A60236813F0010F39D06368032B09D099
:1034D000022B26D063BB444A126812F0020F06D1B9
:1034E000012076E0404A126812F0007F76D03E4913
:1034F0008A6822F0030213438B60FFF7EFFB064656
:10350000394B9B6803F00C036268B3EB820F16D053
:10351000FFF7E4FB801B41F288339842F0D9032087
:1035200057E0314A126812F4003FE0D1012050E028
:103530002D4A126812F4806FD9D1012049E0236826
:1035400013F0020F0CD0A268274B9B6803F0F00326
:103550009A4205D224498B6823F0F0031A438A600B
:10356000204B1B6803F00703AB420AD91D4A1368BE
:1035700023F007032B431360136803F00703AB42E8
:103580002ED1236813F0040F06D0174A936823F452
:10359000E063E1680B439360236813F0080F07D0E2
:1035A000114A936823F46053216943EAC10393608D
:1035B000FFF7F6FB0C4B9B68C3F303130B4AD35C7A
:1035C00003F01F03D8400A4B18600A4B186804F038
:1035D000FDFB70BD012070470120FAE70120F8E7EC
:1035E0000120F6E7002002400010024020CD000834
:1035F0003400002010000020014B1868704700BF05
:103600003400002008B5FFF7F7FF054B9B68C3F3B4
:103610000223044AD35C03F01F03D84008BD00BF57
:103620000010024030CD000808B5FFF7E5FF054B5C
:103630009B68C3F3C223044AD35C03F01F03D84042
:1036400008BD00BF0010024030CD00080F2303600A
:103650000B4B9A6802F0030242609A6802F0F00293
:1036600082609A6802F4E062C2609B68DB0803F43F
:10367000E0630361034B1B6803F007030B607047B3
:103680000010024000200240F8B504460F46594B96
:10369000DB6813F0030F18D0564BDB6803F003030D
:1036A0000268934202D001252846F8BD002A00F0A6
:1036B0009E80504BDB68C3F3021301334268934290
:1036C00001D00125F0E7002509E00368022B57D05F
:1036D000032B5CD0012B42D00125002DE4D1454ABB
:1036E000136823F080631360FFF7F8FA0646414B36
:1036F0001B6813F0006F05D0FFF7F0FA831B022B55
:10370000F5D90325002DCFD1002F4ED139490B69B2
:1037100023F41F3323F44073A068E26812095204B3
:1037200042EA002213430B61324A136843F080637C
:103730001360FFF7D3FA06462E4B1B6813F0006F99
:1037400005D1FFF7CBFA831B022BF5D90325002DFA
:10375000AAD1284A1369A1690B431361A4E7254A3A
:10376000126812F0020F1ED02248C26822F07302C3
:103770006168013943EA01131343C3600025ACE7D4
:103780001C4A126812F4806FEED10125A5E7194A90
:10379000126812F4003FE7D1164A126812F4802F23
:1037A000E2D1012599E7012597E7012F0FD01148B4
:1037B000026922F0C06222F4FE42A16863695B08DC
:1037C000013B5B0643EA012313430361ACE709486D
:1037D000026922F4C00222F4FE42A16823695B0858
:1037E000013B5B0543EA0123134303619CE7012589
:1037F0005AE700BF00100240F8B504460F46504B90
:10380000DB6813F0030F18D04D4BDB6803F00303A4
:103810000268934202D001252846F8BD002A00F034
:103820008C80474BDB68C3F3021301334268934239
:1038300001D00125F0E7002509E00368022B57D0ED
:10384000032B5CD0012B42D00125002DE4D13C4A52
:10385000136823F080531360FFF740FA0646384B95
:103860001B6813F0005F05D0FFF738FA831B022BAB
:10387000F5D90325002DCFD1002F4ED130494B690A
:1038800023F41F3323F44073A068E2681209520442
:1038900042EA002213434B61294A136843F08053E4
:1038A0001360FFF71BFA0646254B1B6813F0005FF9
:1038B00005D1FFF713FA831B022BF5D90325002D41
:1038C000AAD11F4A536961690B435361A4E71C4A9B
:1038D000126812F0020F1ED01948C26822F073025B
:1038E0006168013943EA01131343C3600025ACE763
:1038F000134A126812F4806FEED10125A5E7104A31
:10390000126812F4003FE7D10D4A126812F4802FBA
:10391000E2D1012599E7012597E70948426922F09C
:10392000C06222F4FE42A16823695B08013B5B068A
:1039300043EA012313434361AEE701256CE700BF6F
:10394000001002402DE9F04182B00446036813F4F0
:10395000006F33D0436EB3F5000F1FD00CD823B3E4
:10396000B3F5800F05D100212030FFF745FF064653
:1039700020E001273E4623E0B3F5400F0BD100269F
:10398000604AD2F8883023F44003616E0B43C2F8DA
:103990008830002714E001273E4611E0594AD368D9
:1039A00043F48033D3600026EAE700210430FFF7B8
:1039B0006BFE0646002EE3D0374601E000273E4668
:1039C000236813F4805F30D0A36EB3F1007F1FD063
:1039D0000DD81BB3B3F1807F06D1002104F1200084
:1039E000FFF70AFF064605E001273E461DE0B3F15A
:1039F000407F0AD1C6B9434AD2F8883023F04073D9
:103A0000A16E0B43C2F888300FE001273E460CE060
:103A10003C4AD36843F48033D360EBE70021201D98
:103A2000FFF732FE0646E5E73746236813F4003F0A
:103A300071D0344B9B6D13F0805F4ED1314B9A6D3A
:103A400042F080529A659B6D03F080530193019B75
:103A50004FF001082C4A136843F480731360FFF79A
:103A60003DF90546284B1B6813F4807F05D1FFF70D
:103A700035F9401B0228F5D90326002E46D1214BEB
:103A8000D3F8903013F4407316D0D4F884209A42BF
:103A900012D01C4AD2F8903023F44073D2F8901020
:103AA00041F48031C2F89010D2F8901021F48031A6
:103AB000C2F89010C2F8903013F0010F10D1002E10
:103AC00040F027810F4AD2F8903023F44073D4F8A5
:103AD00084100B43C2F8903019E04FF00008B9E7AA
:103AE000FFF7FCF80546074BD3F8903013F0020FB0
:103AF000E5D1FFF7F3F8401B41F288339842F2D941
:103B00000326DCE700100240007000403746B8F1A1
:103B1000000F40F00081236813F0010F08D09D4A88
:103B2000D2F8883023F00303A16B0B43C2F888302E
:103B3000236813F0020F08D0964AD2F8883023F099
:103B40000C03E16B0B43C2F88830236813F0040FB9
:103B500008D0904AD2F8883023F03003216C0B4310
:103B6000C2F88830236813F0080F08D0894AD2F8C9
:103B7000883023F0C003616C0B43C2F8883023689F
:103B800013F0100F08D0834AD2F8883023F4407322
:103B9000A16C0B43C2F88830236813F0200F08D0C3
:103BA0007C4AD2F8883023F44063E16C0B43C2F8BE
:103BB0008830236813F4007F08D0764AD2F8883022
:103BC00023F44023E16D0B43C2F88830236813F4DB
:103BD000806F08D06F4AD2F8883023F44013216EEA
:103BE0000B43C2F88830236813F0400F08D0694AAD
:103BF000D2F8883023F44053216D0B43C2F888304B
:103C0000236813F0800F08D0624AD2F8883023F47A
:103C10004043616D0B43C2F88830236813F4807F02
:103C200008D05C4AD2F8883023F44033A16D0B43AE
:103C3000C2F88830236813F4005F0FD0554AD2F8D9
:103C4000883023F04063E16E0B43C2F88830E36EA6
:103C5000B3F1006F65D0B3F1806F67D0236813F4C0
:103C6000002F0FD04B4AD2F8883023F04063216FE9
:103C70000B43C2F88830236FB3F1006F5ED0B3F10D
:103C8000806F60D0236813F4802F0FD0414AD2F8A0
:103C9000883023F04063616F0B43C2F88830636F54
:103CA000B3F1006F57D0B3F1806F59D0236813F48C
:103CB000804F0FD0374AD2F8883023F04053A16F9D
:103CC0000B43C2F88830A36FB3F1805F50D0B3F1DB
:103CD000005F55D0236813F4004F08D02D4AD2F866
:103CE000883023F08043E16F0B43C2F888302368AB
:103CF00013F4803F09D0274AD2F8883023F00043DC
:103D0000D4F880100B43C2F88830384602B0BDE8C2
:103D1000F0813746FBE61F4A936D23F0805393658D
:103D2000F9E6D36843F48013D36097E70121201D9F
:103D3000FFF7AAFC002891D007468FE7D36843F429
:103D40008013D3609EE70121201DFFF79DFC002812
:103D500098D0074696E7D36843F48013D360A5E76D
:103D60000121201DFFF790FC00289FD007469DE70A
:103D70000221201DFFF788FC0028ABD00746A9E7E9
:103D8000022104F12000FFF737FD0028A2D00746EA
:103D9000A0E700BF001002407047704710B5494AC5
:103DA000536923F4FF6323F007035361536923F43A
:103DB00000435361444B1B7ADBB2042B25D0414BAB
:103DC0001B694CF2FA32134024D13E4B1B6913F0AD
:103DD000010F60D03B4B01221A613B4B1B7ADBB2D7
:103DE00093424AD1384B9A69013A9A619B69002BF8
:103DF00037D0354C6069FFF7CFFF636901336361EA
:103E00006069216900F062F845E0536923F480237A
:103E10005361D4E72C4C62681A436260294A1361EB
:103E200000F076F8237ADBB2012B0CD0022B0ED0F7
:103E3000033BDBB2012B0FD90020FFF7AEFF224B73
:103E400000221A72C1E76069FFF7A7FFF7E71E4B70
:103E50001869FFF7A2FFF2E71B4BD868FFF79DFF39
:103E6000EDE7194C4FF0FF3363610023237200F03C
:103E70004FF86069FFF790FF0DE000F049F8124B32
:103E80001B7ADBB2022B12D0033BDBB2012B13D91E
:103E90000D4B00221A720C4B1B7A3BB9094A53692D
:103EA00023F040735361084B00221A7010BD064B7B
:103EB0001869FFF771FFEBE7034BD868FFF76CFF5A
:103EC000E6E700BF002002401400002011F0010FBF
:103ED00016D00E4A536923F4006353610B4B5A69A1
:103EE00022F4FF62C00000F4FF60104358615A6979
:103EF00042F002025A615A6942F480325A617047B4
:103F0000024A536943F400635361E7E7002002402B
:103F1000164B1B7FDBB2012B01D0032B10D1144AAF
:103F2000116821F400711160116841F400611160A1
:103F3000116821F400611160116841F40071116091
:103F4000023BDBB2012B03D9084B00221A777047E2
:103F5000074B1A6842F480521A601A6822F48052A1
:103F60001A601A6842F480621A60EDE714000020BB
:103F700000200240F0B583B000236BE085685E004E
:103F80000324B44025EA0405CC68B4402C43846083
:103F9000456825EA0C054C68C4F300149C402C438A
:103FA000446069E0C56A25EA0C0CC4F3C0049C4077
:103FB00044EA0C04C46265E0DD08083550F8256069
:103FC00003F007044FEA840C0F2404FA0CF426EAE9
:103FD000040E0C6904FA0CF444EA0E0440F825407F
:103FE00067E0062400E0002404FA0EF42C430CF1F0
:103FF000020C5C4D45F82C405B4CA568D44325EA87
:1040000002064F6817F4801F01D042EA0506564D9C
:10401000AE60ED6804EA05064F6817F4001F01D092
:1040200042EA0506504DEE606D6804EA05064F68E9
:1040300017F4003F01D042EA05064B4D6E602D6833
:104040002C404E6816F4803F01D042EA0504464AEF
:10405000146001330A6832FA03F400F081804FF0F3
:10406000010C0CFA03FC1CEA0202F2D04C6804F0CA
:104070000304013C012C81D94C6804F0030EBEF10D
:10408000030F8FD04C6804F00304032C0CD0C468D9
:104090005D004FF0030C0CFA05FC24EA0C0C8C6854
:1040A000AC4044EA0C04C4604C6804F00304022CE5
:1040B00082D004684FEA430E4FF0030C0CFA0EFC5A
:1040C00024EA0C0C4C6804F0030404FA0EF444EAED
:1040D0000C0404604C6814F4403FBAD0234C256EA5
:1040E00045F001052566246E04F001040194019C4D
:1040F0004FEA930C0CF102051A4C54F8255003F0CA
:1041000003044FEA840E0F2404FA0EF425EA040592
:10411000B0F1904F3FF467AF154CA04216D004F5B4
:104120008064A04214D004F58064A04212D004F54B
:104130008064A04210D004F58064A0420ED004F543
:104140008064A0423FF44DAF07244DE701244BE7C4
:10415000022449E7032447E7042445E7052443E70D
:1041600003B0F0BD00000140000401400010024017
:10417000000400480369194201D001207047002063
:1041800070470AB1816170478162704708B5054B7D
:104190005B69034200D108BD024B5861FDF754FE34
:1041A000F9E700BF0004014003689A6912F0020FAA
:1041B00001D000229A6203689A6912F0010F03D1BC
:1041C0009A6942F001029A61704710B4019CC1F3F0
:1041D000090141EA02411943214321F000410268EB
:1041E0005368640D04F4806444F07F7444F45834DC
:1041F00044F47F7444F0030423EA0404214351602F
:104200005DF8044B70472DE9F041044603689E6950
:1042100016F010067CD00D4690461022DA6100267A
:1042200037462368986910F0200F30D17FBBB5F175
:10423000FF3FF6D0FEF752FDA0EB0800A84201D8E0
:10424000002DEED121684B6803F4804394F842209E
:10425000D2B2886910F4004F02D00BB9202A0ED1D7
:1042600023689B6913F0200FDBD1FEF737FDA0EB2D
:1042700008001928F4D946F020060127D1E74B6839
:1042800043F480434B60FEF729FD8046E8E70FB911
:104290002022DA6146F0040601252268936913F4AE
:1042A000807F05D046F001064FF48071D161012571
:1042B00013F4806F06D046F0080622684FF4806140
:1042C000D161012513F4007F24D046F00206236853
:1042D0004FF40072DA6101252046FFF765FF22687E
:1042E000536823F0FF7323F48B3323F4FF7323F01D
:1042F00001035360636C1E436664202384F84130DD
:10430000002384F8423084F840302846BDE8F0812C
:104310000025C2E7002DF8D0DEE770B504460D4653
:10432000164623689B6913F0020F22D132462946B4
:104330002046FFF768FFF0B9B5F1FF3FF1D0FEF777
:10434000CDFC801BA84201D8002DEAD123689B69CF
:1043500013F0020FE5D1636C43F020036364202364
:1043600084F84130002384F8423084F84030012042
:1043700000E0002070BD0120FCE72DE9F04104467B
:104380000F4616461D46DDF8188023689B6937EAFC
:1043900003030CBF01230023B34227D14246294621
:1043A0002046FFF730FF20BBB5F1FF3FEDD0FEF711
:1043B00095FCA0EB0800A84201D8002DE5D12368A8
:1043C0009B6937EA03030CBF01230023B342DCD10E
:1043D000636C43F020036364202384F8413000239E
:1043E00084F8423084F84030012000E00020BDE82D
:1043F000F0810120FBE700002DE9F04182B0044686
:1044000090461D46089E099F184B00930023EAB270
:10441000FFF7DBFE3A4631462046FFF77EFFF8B94C
:10442000012D0ED123685FFA88F29A620097334615
:10443000002240212046FFF7A0FFA8B902B0BDE846
:10444000F08123684FEA18229A623A4631462046A4
:10445000FFF763FF30B923685FFA88F29A62E5E7F5
:104460000120EBE70120E9E70120E7E700200080D9
:1044700070B504460D46164604E023689B6913F0A8
:10448000200F12D023689B6913F0200F1BD13246F6
:1044900029462046FFF7B7FEB8B9FEF71FFC801B80
:1044A000A842EAD8002DEDD1E7E7636C43F0200382
:1044B0006364202384F84130002384F8423084F878
:1044C0004030012000E0002070BD0120FCE7F8B57D
:1044D00004460E461746002518E000236364FEF7E5
:1044E000FDFBC01BB04200D886B97DB923689B692B
:1044F00013F0040F0AD1636C43F02003636420239C
:1045000084F84130002384F84030012523689B69FA
:1045100013F0040F2ED16DBB3A4631462046FFF70B
:1045200072FE00B1012523689A6912F0200FD6D0DF
:10453000002DD4D19A699A6912F0100FCDD01022B3
:10454000DA610423636423682022DA6121684B68FE
:1045500023F0FF7323F48B3323F4FF7323F0010361
:104560004B6084F84120002384F8423084F84030C6
:104570000125B4E72846F8BD00285FD010B50446F1
:1045800090F84130002B48D0242384F84130226831
:10459000136823F0010313606368226823F07063DB
:1045A00013612268936823F400439360E368012B4E
:1045B00038D0A368226843F404439360E368022B75
:1045C00036D02268536823F400635360226853682E
:1045D00043F0007343F4004353602268D36823F42C
:1045E0000043D360236962691343A169226843EAE7
:1045F0000123D360E369216A22680B4313602268B8
:10460000136843F00103136000206064202384F8E2
:104610004130206384F8420010BD80F84030FCF740
:104620002FFFB1E7A368226843F400439360C5E716
:104630002268536843F400635360C7E70120704762
:104640002DE9F04782B00F460A9E90F84110C9B29A
:10465000202940F0B78004469046994690F84030B3
:10466000012B00F0B3804FF0010A80F840A0FEF764
:1046700035FB05460090192352464FF40041204671
:10468000FFF77BFE002840F0A380212384F841300F
:10469000102384F8423000236364C4F82480A4F813
:1046A0002A906363638D9BB2FF2B1ED9FF23238562
:1046B0004FF08073228DEAB1226898F80010916261
:1046C000626A01326262628D92B2013A92B262858E
:1046D000228D013A92B22285013241490091D2B233
:1046E00039462046FFF771FD18E0638D23854FF0B2
:1046F0000073DFE73A490091D2B239462046FFF70E
:1047000064FD0BE0628D92B22285002300934FF08E
:104710000073D2B239462046FFF757FD638D9BB236
:10472000002B33D02A4631462046FFF7F6FD0028FD
:1047300050D1626A236812789A62636A01336362B5
:10474000638D9BB2013B9BB26385238D013B9BB282
:104750002385628D92B2002AE0D0002BDED1009535
:104760003346002280212046FFF707FEA0BB638D61
:104770009BB2FF2BC6D9FF222285002300934FF066
:10478000807339462046FFF720FDC7E72A463146A9
:104790002046FFF76DFE08BB23682022DA612168FE
:1047A0004B6823F0FF7323F48B3323F4FF7323F060
:1047B00001034B6084F84120002384F8423084F8E0
:1047C000403000E0022002B0BDE8F0870220FAE7A6
:1047D0000120F8E70120F6E70120F4E70120F2E7E5
:1047E000002000802DE9F04782B00F460A9E90F825
:1047F0004110C9B2202940F0A38004469046994652
:1048000090F84030012B00F09F804FF0010A80F8B3
:1048100040A0FEF763FA05460090192352464FF474
:1048200000412046FFF7A9FD002840F08F80222399
:1048300084F84130102384F8423000236364C4F8C4
:104840002480A4F82A906363638D9BB2FF2B0BD95D
:104850005246A4F828A0414B00934FF0807339468C
:104860002046FFF7B2FC18E0628D92B222853B4BE6
:1048700000934FF00073D2B239462046FFF7A5FCF3
:104880000BE0628D92B22285002300934FF00073FB
:10489000D2B239462046FFF798FC638D9BB2002BBD
:1048A00032D02A4631462046FFF711FE00284FD16C
:1048B00023685A6A636A1A70636A01336362228DDD
:1048C000013A92B22285638D9BB2013B9BB2638514
:1048D000638D9BB2002BE0D0002ADED100953346D9
:1048E00080212046FFF749FDA0BB638D9BB2FF2BC3
:1048F000C7D9FF222285002300934FF080733946E9
:104900002046FFF762FCC8E72A4631462046FFF7FB
:10491000AFFD08BB23682022DA6121684B6823F0D1
:10492000FF7323F48B3323F4FF7323F001034B60F5
:1049300084F84120002384F8423084F8403000E0BD
:10494000022002B0BDE8F0870220FAE70120F8E774
:104950000120F6E70120F4E70120F2E700240080BF
:104960002DE9F04F83B00E46BDF834A00E9D90F8AF
:104970004110C9B2202940F0BC80044690469946B7
:104980000C9BCBB1BAF1000F16D090F84030012B40
:1049900000F0B3804FF0010B80F840B0FEF79EF9B5
:1049A0000746009019235A464FF400412046FFF76E
:1049B000E4FC30B101209DE04FF4007363640120FA
:1049C00098E0222384F84130402384F842300023C9
:1049D00063640C9A6262A4F82AA06363019700954D
:1049E0004B46424631462046FFF706FD70B9638DBF
:1049F0009BB2FF2B0FD901222285444B00934FF02D
:104A0000807331462046FFF7E0FB21E0002384F865
:104A1000403058466EE0628D92B222853B4B009347
:104A20004FF00073D2B231462046FFF7CEFB0FE0C5
:104A3000628D92B22285002300934FF00073D2B2B0
:104A400031462046FFF7C1FB638D9BB2002B34D06B
:104A500000972B46002204212046FFF78EFC0028F9
:104A60004DD123685A6A636A1A70636A01336362BC
:104A7000228D013A92B22285638D9BB2013B9BB29B
:104A80006385638D9BB2002BDED0002ADCD10097BA
:104A90002B4680212046FFF770FC90BB638D9BB2B4
:104AA000FF2BC5D901222285002300934FF080738C
:104AB00031462046FFF789FBC6E73A46294620469D
:104AC000FFF7D6FCF8B923682022DA6121684B6829
:104AD00023F0FF7323F48B3323F4FF7323F00103DC
:104AE0004B6084F84120002384F8423084F8403041
:104AF00000E0022003B0BDE8F08F0220FAE70120B9
:104B0000F8E70120F6E70120F4E700BF0024008069
:104B100090F841007047406C704790F84130DBB22C
:104B2000202B24D190F84030012B22D0012380F893
:104B30004030242380F841300268136823F00103D9
:104B400013600268136823F48053136002681368CB
:104B5000194311600268136843F0010313602023B6
:104B600080F84130002380F840301846704702201A
:104B700070470220704730B4446C04F01C0C0124D0
:104B800004FA0CF4056C6C60046863608368102B95
:104B900005D0036899600368DA6030BC7047036829
:104BA0009A600368D960F8E7002873D010B4034610
:104BB0000068394A90424AD8384A02443849A1FB31
:104BC0000212120992005A64364A1A64022283F8C9
:104BD0002520016821F4FF4121F070019A68DC680A
:104BE00022431C6922435C6922439C692243DC699D
:104BF00022431C6A22430A4302609A68B2F5804F3E
:104C00001BD0196C274A91422CD0264AD2F8A814FE
:104C1000586C00F01C0C0F2000FA0CF021EA000187
:104C2000C2F8A814D2F8A81458685C6C04F01C0CE4
:104C300000FA0CF00143C2F8A8140020D863012246
:104C400083F8252083F824005DF8044B7047164A4A
:104C500002441349A1FB0212120992005A64134A3A
:104C60001A64B3E7D2F8A810586C00F01C0C0F209F
:104C700000FA0CF021EA0001C2F8A810D2F8A8103E
:104C800058685C6C04F01C0C00FA0CF00143C2F88C
:104C9000A810D2E70120704707040240F8FFFDBFCB
:104CA000CDCCCCCC00000240F8FBFDBF000402409C
:104CB00038B5044690F82400012832D0012084F849
:104CC000240094F82500C0B2012804D0002384F801
:104CD0002430022038BD022084F825000020E06343
:104CE0002568286820F0010028602046FFF743FF70
:104CF000236B5BB12268136843F00E0313602268D4
:104D0000136843F0010313600020E3E7226813688F
:104D100023F0040313602268136843F00A0313604E
:104D2000EDE70220D6E790F82530DBB2022B06D063
:104D30000423C363002380F82430012070470268F5
:104D4000136823F00E0313600268136823F0010355
:104D50001360436C03F01C03016C012202FA03F39D
:104D60004B6080F82520002380F8243018467047D7
:104D700008B590F82530DBB2022B03D00423C363BF
:104D8000012008BD0268136823F00E031360026857
:104D9000136823F001031360436C03F01C03016CE0
:104DA000012202FA03F34B6080F82520002380F8EB
:104DB0002430836B13B198470020E2E70020E0E73E
:104DC00038B5036C196804682568436C03F01C034C
:104DD00004229A400A4215D015F0040F12D023681D
:104DE00013F0200F03D1236823F004032360436CE6
:104DF00003F01C02016C042393404B60036B03B16E
:104E0000984738BD02229A400A421CD015F0020F82
:104E100019D0236813F0200F06D1236823F00A036A
:104E20002360012380F82530436C03F01C02016CE1
:104E3000022393404B60002380F82430C36A002B88
:104E4000DFD09847DDE7082202FA03F30B42D8D0FF
:104E500015F0080FD5D0236823F00E032360436CB0
:104E600003F01C03016C012202FA03F34B60C263DE
:104E700080F82520002380F82430436B002BC0D01D
:104E80009847BEE7C06B7047024B186800F4C060DB
:104E9000704700BF00700040B0F5007F0FD01F4B7F
:104EA0001B6803F4C063B3F5806F34D01B4A1368EA
:104EB00023F4C06343F48063136000207047174BF2
:104EC0001B6803F4C063B3F5007F20D0134A136856
:104ED00023F4C06343F400731360114B1B68322248
:104EE00002FB03F30F4AA2FB03239B0C013300E0F8
:104EF000013B0A4A526912F4806F01D0002BF7D1AE
:104F0000064B5B6913F4806F03D1002070470020CB
:104F10007047032070470020704700BF00700040BA
:104F20003400002083DE1B43074AD36823F4E06388
:104F30001B041B0C000200F4E060034343F0BF635A
:104F400043F40033D360704700ED00E000B5194B27
:104F5000DB68C3F30223C3F1070CBCF1040F28BFC5
:104F60004FF0040C03F1040EBEF1060F18D9033BF9
:104F70004FF0FF3E0EFA0CFC21EA0C0199400EFAAC
:104F800003F322EA0303194300280BDB0901C9B22A
:104F900000F1604000F5614080F800135DF804FB0B
:104FA0000023E5E700F00F000901C9B2024B1954D4
:104FB000F4E700BF00ED00E014ED00E0002807DB9F
:104FC00000F01F02400901239340024A42F82030BA
:104FD000704700BF00E100E0026852E8003F23F0A4
:104FE000C00342E800310029F6D12023C36770478F
:104FF000026852E8003F23F4907342E80031002930
:10500000F6D1026802F1080353E8003F23F00103E0
:10501000083242E800310029F3D1036E012B06D09B
:105020002023C0F88030002303668366704702683F
:1050300052E8003F23F0100342E800310029F6D186
:10504000EEE738B50446C26FD0F8805003689B681D
:1050500013F0800F01D0212A08D023689B6813F039
:10506000400F42D0222D20D000203FE0226802F1E4
:10507000080353E8003F23F08003083242E8003180
:105080000029F3D1206F10B1FFF74DFE18B920466B
:10509000FFF7A2FFE1E7206FFFF7F4FE2028F6D12B
:1050A0001023C4F88430032020E0226802F10803B2
:1050B00053E8003F23F04003083242E80031002962
:1050C000F3D1606F10B1FFF72EFE20B92046FFF735
:1050D0008FFF00200AE0606FFFF7D4FE2028F5D193
:1050E0001023C4F88430032000E0002038BD70474E
:1050F00008B5026852E8003F23F0400342E800315F
:105100000029F6D12023C3670023C366FFF7EFFF12
:1051100008BD70477047704738B5846AE26FD4F8AD
:10512000805023689B6813F0800F01D0212A10D093
:1051300023689B6813F0400F01D0222D10D0D4F8C3
:10514000843043F01003C4F884302046FFF7E3FFB7
:1051500038BD0023A4F852302046FFF73DFFE7E7B3
:105160000023A4F85A302046FFF742FFE7E708B5CE
:10517000806A0023A0F85A30A0F85230FFF7CBFF26
:1051800008BD704770B504460168CB6908688D6832
:1051900040F60F021A4005D113F0200F02D010F094
:1051A000200F20D12AB115F0010222D1AD4E30429C
:1051B0001FD1226E012A00F0AB8013F4801F03D0B0
:1051C00015F4800F40F0528113F0800F03D010F0DF
:1051D000800F40F0528113F0400F03D010F0400FC9
:1051E00040F0528170BDA36E002BFBD02046984743
:1051F000F8E713F0010F09D010F4807F06D00125E5
:105200000D62D4F884102943C4F8841013F0020FFF
:1052100009D042B1216802250D62D4F8841041F012
:105220000401C4F8841013F0040F09D042B12168BE
:1052300004250D62D4F8841041F00201C4F88410F2
:1052400013F0080F0BD010F0200F00D13AB12268F4
:1052500008211162D4F884200A43C4F8842013F48E
:10526000006F0CD010F0806F09D022684FF40061FD
:105270001162D4F8842042F02002C4F88420D4F8CB
:105280008420002AAED013F0200F06D010F0200F9B
:1052900003D0A36E0BB120469847D4F8842023682E
:1052A0009B6813F0400F02D112F0280F29D020463E
:1052B000FFF79EFE23689B6813F0400F1DD0226805
:1052C00002F1080353E8003F23F04003083242E8AC
:1052D00000310029F3D1636F5BB1634A9A63606F59
:1052E000FFF746FD00283FF47DAF606F836B984762
:1052F00078E72046FFF70FFF74E72046FFF70BFF24
:1053000070E72046FFF707FF0023C4F8843069E701
:1053100013F0100F3FF451AF10F0100F3FF44DAFEA
:1053200010230B6223689B6813F0400F5FD0616FFE
:105330000A6853689BB2002B49D0B4F858009842D1
:1053400045D9A4F85A300B681B6813F0200F31D1EF
:10535000226852E8003F23F4807342E800310029BC
:10536000F6D1226802F1080353E8003F23F001035D
:10537000083242E800310029F3D1226802F1080323
:1053800053E8003F23F04003083242E8003100298F
:10539000F3D12023C4F8803000232366226852E82A
:1053A000003F23F0100342E800310029F6D1606F7E
:1053B000FFF7B9FC02236366B4F85810B4F85A300A
:1053C0009BB2C91A89B22046FFF7DBFE0AE7B4F8A0
:1053D000581099427FF406AF136813F0200F3FF482
:1053E00001AF022363662046FFF7CBFEFAE6B4F86E
:1053F0005810B4F85A309BB2C91A89B2B4F85A306E
:105400009BB2002B3FF4EEAE00293FF4EBAE2268D6
:1054100052E8003F23F4907342E800300028F6D1B0
:10542000226802F1080353E8003F23F00103083229
:1054300042E800300028F3D12023C4F88030002354
:105440002366A366226852E8003F23F0100342E877
:1054500000300028F6D1022363662046FFF791FE54
:10546000C0E600BF200100046F5100084FF4801314
:105470000B62204600F0BEFBB4E6E36E002B3FF467
:10548000B1AE20469847ADE62046FFF731FEA9E6CB
:1054900008B5806A01234366036E012B02D0FFF733
:1054A00039FE08BDB0F858104908FFF76AFEF8E762
:1054B00008B50346806A1B681B6813F0200F29D1CA
:1054C0000023A0F85A30026852E8003F23F48073AA
:1054D00042E800310029F6D1026802F1080353E8DE
:1054E000003F23F00103083242E800310029F3D1E4
:1054F000026802F1080353E8003F23F0400308323A
:1055000042E800310029F3D12023C0F88030036E37
:10551000012B07D000234366036E012B0CD0FFF74D
:10552000F8FD08BD026852E8003F23F0100342E88E
:1055300000310029F6D1EDE7B0F85810FFF721FE51
:10554000EFE7000010B50446016883680269134361
:1055500042691343C269134308688E4A02401343E9
:105560000B602268536823F44053E1680B43536097
:10557000A1692268884B9A4201D0236A1943936833
:1055800023F430630B4393602368844A934210D022
:10559000834A934221D0834A934237D0824A93422E
:1055A0005CD0824A93426BD07B4A93427DD01022DA
:1055B0003AE002F55842D2F8882002F00302032AAA
:1055C00009D8DFE802F00204870601222CE0042259
:1055D0002AE0082228E0102226E002F5E632D2F87E
:1055E000882002F00C020C2A0ED8DFE802F0070D2A
:1055F0000D0D090D0D0D750D0D0D0B00002213E0A5
:10560000042211E008220FE010220DE002F5E4323E
:10561000D2F8882002F03002202A5FD01AD8002A5F
:105620005ED0102A5ED104225B498B4276D0E069BD
:10563000B0F5004F00F0A380082A00F20E81DFE8E9
:1056400012F0DD00F300DB000C01F6000C010C0190
:105650000C01F900302A47D10822E5E702F5E232D1
:10566000D2F8882002F0C002802A3FD004D8FAB3D2
:10567000402A3FD10422D7E7C02A3DD10822D3E7F0
:1056800002F5E032D2F8882002F44072B2F5007FD1
:1056900034D005D8A2B3B2F5807F33D10422C3E75A
:1056A000B2F5407F30D10822BEE702F5C832D2F809
:1056B000882002F44062B2F5006F27D005D83AB3D3
:1056C000B2F5806F26D10422AEE7B2F5406F23D148
:1056D0000822A9E70222A7E70222A5E70222A3E700
:1056E0000022A1E710229FE710229DE702229BE7FC
:1056F000002299E7102297E7102295E7022293E70C
:10570000002291E710228FE710228DE702228BE71B
:10571000002289E7102287E7102285E7082A00F295
:105720008C80DFE802F0088A2A8A278A8A8A0500A4
:105730004FF4004003E0FDF765FF00287FD062686A
:1057400002EB420383427CD8B0EB023F7BD8010ED0
:1057500000025308C0184FF0000341F10001FBF7AD
:1057600093FAA0F54072124B9A426ED82368D86023
:10577000002055E0FDF714FBDFE70E48DFE7082ABD
:1057800065D8DFE802F019330564366464641D00EF
:10579000084815E0F369FFEF008000400038014041
:1057A0000044004000480040004C004000500040D1
:1057B000FFFC0F000024F400FDF724FF002848D070
:1057C0006268530803EB4000B0FBF2F0A0F1100256
:1057D0004FF6EF739A423ED883B223F00F03C0F323
:1057E000420018432368D860002019E0FDF71CFF31
:1057F000E4E7FDF7D5FAE1E71B4802E0FDF702FF19
:1058000068B3636800EB5300B0FBF3F0A0F1100243
:105810004FF6EF739A4224D8236880B2D8600020F4
:105820000023A366E36610BDFDF7FEFEE8E7FDF783
:10583000B7FAE5E74FF40040E3E70120F0E7002086
:10584000EEE70120ECE70120EAE70120E8E701208C
:10585000E6E70020E4E70120E2E70120E0E700209E
:10586000DEE70120DCE700BF0024F400436A13F008
:10587000080F06D00268536823F40043416B0B43C2
:105880005360436A13F0010F06D00268536823F493
:105890000033816A0B435360436A13F0020F06D052
:1058A0000268536823F48033C16A0B435360436A30
:1058B00013F0040F06D00268536823F48023016BB1
:1058C0000B435360436A13F0100F06D002689368CD
:1058D00023F48053816B0B439360436A13F0200FD2
:1058E00006D00268936823F40053C16B0B439360A6
:1058F000436A13F0400F0AD00268536823F4801300
:10590000016C0B435360036CB3F5801F0BD0436AEB
:1059100013F0800F06D00268536823F40023816CD3
:105920000B43536070470268536823F4C003416C13
:105930000B435360EBE72DE9F84305460E46174647
:105940009946DDF820802C68E46936EA04030CBF30
:105950004FF0010C4FF0000CBC4536D1B8F1FF3FC1
:10596000F1D0FDF7BBF9A0EB0900404530D8B8F104
:10597000000F2FD02B681A6812F0040FE3D0802E8E
:10598000E1D0402EDFD0DA6912F0080F11D1DA69C8
:1059900012F4006FD7D04FF400621A622846FFF766
:1059A00027FB2023C5F88430002385F878300320B6
:1059B0000CE008241C622846FFF71AFBC5F8844057
:1059C000002385F87830012000E00020BDE8F8834E
:1059D0000320FBE70320F9E730B583B0044600233A
:1059E000C0F88430FDF77AF905462268126812F093
:1059F000080F0FD123681B6813F0040F26D1202352
:105A0000E367C4F8803000202066606684F8780080
:105A100003B030BD6FF07E430093034600224FF485
:105A200000112046FFF787FF0028E3D0226852E8E4
:105A3000003F23F0800342E800310029F6D1202303
:105A4000E367002384F878300320E1E76FF07E43BA
:105A500000932B4600224FF480012046FFF76BFF96
:105A60000028CCD0226852E8003F23F4907342E82B
:105A700000310029F6D1226802F1080353E8003F03
:105A800023F00103083242E800310029F3D120233A
:105A9000C4F88030002384F878300320B8E768B376
:105AA00010B50446C36F03B32423E3672268136869
:105AB00023F001031360636AE3B92046FFF742FD58
:105AC000012811D02268536823F490435360226860
:105AD000936823F02A0393602268136843F001035C
