:020000040800F2
:1000000000800120BD920008A51C0008A71C000864
:10001000A91C0008AB1C0008AD1C00080000000073
:10002000000000000000000000000000518F0008E8
:10003000AF1C000800000000F18F0008E78A0008EC
:100040000D9300080D9300080D930008B11C0008E3
:10005000C11C00080D930008C91C00080D9300087E
:100060000D9300080D930008D31C00080D930008A1
:100070000D9300080D9300080D930008DD1C000887
:10008000ED1C00080D9300080D9300080D93000867
:100090000D9300080D9300080D930008FD1C000847
:1000A0000D9300080D9300080D9300080D930008B0
:1000B0000D9300080D9300080D9300080D930008A0
:1000C0000D9300080D9300080D9300080D93000890
:1000D0000D9300080D1D0008211D00080D93000858
:1000E000351D00080D9300080D9300080D930008BE
:1000F0000D9300080D9300080D9300080D93000860
:100100000D9300080D9300080D9300080D9300084F
:100110000D9300080D930008411D0008511D0008B3
:100120000D9300080D9300080D9300080D9300082F
:100130000D9300080D9300080D9300080D9300081F
:100140000D9300080D9300080D9300080D9300080F
:100150000D930008611D0008711D00080D93000833
:100160000D9300080D9300080D9300080D930008EF
:100170000D9300080D9300080D9300080000000087
:080180000D9300080D93000827
:1001900010B5054C237833B9044B13B10448AFF3C1
:1001A00000800123237010BD3802002000000000F1
:1001B000D8DC000808B5034B1BB103490348AFF373
:1001C000008008BD000000003C020020D8DC0008D0
:1001D000034613F8012B002AFBD1181A0138704787
:1001E00001F0FF01102A2BDB10F0070F08D010F8E8
:1001F000013B013A8B422DD010F0070F42B3F6D1EC
:10020000F0B441EA012141EA014122F007047FF004
:1002100000070023F0E80256083C85EA010586EA5B
:10022000010685FA47F5A3FA87F586FA47F6A5FA97
:1002300087F68EB9EED1F0BC01F0FF0102F00702A3
:1002400032B110F8013B013A83EA010313B1F8D14E
:100250000020704701387047002D06BF354603382F
:10026000073815F0010F07D1013015F4807F02BF68
:10027000013015F4C03F0130F0BC0138704700BFB9
:1002800081F0004102E000BF83F0004330B54FEA47
:1002900041044FEA430594EA050F08BF90EA020FB4
:1002A0001FBF54EA000C55EA020C7FEA645C7FEA47
:1002B000655C00F0E2804FEA5454D4EB5555B8BF6A
:1002C0006D420CDD2C4480EA020281EA030382EADB
:1002D000000083EA010180EA020281EA0303362D6D
:1002E00088BF30BD11F0004F4FEA01314FF4801C40
:1002F0004CEA113102D0404261EB410113F0004F52
:100300004FEA03334CEA133302D0524263EB430308
:1003100094EA050F00F0A780A4F10104D5F1200EA6
:100320000DDB02FA0EFC22FA05F2801841F1000101
:1003300003FA0EF2801843FA05F359410EE0A5F1D5
:1003400020050EF1200E012A03FA0EFC28BF4CF006
:10035000020C43FA05F3C01851EBE37101F00045BC
:1003600007D54FF0000EDCF1000C7EEB00006EEBC9
:100370000101B1F5801F1BD3B1F5001F0CD3490853
:100380005FEA30004FEA3C0C04F101044FEA4452AA
:1003900012F5800F80F09A80BCF1004F08BF5FEA31
:1003A000500C50F1000041EB045141EA050130BD11
:1003B0005FEA4C0C404141EB0101013C28BFB1F523
:1003C000801FE9D291F0000F04BF01460020B1FA6E
:1003D00081F308BF2033A3F10B03B3F120020CDA41
:1003E0000C3208DD02F1140CC2F10C0201FA0CF01F
:1003F00021FA02F10CE002F11402D8BFC2F1200C84
:1004000001FA02F120FA0CFCDCBF41EA0C01904039
:10041000E41AA2BF01EB0451294330BD6FEA040482
:100420001F3C1CDA0C340EDC04F11404C4F120026D
:1004300020FA04F001FA02F340EA030021FA04F37F
:1004400045EA030130BDC4F10C04C4F1200220FAD6
:1004500002F001FA04F340EA0300294630BD21FA14
:1004600004F0294630BD94F0000F83F4801306BFDA
:1004700081F480110134013D4EE77FEA645C18BFCE
:100480007FEA655C29D094EA050F08BF90EA020F65
:1004900005D054EA000C04BF1946104630BD91EA5D
:1004A000030F1EBF0021002030BD5FEA545C05D160
:1004B0004000494128BF41F0004130BD14F580049F
:1004C0003CBF01F5801130BD01F0004545F0FE4113
:1004D00041F470014FF0000030BD7FEA645C1ABF48
:1004E000194610467FEA655C1CBF0B46024650EA7F
:1004F000013406BF52EA033591EA030F41F40021AB
:1005000030BD00BF90F0000F04BF0021704730B530
:100510004FF4806404F132044FF000054FF0000105
:1005200050E700BF90F0000F04BF0021704730B5C6
:100530004FF4806404F1320410F0004548BF40429B
:100540004FF000013EE700BF42004FEAE2014FEAF0
:1005500031014FEA02701FBF12F07F4393F07F4FCB
:1005600081F06051704732F07F4208BF704793F0CE
:100570007F4F04BF41F40021704730B54FF46074E1
:1005800001F0004521F000411CE700BF50EA0102E4
:1005900008BF704730B54FF000050AE050EA01028D
:1005A00008BF704730B511F0004502D5404261EBFD
:1005B00041014FF4806404F132045FEA915C3FF43E
:1005C000D8AE4FF003025FEADC0C18BF03325FEADB
:1005D000DC0C18BF033202EBDC02C2F1200300FA8C
:1005E00003FC20FA02F001FA03FE40EA0E0021FAB1
:1005F00002F11444BDE600BF70B54FF0FF0C4CF49F
:10060000E06C1CEA11541DBF1CEA135594EA0C0F50
:1006100095EA0C0F00F0DEF82C4481EA030621EA8B
:100620004C5123EA4C5350EA013518BF52EA0335C6
:1006300041F4801143F4801338D0A0FB02CE4FF078
:100640000005E1FB02E506F00042E0FB03E54FF0A8
:100650000006E1FB03569CF0000F18BF4EF0010EA0
:10066000A4F1FF04B6F5007F64F5407404D25FEA9C
:100670004E0E6D4146EB060642EAC62141EA55514F
:100680004FEAC52040EA5E504FEACE2EB4F1FD0C91
:1006900088BFBCF5E06F1ED8BEF1004F08BF5FEA0F
:1006A000500E50F1000041EB045170BD06F00046C1
:1006B00046EA010140EA020081EA0301B4EB5C046E
:1006C000C2BFD4EB0C0541EA045170BD41F4801166
:1006D0004FF0000E013C00F3AB8014F1360FDEBF8B
:1006E000002001F0004170BDC4F10004203C35DA67
:1006F0000C341BDC04F11404C4F1200500FA05F3EA
:1007000020FA04F001FA05F240EA020001F000428A
:1007100021F0004110EBD37021FA04F642EB060100
:100720005EEA430E08BF20EAD37070BDC4F10C042A
:10073000C4F1200500FA04F320FA05F001FA04F2EE
:1007400040EA020001F0004110EBD37041F10001DA
:100750005EEA430E08BF20EAD37070BDC4F12005E5
:1007600000FA05F24EEA020E20FA04F301FA05F24D
:1007700043EA020321FA04F001F0004121FA04F2F5
:1007800020EA020000EBD3705EEA430E08BF20EAC5
:10079000D37070BD94F0000F0FD101F000464000FF
:1007A00041EB010111F4801F08BF013CF7D041EA81
:1007B000060195F0000F18BF704703F00046520085
:1007C00043EB030313F4801F08BF013DF7D043EA56
:1007D0000603704794EA0C0F0CEA135518BF95EA0C
:1007E0000C0F0CD050EA410618BF52EA4306D1D193
:1007F00081EA030101F000414FF0000070BD50EAB2
:10080000410606BF1046194652EA430619D094EA3B
:100810000C0F02D150EA013613D195EA0C0F05D125
:1008200052EA03361CBF104619460AD181EA030179
:1008300001F0004141F0FE4141F470014FF0000031
:1008400070BD41F0FE4141F4780170BD70B54FF0CC
:10085000FF0C4CF4E06C1CEA11541DBF1CEA13554C
:1008600094EA0C0F95EA0C0F00F0A7F8A4EB05042E
:1008700081EA030E52EA03354FEA013100F0888025
:100880004FEA03334FF0805545EA131343EA1263EE
:100890004FEA022245EA111545EA10654FEA0026A3
:1008A0000EF000419D4208BF964244F1FD0404F55C
:1008B000407402D25B084FEA3202B61A65EB0305B8
:1008C0005B084FEA32024FF480104FF4002CB6EB75
:1008D000020E75EB030E22BFB61A754640EA0C00F5
:1008E0005B084FEA3202B6EB020E75EB030E22BF35
:1008F000B61A754640EA5C005B084FEA3202B6EB76
:10090000020E75EB030E22BFB61A754640EA9C0034
:100910005B084FEA3202B6EB020E75EB030E22BF04
:10092000B61A754640EADC0055EA060E18D04FEAC2
:10093000051545EA16754FEA06164FEAC30343EA62
:1009400052734FEAC2025FEA1C1CC0D111F4801F2F
:100950000BD141EA00014FF000004FF0004CB6E728
:1009600011F4801F04BF01430020B4F1FD0C88BFC7
:10097000BCF5E06F3FF6AFAEB5EB030C04BFB6EBD2
:10098000020C5FEA500C50F1000041EB045170BDC5
:100990000EF0004E4EEA113114EB5C04C2BFD4EBF2
:1009A0000C0541EA045170BD41F480114FF0000E76
:1009B000013C90E645EA060E8DE60CEA135594EAF2
:1009C0000C0F08BF95EA0C0F3FF43BAF94EA0C0FF5
:1009D0000AD150EA01347FF434AF95EA0C0F7FF46A
:1009E00025AF104619462CE795EA0C0F06D152EABE
:1009F00003353FF4FDAE1046194622E750EA4106A2
:100A000018BF52EA43067FF4C5AE50EA41047FF4B2
:100A10000DAF52EA43057FF4EBAE12E74FF0FF3C17
:100A200006E000BF4FF0010C02E000BF4FF0010CE8
:100A30004DF804CD4FEA410C7FEA6C5C4FEA430C61
:100A400018BF7FEA6C5C1BD001B050EA410C0CBFB0
:100A500052EA430C91EA030F02BF90EA020F002012
:100A6000704710F1000F91EA030F58BF994208BF79
:100A700090422CBFD8176FEAE37040F00100704736
:100A80004FEA410C7FEA6C5C02D150EA013C07D18D
:100A90004FEA430C7FEA6C5CD6D152EA033CD3D0D8
:100AA0005DF8040B704700BF8446104662468C46D2
:100AB0001946634600E000BF01B5FFF7B7FF002805
:100AC00048BF10F1000F01BD4DF808EDFFF7F4FF2E
:100AD0000CBF012000205DF808FB00BF4DF808EDB9
:100AE000FFF7EAFF34BF012000205DF808FB00BFDC
:100AF0004DF808EDFFF7E0FF94BF012000205DF8FE
:100B000008FB00BF4DF808EDFFF7CEFF94BF0120B2
:100B100000205DF808FB00BF4DF808EDFFF7C4FFAB
:100B200034BF012000205DF808FB00BF4FEA410CF4
:100B30007FEA6C5C02D150EA013C0AD14FEA430CD7
:100B40007FEA6C5C02D152EA033C02D14FF0000014
:100B500070474FF0010070474FEA410212F5001252
:100B600015D211D56FF47873B3EB625212D94FEAF4
:100B7000C12343F0004343EA505311F0004F23FADE
:100B800002F018BF404270474FF00000704750EA33
:100B9000013005D111F0004008BF6FF000407047F0
:100BA0004FF00000704700BF4A0011D212F500124A
:100BB00011D20DD56FF47873B3EB62520ED44FEAB5
:100BC000C12343F0004343EA505323FA02F0704735
:100BD0004FF00000704750EA013002D14FF0FF3073
:100BE00070474FF0000070474FEA4102B2F1E04316
:100BF00024BFB3F5001CDCF1FE5C0DD901F0004C04
:100C00004FEAC0024CEA5070B2F1004F40EB830053
:100C100008BF20F00100704711F0804F21D113F17F
:100C20003872BCBF01F00040704741F480114FEAB8
:100C30005252C2F11802C2F1200C10FA0CF320FA41
:100C400002F018BF40F001004FEAC1234FEAD3235E
:100C500003FA0CFC40EA0C0023FA02F34FEA4303C8
:100C6000CCE77FEA625307D150EA01331EBF4FF051
:100C7000FE4040F44000704701F0004040F0FE406C
:100C800040F40000704700BF53B94AB9002908BFBB
:100C900000281CBF4FF0FF314FF0FF3000F0AAB921
:100CA000ADF1080C6DE904CE00F03CF8DDF804E08D
:100CB000DDE9022304B0704738B500220023044662
:100CC0000D46FFF70BFF28B920462946BDE83840FE
:100CD00000F00AB8204605F1004100F005F8404256
:100CE00061EB410138BD00BFD0B50C4B0022064678
:100CF0000F46FFF781FCFFF757FF0446FFF702FCA2
:100D0000074B0022FFF778FC02460B463046394677
:100D1000FFF7BAFAFFF748FF2146D0BD0000F03DCB
:100D20000000F0412DE9F047089D04468E46002B57
:100D30004DD18A42944669D9B2FA82F252B101FA8F
:100D400002F3C2F1200120FA01F10CFA02FC41EA9F
:100D5000030E94404FEA1C48210CBEFBF8F61FFA24
:100D60008CF708FB16E341EA034306FB07F19942BF
:100D70000AD91CEB030306F1FF3080F01F81994272
:100D800040F21C81023E63445B1AA4B2B3FBF8F04C
:100D900008FB103344EA034400FB07F7A7420AD9D3
:100DA0001CEB040400F1FF3380F00A81A74240F2FB
:100DB00007816444023840EA0640E41B00261DB166
:100DC000D4400023C5E900433146BDE8F0878B429B
:100DD00009D9002D00F0EF800026C5E9000130465A
:100DE0003146BDE8F087B3FA83F6002E4AD18B4234
:100DF00002D3824200F2F980841A61EB03030120DE
:100E00009E46002DE0D0C5E9004EDDE702B9FFDEC9
:100E1000B2FA82F2002A40F09280A1EB0C014FEA74
:100E20001C471FFA8CFE0126200CB1FBF7F307FBD1
:100E3000131140EA01410EFB03F0884208D91CEB74
:100E4000010103F1FF3802D2884200F2CB80434611
:100E5000091AA4B2B1FBF7F007FB101144EA0144F0
:100E60000EFB00FEA64508D91CEB040400F1FF317F
:100E700002D2A64500F2BB800846A4EB0E0440EA6D
:100E800003409CE7C6F12007B34022FA07FC4CEA76
:100E9000030C20FA07F401FA06F31C43F9404FEA69
:100EA0001C4900FA06F3B1FBF9F8200C1FFA8CFE7E
:100EB00009FB181140EA014108FB0EF0884202FAD2
:100EC00006F20BD91CEB010108F1FF3A80F0888093
:100ED000884240F28580A8F102086144091AA4B250
:100EE000B1FBF9F009FB101144EA014100FB0EFED1
:100EF0008E4508D91CEB010100F1FF346CD28E4500
:100F00006AD90238614440EA0840A0FB0294A1EB90
:100F10000E01A142C846A64656D353D05DB1B3EBED
:100F2000080261EB0E0101FA07F722FA06F3F1401D
:100F30001F43C5E9007100263146BDE8F087C2F1C4
:100F40002003D8400CFA02FC21FA03F3914001433C
:100F50004FEA1C471FFA8CFEB3FBF7F007FB103675
:100F60000B0C43EA064300FB0EF69E4204FA02F421
:100F700008D91CEB030300F1FF382FD29E422DD974
:100F8000023863449B1B89B2B3FBF7F607FB1633A9
:100F900041EA034106FB0EF38B4208D91CEB010129
:100FA00006F1FF3816D28B4214D9023E6144C91AA9
:100FB00046EA004638E72E46284605E70646E3E6B9
:100FC0001846F8E64B45A9D2B9EB020864EB0C0EC3
:100FD0000138A3E74646EAE7204694E74046D1E7D2
:100FE000D0467BE7023B614432E7304609E7644480
:100FF000023842E7704700BF08B50268034B9A42C7
:1010000000D008BD02F0D2FCFBE700BF0014004096
:1010100072B6FEE700B599B04422002107A808F097
:10102000BFF90023029303930493059306934FF4AF
:10103000007004F0AFFD00283BD1214B9A6D42F0C7
:1010400080529A659B6D03F080530093009B1D4A6C
:10105000136823F4C06343F400731360136803F44C
:10106000C0630193019B0A2207924FF480730A9395
:1010700001210C9110230B930223119312931391CE
:101080001492072215921693179307A802F056FDA3
:1010900088B90F230293032303930023049305933A
:1010A0000693042102A803F057F830B919B05DF88F
:1010B00004FBFFF7ADFFFFF7ABFFFFF7A9FF00BF92
:1010C000001002400070004008B502F05FFCFFF71E
:1010D000A1FF00F02FF800F0FFF900F0CBFC4FF477
:1010E000165000F083FA4FF4E13000F099FA00F066
:1010F00025FA142002F06CFC00F088FC00F0DAFB0A
:1011000001F04BFC01F068FE012001F0C2FD01F08E
:101110000DFD02F0D7F94FF4FA7002F059FC01F01E
:10112000ABFA02F0FDFB07F0EBFC00F09FF907F0D3
:10113000F9FCFEE72DE9F04F8DB0002407940894E8
:1011400009940A940B94B94BDA6C42F01002DA64F9
:10115000DA6C02F010020092009ADA6C42F004029B
:10116000DA64DA6C02F004020192019ADA6C42F05D
:101170008002DA64DA6C02F080020292029ADA6C7F
:1011800042F00102DA64DA6C02F001020392039A7F
:10119000DA6C42F00202DA64DA6C02F002020492C3
:1011A000049ADA6C42F00802DA64DA6C02F008029F
:1011B0000592059ADA6D42F00102DA65DB6D03F003
:1011C00001030693069BDFF86C820122082140464A
:1011D00003F04BFE012240F203414FF0904003F038
:1011E00044FEDFF8549201220221484603F03DFEFE
:1011F0008F4F01228021384603F037FEDFF83CA2F2
:1012000001221146504603F030FE402307934FF46D
:10121000041BCDF820B0099403260A9607A950466E
:1012200003F01CFD4FF400530793CDF820B0099450
:101230000A9607A9404603F011FD082307930125EC
:10124000089509940A9607A9404603F007FD0796FA
:10125000089509940A9607A94FF0904003F0FEFC08
:10126000302307934FF444130893099407A9404689
:1012700003F0F4FC02230793089509940A9507A943
:10128000484603F0EBFC4FF48063079308950994FC
:101290000A9507A94FF0904003F0E0FC80230793E4
:1012A000089509940A9507A9384603F0D7FC0795D5
:1012B000089509940A9507A9504603F0CFFC4FF012
:1012C000B008CDF81C800895099402230A9307A959
:1012D0004FF0904003F0C2FC402307930894099418
:1012E00007A94FF0904003F0B9FC2A4641464FF061
:1012F000904003F0BAFD22460521384603F0B5FDC3
:101300004FF00508CDF81C8008940223099307A923
:10131000384603F0A3FC2A464FF48041484603F0C8
:10132000A4FD22464FF68271504603F09EFD2246F0
:1013300047F60841484603F098FD22464FF47F41A6
:10134000384603F092FD2A464FF480714FF09040EA
:1013500003F08BFD4FF682730793089509940A9664
:1013600007A9504603F07AFC47F60C43079308950B
:1013700009940A9607A9484603F070FC4FF47F438E
:101380000793089509940A9607A9384603F066FC66
:101390004FF480730793089509940A9607A94FF0B4
:1013A000904003F05BFC0795CDF820B0099407A9A5
:1013B000384603F053FC0795CDF820B0099407A9EF
:1013C000384603F04BFC224607210A2004F03CFC7F
:1013D0000A2004F071FC22464146172004F034FC38
:1013E000172004F069FC2A464146282004F02CFC12
:1013F000282004F061FC22464146172004F024FC1A
:10140000172004F059FC22464146282004F01CFC19
:10141000282004F051FC22464146062004F014FC2A
:10142000062004F049FC0DB0BDE8F08F001002402A
:10143000000C004800080048000400480010004864
:1014400008B5012007F0E8FBFBE708B5012007F02D
:10145000E3FBFBE708B5012007F0DEFBFBE708B57F
:1014600002F09EF9012007F0D7FBF9E708B50E4A14
:1014700000210E4807F072FB0D4B18600D4A002149
:101480000D4807F06BFB0D4B18600D4A00210D480D
:1014900007F064FB0C4B18600C4A00210C4807F065
:1014A0005DFB0C4B186008BD90DD0008411400087E
:1014B0006002002048DD00085F1400085802002088
:1014C0006CDD00084B1400085C02002024DD0008DD
:1014D000551400085402002000B583B0164B9A6CD6
:1014E00042F002029A649A6C02F002020092009AA0
:1014F0009A6C42F001029A649B6C03F00103019321
:10150000019B002205210F2004F09EFB0F2004F018
:10151000D3FB00220521102004F096FB102004F0DC
:10152000CBFB00220521452004F08EFB452004F072
:10153000C3FB03B05DF804FB0010024008B511487E
:10154000114B0360A3F13E53A3F57D23A3F2446343
:101550004360002383600122C260036143618361B1
:10156000C361036203F086FE28B90021054804F038
:1015700052F918B908BDFFF74BFDF6E7FFF748FD34
:10158000F8E700BF640200200054004000B587B0B7
:101590000023019302930393049305930268104B75
:1015A0009A4202D007B05DF804FB4FF440730193F8
:1015B000122302930123039303230493042305932B
:1015C0000DEB0301074803F049FB074B9A6D42F40A
:1015D00000129A659B6D03F400130093009BE1E7F2
:1015E00000540040000400480010024008B50A4BB7
:1015F0000A4A1A60586000229A60DA601A610C2167
:1016000059619A611A625A62184605F0D8F800B911
:1016100008BDFFF7FDFCFBE79C0F002000800040A9
:1016200008B50B4B0B4A1A60586000229A60DA60CA
:101630001A610C2159619A61DA611A625A6218467C
:1016400005F0BDF800B908BDFFF7E2FCFBE700BFFD
:10165000AC1000200044004030B5ABB0044600217F
:1016600025912691279128912991882203A807F096
:1016700097FE23686A4A934208D06A4A934249D047
:10168000694A934200F089802BB030BD2023039338
:101690004FF40063169303A802F0C8FF002833D16B
:1016A000624BDA6D42F00102DA65DB6D03F0010393
:1016B0000093009B03232593022226920122279266
:1016C00028930823299325A9594803F0C7FA5948B4
:1016D000594B03600423436000238360C36080226E
:1016E000026143618361C361036204F0DBF870B996
:1016F000504B63679C6200220521462004F0A4FA47
:10170000462004F0D9FABFE7FFF782FCC8E7FFF7ED
:101710007FFCEDE7012303930223119303A802F05A
:1017200085FF002833D1414B1A6E42F480421A667D
:101730001B6E03F480430193019BC0232593022574
:10174000269501232793032328930723299325A96B
:101750003A4803F083FA3A483A4B03604560002365
:101760008360C3608022026143618361C36103625D
:1017700004F098F870B9324B63679C62002205212F
:10178000252004F061FA252004F096FA7CE7FFF7A3
:101790003FFCC8E7FFF73CFCEDE7022303931293FD
:1017A00003A802F043FF002834D1204B9A6D42F485
:1017B00000329A659B6D03F400330293029B0C2365
:1017C0002593022526950123279303232893072396
:1017D000299325A94FF0904003F040FA1A481B4B7B
:1017E0000360456000238360C3608022026143611F
:1017F0008361C361036204F055F870B9124B6367EB
:101800009C6203220621262004F01EFA262004F002
:1018100053FA39E7FFF7FCFBC7E7FFF7F9FBEDE702
:1018200000800040003801400044004000100240A9
:1018300000080048C40E0020800402400004004854
:101840000C0F002058000240540F00206C00024092
:10185000064BDB6913F0800FFAD080B2034B18857A
:10186000024BDB6913F0400FFAD070470044004090
:1018700070B506460D46002403E0305DFFF7E8FF33
:101880000134A542F9D870BD0DE0094BDB6913F0B6
:10189000800FFAD0013092B2054B1A85044BDB69F8
:1018A00013F0400FFAD00278002AEED1704700BF43
:1018B0000044004038B50B4C236810251D620220FF
:1018C00002F086F8236840221A624FF480620649CB
:1018D000204604F0F9FF226813682B431360236845
:1018E0001D6238BDAC100020C40A00200E4B1B68DE
:1018F000DA6912F0100F00D1704710B510221A6289
:10190000094C204604F02DFA636F1B685B68C3F531
:10191000806306494B80012301F8043B4FF4806249
:10192000204604F0D1FF10BDAC100020C00A0020FA
:101930000E4B1B68DA6912F0100F00D1704710B51A
:1019400010221A62094C204604F00BFA636F1B68E0
:101950005B68C3F5806306494B80012301F8043BB3
:101960004FF48062204604F0AFFF10BD2410002029
:10197000BC060020064BDB6913F0800FFAD080B262
:10198000034B1885024BDB6913F0400FFAD0704708
:101990000080004070B506460D46002403E0305D2F
:1019A000FFF7E8FF0134A542F9D870BD10B5044631
:1019B00002E00134FFF7DEFF20780028F9D110BDE6
:1019C0000F4B1B68DA6912F0100F00D1704710B589
:1019D00010221A620A4C204604F0C3F9636F1B6898
:1019E0005B68084A1360C3F5806307494B80012395
:1019F00001F8043B4FF48062204604F065FF10BDFF
:101A00009C0F002034110020B802002038B50B4C88
:101A1000236810251D62022001F0DAFF23684022AE
:101A20001A624FF480620649204604F04DFF226896
:101A300013682B43136023681D6238BD9C0F002080
:101A4000BC0200200FB400B5ADF20C4D0DF5826361
:101A500053F8042B01934FF4806102A809F010FBA6
:101A600002A8FFF711FF0DF20C4D5DF804EB04B076
:101A70007047000000B587B00023019302930393E1
:101A80000493059300931B481B4A026043607F2226
:101A90008260FF22C260036143618361C36104F01D
:101AA0009FFF50B90021134805F014F843F2F223C8
:101AB000984205D107B05DF804FBFFF7A9FAF1E7FA
:101AC00015238DF8043057238DF8053006238DF843
:101AD000003010238DF801300C238DF802301823CC
:101AE0008DF8033043F2F2220021024804F0E6FFB1
:101AF000E0E700BF381100200028004010B5A2B078
:101B0000044688220021684607F04AFC2268114BEF
:101B10009A4201D022B010BD4FF4003300934FF42D
:101B200000732193684602F081FD78B90A4AD2F821
:101B3000903043F40043C2F8903000220521032086
:101B400004F082F8032004F0B7F8E3E7FFF760FA47
:101B5000ECE700BF002800400010024002680E4B76
:101B60009A4200D0704700B583B003F500339A6DF8
:101B700042F010029A659B6D03F010030193019BE4
:101B800003220521362004F05FF8362004F094F893
:101B900003B05DF804FB00BF0010004000B587B043
:101BA00000230193029303930493059302680E4B61
:101BB0009A4202D007B05DF804FB03F55043DA6C9B
:101BC00042F00202DA64DB6C03F002030093009B34
:101BD0004FF400430193022302930E23059301A9BE
:101BE000024803F03BF8E5E70040014000040048EC
:101BF00010B596B004462948294B0360072343607B
:101C00000023836040F6B832C2600361436105F08F
:101C100041FA002832D100231393159313A91F48CA
:101C200005F00AFC00282CD160230C930D940023AE
:101C30000E930F9310931193129304220CA917483B
:101C400005F09EFA00BB00230193029303930493D3
:101C500005934FF40052069207930B9301A90F4886
:101C600005F036FC98B90D4C2046FFF797FF04218C
:101C7000204605F031FB68B916B010BDFFF7C8F972
:101C8000C9E7FFF7C5F9CFE7FFF7C2F9DBE7FFF7D1
:101C9000BFF9E8E7FFF7BCF9EEE700BFA8110020A5
:101CA00000400140FEE7FEE7FEE7FEE7FEE7704783
:101CB00008B5024804F0E8FE08BD00BF3811002056
:101CC00008B502F0DFFE08BD08B5012003F0DCF81E
:101CD00008BD08B5102003F0D7F808BD08B50248C4
:101CE00003F0ECFE08BD00BF0C0F002008B5024851
:101CF00003F0E4FE08BD00BF540F002008B520200B
:101D000003F0C2F8402003F0BFF808BD08B5FFF7A4
:101D10000FFE024804F0C6F808BD00BF24100020E2
:101D200008B5FFF7E3FD024804F0BCF808BD00BFAA
:101D3000AC10002008B54FF4005003F0A5F808BD22
:101D400008B5024805F04DF808BD00BF5C11002041
:101D500008B5024805F045F808BD00BF485000200E
:101D600008B5024803F0AAFE08BD00BFC40E00205B
:101D700008B5FFF725FE024804F094F808BD00BF3F
:101D80009C0F002000B583B0114B1A6E42F0010287
:101D90001A661A6E02F001020092009A9A6D42F0E1
:101DA00080529A659B6D03F080530193019B002242
:101DB0000F216FF0010003F047FF002205210420EE
:101DC00003F042FF042003F077FF03B05DF804FB4B
:101DD000001002400120704708B507F099FA162359
:101DE00003604FF0FF3008BD08B54FF0FF31FFF73B
:101DF000F3FFFEE770B50C461646002506E0AFF38C
:101E00000080214601F8010B01350C46B542F6DB96
:101E1000304670BD10464FF0000C0AE000BF4FF096
:101E200060431B68002BF9D04FF060431A700CF12F
:101E3000010C844510DA11F8012B4FF06043D3F800
:101E4000803E13F0010FF2D04FF06043D3F8003E14
:101E500013F0010FE3D1EAE77047000008B503462D
:101E60000B4A126842B10A4A106803446A46934218
:101E700006D8074A136008BD054A06491160F2E713
:101E800007F046FA0C2303604FF0FF30F3E700BF82
:101E9000F4110020A85000204FF0FF3070474FF49D
:101EA00000534B60002070470120704700207047AE
:101EB00038B5054601F086FD044601F083FD001BA0
:101EC000A842FAD338BD000010B50446114B1B7868
:101ED00053B901F077FD104B1B6898420CD201F00A
:101EE00071FD012090B910BD01F06CFD0A4B186026
:101EF000084B00221A70ECE701F064FD064B1B68EA
:101F0000C31AA34234BF00200120EBE7014B01229A
:101F10001A70E8E705000020F811002005E0203BDA
:101F200001F8013B10F8013B53B10378A3F16102C2
:101F3000D2B2192AF3D9202BF4D001F8013BF1E7F2
:101F400070470CE001300CF1010C02789CF8003075
:101F50009A4202D10AB1002BF4D14BB1013003787F
:101F60002BB10B780BB18C46EFE7002070470020B7
:101F7000704770B515461C46FFF7E3FF58B384461B
:101F8000034600211A78EAB12A78DAB1AE46002079
:101F900004E001330EF1010E0130C0B21E789EF84C
:101FA0000020964202D10EB1002AF2D14AB110B1FE
:101FB000013B0138C0B201330144C9B20131C9B299
:101FC000E0E7012239B132B11CF8013B04F8013BD2
:101FD0000139C9B2F6E770BD10B586460020024649
:101FE00006E0392B21D903EB001057380132D2B269
:101FF0008A4219D20EEB02041EF80230A3F1410C02
:102000005FFA8CFCBCF1190F01D82033DBB22370CE
:10201000A3F1300C5FFA8CFCBCF1090FE1D9A3F1FC
:102020006104E4B2192CDCD910BD03EB0010303888
:10203000DCE70378012B03D04378012B15D07047E0
:10204000002303700B78032BF9D8DFE803F00508B1
:102050000B0200230B70704701230B7070470023A5
:102060000B70704700230B707047002343700B7890
:10207000012B09D0032B04D0002BE0D102230B70DD
:10208000704702230B70704702230B70D7E70000E4
:1020900010B54FF400513D4802F0E0FE20B9402158
:1020A0003B4802F0DBFEA0B14FF40051374802F08C
:1020B000D5FE78B14021364802F0D0FE88B1354BCC
:1020C0001968354B1868FFF7B4FF344B1B78012BA8
:1020D0000ED010BD324B01221A70C82006F09CFDB4
:1020E000E8E72F4B01225A70C82006F095FDE6E77D
:1020F00001212C4802F0B2FE0028EAD1062003F0AC
:10210000E9FD294B1B7A4BB1284B01225A619620DD
:1021100006F082FD062003F0CFFDDAE7244C2146CD
:10212000A01E01F0F7FAA31F0122A27093ED037A1B
:1021300034F8022C07EE902AF8EEE77A27EE877A39
:10214000B4F90E2007EE902AF8EEE77A77EE877A58
:10215000FCEEE77A17EE902A24F8062C93ED047A29
:10216000DA8807EE902AF8EEE77A27EE877AB4F954
:10217000102007EE902AF8EEE77A77EE877AFCEEE9
:10218000E77A17EE902A24F8042CBDE700080048EF
:102190000010004800000020080000200C00002073
:1021A000FC110020000C0048F8130020000401403E
:1021B000FE13002008B5022803D0032806D0022011
:1021C00008BD1021044802F049FEF9E72021024829
:1021D00002F044FEF4E700BF0008004808B510BB59
:1021E00089B1012921D14FF0904002F037FE01283A
:1021F0001BD1002201214FF0904002F036FE0A2050
:10220000FFF756FE11E001214FF0904002F026FE4C
:1022100058B9012211464FF0904002F026FE0A20E4
:10222000FFF746FE01E0012800D008BD022910D0CA
:102230000329FAD108210E4802F010FE0128F4D13A
:10224000002208210A4802F010FE0A20FFF730FEA3
:10225000EBE70821064802F001FE0028E5D1012243
:102260000821034802F001FE0A20FFF721FEDCE707
:102270000008004808B50D48FFF7E4FB02210120E3
:10228000FFF7ACFF002202214FF0904002F0EDFD7D
:102290000F20FFF70DFE012202214FF0904002F0C7
:1022A000E4FDC820FFF704FE08BD00BFB4DD000850
:1022B00010B5044601461D48FFF7C4FB202C16D874
:1022C00063B2EBB1013C1F2C1AD8DFE804F0161AF8
:1022D000191E191919221919191919191926191953
:1022E000191919191919191919191919192A402C13
:1022F00006D10F48FFF7A6FB02E00E48FFF7A2FB4E
:1023000010BD0D48FFF79EFBFAE70C48FFF79AFB5C
:10231000F6E70B48FFF796FBF2E70A48FFF792FB58
:10232000EEE70948FFF78EFBEAE700BFC8DD0008CB
:1023300090DE0008DCDD0008F4DD000808DE00089F
:102340001CDE000848DE000868DE000838B50446D8
:102350000D46084B01221A700320FFF72BFFA04205
:1023600006D12846FFF7B0FD0028F5D0002000E098
:10237000012038BD05000020F0B5C7B007460C4667
:1023800000254195429543954495459502210120AC
:10239000FFF724FF29462846FFF720FF01AE31460C
:1023A0003846FFF7BBFD3046FDF712FF3218274BCA
:1023B00019889B7831529370254800F8045B4FF4DC
:1023C0008062294606F0ECFF3046FFF7EFFA214B1A
:1023D00001221A701E4A12782AB94FF4FA70FFF7D8
:1023E00073FD0028F6D01A48002300F8043B1A4970
:1023F000FFF7A7FD0546F0B141AB184A184938462A
:10240000FFF7B7FD00220132D2B202F58C710DEB5D
:10241000010C1CF8140C0028F5D13A220CF8142CED
:1024200023460D4A41A90F48FFF7A3FD281E18BFF8
:10243000012047B0F0BD0B4E3046FDF7C9FE024605
:102440003146204606F09EFFF0E700BFE8DE0008B8
:10245000B802002005000020B4DE0008D0DE00082D
:10246000D4DE0008BC02002070B506462F48FFF7F6
:10247000E9FA02210120FFF7B1FE01210020FFF758
:10248000ADFE2B4B01221A700220FFF793FE05468A
:102490000320FFF78FFE04464FF47A7006FB00F02E
:1024A000FFF712FD0246F8B9224B1B784BB3224BC3
:1024B0001B7853BB012DE7D1012CE5D11C4B012228
:1024C0001A701D4B1B782BB94FF49670FFF7FCFC6C
:1024D0000028F6D0184B1B78FBB91848FFF7B2FA62
:1024E0000122174B1A700AE00024154B1C700321BF
:1024F0000120FFF773FE1348FFF7A4FA22461046A7
:1025000070BD0F4B00211970F9E70B4800230370D1
:1025100041880430FFF7ACF9CCE70748002303708B
:1025200041880430FFF7A4F9D7E700BFD8DE0008E0
:102530000500002004000020B8020020FCDE000896
:1025400096120020ECDE0008F8B506460D46046839
:1025500003E0204606F00EFF3C4624B3A768012D99
:1025600009D0022D12D0002DF6D160680028F0D0DD
:1025700006F000FFEDE72388002BEDD1606808B17D
:1025800006F0F8FE204606F0F5FEE5E72388002B6E
:10259000E2D1002FE0D0606808B106F0EBFE2046E3
:1025A00006F0E8FED8E700233360F8BD08B5034B1A
:1025B00000221A70FFF7EEF908BD00BFB802002034
:1025C000F8B50646036893B11D469B68002BFBD106
:1025D0000C2006F0C7FE074650B3174B5C880480FA
:1025E0003CB9002343607B6843B1002415E01D46DD
:1025F000EEE7204606F0B6FE7860F4E76CB13846A8
:1026000006F0B8FE0D48FFF71DFA0EE07A680A4B97
:1026100023441B7913550134A4B23B88A342F5D857
:102620000023BB6033680BB1AF60F8BD3760FCE7D7
:102630000348FFF707FAF8E7B802002010DF0008A8
:1026400060DF000870B506460C46084D9622002152
:10265000284606F0A5FE29463046FFF78DFE0221EA
:102660002819FFF7B9FCC0B270BD00BF00120020EE
:1026700008B5FFF7B3FD08BD08B5FFF7FBFD08BDC2
:1026800008B5FFF7F1FE08BD38B50446084D002334
:102690002B70FFF7F1FF2B7823B103210120FFF707
:1026A0009DFD38BD2046FFF7DFFE2870F5E700BF2F
:1026B0009612002070B506460D461446594B1B78FD
:1026C000062B27D800212046FFF73EFF564B1B78EC
:1026D000002B00F0A080002D00F09F80022101203F
:1026E000FFF77CFD01210020FFF778FD4FF47A71A0
:1026F0000020FFF72BFEA8B129463046FFF756FF12
:102700004FF47A710120FFF721FE88B1454B00227A
:102710001A7023E0434B00221A704FF49670FFF7B3
:10272000B3FFCFE73F4A137801331370082075E0F9
:102730003C4A13780133137020206FE03B4B1B7829
:10274000012B24D0394B00225A80394B1B781F2B88
:102750002BD00320FFF72EFD00284DD14EF660212F
:102760000020FFF7F3FD002859D064210120FFF776
:10277000EDFD304B01221A702C4B1B78002BDDD164
:102780004FF49670FFF7A0FB0028F5D0D6E7274B53
:1027900059880029D6D01846002300F8043BFFF7DB
:1027A00067F82046FFF70CFFCFE70320FFF702FD95
:1027B0000028CED11D4B5B88092BCAD801221146B7
:1027C0001D48FFF73FFF012807D1022225211B48A2
:1027D000FFF738FF164B1870BBE7134C002323702C
:1027E000134A13701648FFF72DF94FF49670FFF750
:1027F0003BFE2070042011E00220FFF7DBFC20B13B
:102800000B4B00221A70012008E0094A13780133AB
:102810001370042002E0022000E0402070BD102070
:10282000FCE700BFFE11002096120020B802002035
:10283000FF1100200500002098DF0008A4DF000839
:10284000B0DF000870B5C0B005460C461646002142
:102850000091FB2201A806F0A3FD22462946684606
:1028600006F090FD224669460648FFF7EBF832462F
:1028700021462846FFF71EFF0446FFF719FD2046B4
:1028800040B070BDC4DF000838B504460D4602F004
:10289000BDFF60B90A4B23600123E360094B63600D
:1028A00000232361A361E3612362A5606361204685
:1028B00002F0E0FC0021204602F0ADFF38BD00BF71
:1028C00000540040BC7D701008B501460148FFF778
:1028D000DBFF08BD981200200048704798120020C6
:1028E000F0B585B007460D461646FFF7F5FF184BC5
:1028F0001B88ADF80C3000238DF80E308DF80C706D
:10290000022E22D104462B788DF80D306B788DF88D
:102910000E30104B01221A7004E04FF4FA70FFF7EA
:10292000D3FA90B94FF47A730093032303AA80215A
:10293000204602F003FD40B1204602F06AFF042861
:10294000EBD0054BF3221A70E7E705B0F0BD00BFEE
:10295000F0DC0008050000209712002000B583B0CD
:102960008023ADF80430022201A91046FFF7B8FF1A
:102970000F2001F02DF803B05DF804FB00B583B023
:10298000030A8DF804308DF80500022201A91046D3
:10299000FFF7A6FF03B05DF804FB08B58020FFF742
:1029A00093FFFFF7DBFF4FF48050FFF7E7FF0A20AC
:1029B00001F00EF808BD000070B584B00D46164653
:1029C0008DF80F00FFF788FF04461D4B01221A7097
:1029D00004E04FF4FA70FFF777FA98B94FF47A7081
:1029E000009001230DF10F028021204602F0A6FC89
:1029F00040B1204602F00DFF0428EAD0114BF52229
:102A00001A70E6E70E4B01221A7004E04FF4FA70D8
:102A1000FFF75AFA90B94FF47A70009033462A467D
:102A20008121204602F05CFD40B1204602F0F1FE1B
:102A30000428EBD0034BF4221A70E7E704B070BD12
:102A4000050000209712002000B583B0022201A9E2
:102A50000020FFF7B1FF9DF804009DF8053043EA20
:102A6000002003B05DF804FB08B501460148FFF7FC
:102A70000BFF08BDEC12002000487047EC1200204C
:102A80002DE9F04385B08146884617461E46FFF77C
:102A9000F3FF05460D4B01221A704FF47A7402942D
:102AA0000196009743464A463821284602F0D6FD53
:102AB00040B14FF4FA70FFF707FA0028EDD0044B4D
:102AC000ED221A7005B0BDE8F08300BF05000020BC
:102AD0009712002070B584B006460D46FFF7CCFF74
:102AE00004460023ADF80C308DF80C602B788DF87F
:102AF0000D300C4B01221A704FF47A7300930223AD
:102B000003AA3821204602F019FC40B14FF4FA70B4
:102B1000FFF7DAF90028EFD0034BED221A7004B06A
:102B200070BD00BF050000209712002000B583B0E3
:102B30003820FFF799FF01230DF1070219462A20DB
:102B4000FFF79EFF9DF8073023F001038DF8073053
:102B500001220DF107012A20FFF7BCFF01230DF12F
:102B6000060219460E20FFF78BFF9DF8063043F052
:102B700001038DF8063001220DF106010E20FFF74A
:102B8000A9FF9DF8073043F001038DF807300122BB
:102B90000DF107012A20FFF79DFF0A2000F018FF22
:102BA00003B05DF804FB000008B501460148FFF7DB
:102BB0006BFE08BD40130020004870474013002002
:102BC00070B584B006460D46FFF7F6FF04460023B5
:102BD000ADF80C308DF80C602B788DF80D300C4B67
:102BE00001221A704FF47A730093022303AAC021C2
:102BF000204602F0A3FB40B14FF4FA70FFF764F9EE
:102C00000028EFD0034BEF221A7004B070BD00BF54
:102C1000050000209712002000B583B0E8B9B82362
:102C20008DF8073001220DF107012620FFF7C8FFBC
:102C300007238DF8073001220DEB03011320FFF766
:102C4000BFFFB9238DF8073001220DF107012620BF
:102C5000FFF7B6FF03B05DF804FB21238DF80730C2
:102C600001220DF107012620FFF7AAFF00238DF8AE
:102C7000073001220DF107012720FFF7A1FF1123E3
:102C80008DF8073001220DF107012820FFF798FF8A
:102C9000E0E710B50446C020FFF786FF2046FFF7A7
:102CA000BBFF0A2000F094FE10BD000008B50146ED
:102CB0000148FFF7E9FD08BD941300200048704764
:102CC0009413002070B584B00D4616468DF80F00A1
:102CD000FFF7F4FF0446174B01221A704FF47A7085
:102CE000009001230DF10F028821204602F026FBFF
:102CF00040B14FF4FA70FFF7E7F80028EED00E4B22
:102D0000F2221A700B4B01221A704FF47A70009065
:102D100033462A468921204602F0E2FB40B14FF4B7
:102D2000FA70FFF7D1F80028EFD0034BF1221A70A8
:102D300004B070BD050000209712002070B584B06B
:102D400006460D46FFF7BAFF04460E4B1B88ADF84A
:102D50000C3000238DF80E308DF80C602B788DF838
:102D60000D306B788DF80E304FF47A730093032397
:102D700003AA8821204602F0E1FA0028F4D104B029
:102D800070BD00BFF4DC000800B583B0022201A9C9
:102D90000120FFF797FF9DF804209DF8053043EAD6
:102DA0000223C3F30B0242F4404213F4C06F05D177
:102DB00023F4C0631B051B0D43F44442130A8DF832
:102DC00004308DF80520022201A90120FFF7B6FF8B
:102DD000002003B05DF804FB08B58820FFF766FF0C
:102DE000FFF7D2FF0A2000F0F3FD08BD38B5054615
:102DF000164C00220821204602F037F800224FF43A
:102E00000051204602F031F800224FF480714FF05B
:102E1000904002F02AF80E4B5A69D2B25A615A69B0
:102E200042EA05225A6101224FF480714FF090402E
:102E300002F01BF801224FF40051204602F015F871
:102E400001220821204602F010F838BD0004004895
:102E50000010004838B50546164C012208212046CE
:102E600002F003F800224FF40051204601F0FDFF6C
:102E700000224FF480714FF0904001F0F6FF0E4BAE
:102E80005A69D2B25A615A6942EA05225A6101224C
:102E90004FF480714FF0904001F0E7FF01224FF4B2
:102EA0000051204601F0E1FF01220821204601F0F7
:102EB000DCFF38BD000400480010004838B5914CD4
:102EC00000224FF48051204601F0CFFF00224FF442
:102ED0000061204601F0C9FF01224FF480612046C5
:102EE00001F0C3FF142000F073FD01224FF40051E4
:102EF000204601F0BAFF01224FF480714FF090405C
:102F000001F0B3FF804D01220221284601F0ADFF00
:102F100000220821204601F0A8FF142000F058FDEF
:102F200000224FF48041204601F09FFF142000F062
:102F30004FFD01228021284601F097FF0A2000F072
:102F400047FD00228021284601F08FFF962000F0E7
:102F50003FFD01228021284601F087FF782000F004
:102F600037FD1120FFF742FF0A2000F031FD3A2023
:102F7000FFF73CFF0520FFF76DFF3620FFF736FF18
:102F80000020FFF767FFB220FFF730FF0C20FFF7AC
:102F900061FF0C20FFF75EFF0020FFF75BFF33208F
:102FA000FFF758FF3320FFF755FFB720FFF71EFF4D
:102FB0003520FFF74FFFBB20FFF718FF3520FFF745
:102FC00049FFC020FFF712FF2C20FFF743FFC2206C
:102FD000FFF70CFF0120FFF73DFFC320FFF706FFBF
:102FE0000F20FFF737FFC420FFF700FF2020FFF777
:102FF00031FFC620FFF7FAFE1120FFF72BFFD0208C
:10300000FFF7F4FEA420FFF725FFA120FFF722FF22
:10301000E820FFF7EBFE0320FFF71CFFE920FFF796
:10302000E5FE0920FFF716FF0920FFF713FF082030
:10303000FFF710FFE020FFF7D9FED020FFF70AFFCF
:103040000020FFF707FF0520FFF704FF0E20FFF722
:1030500001FF1520FFF7FEFE0D20FFF7FBFE3720D6
:10306000FFF7F8FE4320FFF7F5FE4720FFF7F2FEDB
:103070000920FFF7EFFE1520FFF7ECFE1220FFF707
:10308000E9FE1620FFF7E6FE1920FFF7E3FEE12038
:10309000FFF7ACFED020FFF7DDFE0020FFF7DAFEE1
:1030A0000520FFF7D7FE0D20FFF7D4FE0C20FFF719
:1030B000D1FE0620FFF7CEFE2D20FFF7CBFE4420E9
:1030C000FFF7C8FE4020FFF7C5FE0E20FFF7C2FE47
:1030D0001C20FFF7BFFE1820FFF7BCFE1620FFF7ED
:1030E000B9FE1920FFF7B6FE1120FFF77FFE78200A
:1030F00000F06EFC2920FFF779FE2C20FFF776FE0A
:1031000038BD00BF0004004800100048F8B505466F
:103110000E4614461F462A20FFF768FE280AFFF7CE
:1031200099FEE8B2FFF796FE2C44013C2046002CA5
:1031300029DBC0F30720FFF78DFE6342E0B2DBB26C
:1031400058BF5842C0B2FFF785FE2B20FFF74EFE56
:10315000300AFFF77FFEF0B2FFF77CFEF419013C66
:103160002046002C12DBC0F30720FFF773FE6342FA
:10317000E0B2DBB258BF5842C0B2FFF76BFE2C2062
:10318000FFF734FEF8BD04F1FF00D2E704F1FF00C1
:10319000E9E7000038B504461C4B18801C4D01229D
:1031A0000821284601F061FE00224FF40051284614
:1031B00001F05BFE00224FF480714FF0904001F06F
:1031C00054FE144A5369DBB25361516923029BB226
:1031D0000B435361104B5A69D2B25A6104F47F44D5
:1031E000586904435C6101224FF480714FF09040B4
:1031F00001F03BFE01224FF40051284601F035FE5C
:1032000000220821284601F030FE38BDF4130020CA
:103210000004004800100048000C004838B51D4666
:1032200014461346FFF772FF0D4B00221A800EE082
:103230002846FFF7AFFF0B4801880131018009499B
:1032400009888C42F4D8064A138801331380044B52
:103250001B889C4203D9034B00221A80EFE738BD3C
:10326000EC130020F21300202DE9F0478146884638
:103270001F46203A5FFA82FA002614E06D080134F6
:10328000E4B2072C0DD815F0010FF7D008EB0601BA
:1032900009EB04003B46012289B280B2FFF7BEFF72
:1032A000ECE70136F6B20F2E05D8044B03EB0A13F8
:1032B0009D5D0024E5E7BDE8F08700BFFCDF000866
:1032C00010B504464FF4A073F02200210846FFF722
:1032D0001DFF0E4B00221A800FE02046FFF75AFF19
:1032E0000B4A138801331380094B1B88B3F5A07F69
:1032F000F3D3064A138801331380044B1B88EF2B4A
:1033000003D8034B00221A80EEE710BDEA13002019
:10331000F0130020F8B504460D4616461F460BE094
:10332000B5F5A07F10D83B4616F8012B294620465C
:10333000FFF79AFF0834A4B2327862B1F02CEFD9CB
:103340001035ADB20024EBE74FF6FF70FFF7B8FF82
:1033500000252C46E7E7F8BD2DE9F04180460F46F1
:1033600016461C46BDF818505B1A121A9BB292B250
:10337000FFF7CCFE0D4BA3F800800EE02846FFF7C8
:1033800009FF0B49088801300880094B1888A042C2
:10339000F4D3064A138801331380044B1B88B342CD
:1033A00002D2034B1F80F0E7BDE8F081E813002054
:1033B000EE1300202DE9F84380460F461646994645
:1033C000089C9DF82430012B03D0042B15D0BDE8B8
:1033D000F883A9EB0103121A9BB292B2FFF796FE93
:1033E00007E034F8020BFFF7D5FE0135AE42F8D8FE
:1033F0000137B945EBD94546F8E7A9EB0109161A9B
:103400001FFA89F3B2B2FFF781FE09FB06F64FEA15
:10341000D60806F007074FF0000914E040F69320A5
:10342000FFF7B8FE7600F6B20135EDB2072D07D8EA
:1034300016F0800FF2D14DF2DB60FFF7ABFEF1E743
:10344000013409F10109C14502D226780025EDE7D2
:103450004FF0000813E040F69320FFF79BFE760044
:10346000F6B20135EDB2072D07D816F0800FF2D174
:103470004DF2DB60FFF78EFEF1E708F10108B84579
:10348000A5D226780025EEE700B583B04BF6FE60A6
:10349000FFF716FF4DF2DB6300936923F022002152
:1034A0000846FFF759FF04230193054B0093CC23F3
:1034B000F02269210020FFF77DFF03B05DF804FBD7
:1034C000ECE5000808B50421154801F0C7FC012807
:1034D00006D0144B00221A70124B1B7853B908BD4A
:1034E00001210F4801F0BAFC0128F2D10D4B012255
:1034F0001A70F1E7FFF7E2FC00F018F840F2DC5038
:10350000FEF776FBFFF7C0FF4BF6FE60FFF7D8FE35
:103510001F23054A78211E20FFF7FCFEDFE700BFCE
:10352000000C00480C000020E4DF000808B5012270
:1035300010214FF0904001F098FC012220214FF023
:10354000904001F092FC012280214FF0904001F068
:103550008CFC08BD38B50446002515E0002280210A
:103560004FF0904001F081FC6400E4B20022202181
:103570004FF0904001F079FC012220214FF0904063
:1035800001F073FC0135EDB2072D09D814F0800F5E
:10359000E4D0012280214FF0904001F066FCE3E787
:1035A00038BD0021062306E01A46013BDBB2002AA3
:1035B000FAD10131C9B28AB28242F5D3704738B527
:1035C0000446002220214FF0904001F04EFC0022E2
:1035D00010214FF0904001F048FC2046FFF7BAFF61
:1035E0000620FFF7DEFF012220214FF0904001F07E
:1035F0003CFC002220214FF0904001F036FC0024DA
:10360000254601E00135EDB20F2D17D86400A4B2B4
:10361000002220214FF0904001F027FC01222021C0
:103620004FF0904001F021FC40214FF0904001F01C
:1036300015FC0128E6D10134A4B2E3E724090122F4
:1036400010214FF0904001F010FC204638BD0000E2
:1036500030B589B00546002409E02846FFF7AFFFE2
:1036600008AB03EB440323F8200C0134A4B20E2C66
:10367000F3D900201AE001339BB20E2B15D808AA0B
:1036800002EB400232F8202C08A901EB430131F88B
:10369000201C8A42EFD908AD05EB400C2CF8201C09
:1036A00005EB430121F8202CE5E720460D2803D83F
:1036B000441CA4B22346E0E70022052308E008A941
:1036C00001EB430131F8201C0A4492B201339BB252
:1036D000092BF4D9034BA3FB0232C2F38F0009B0CC
:1036E00030BD00BFCDCCCCCC70B506460D46D02049
:1036F000FFF7AEFF04469020FFF7AAFF632C05D921
:10370000632805D934802880012070BD0020FCE7A3
:103710000020FAE730B583B005460C4601A90DF14B
:103720000600FFF7E1FF08B903B030BD69460DF1AF
:103730000200FFF7D9FF0028F6D0BDF80230BDF82F
:103740000620934203D803F13101914205DA9342F6
:103750001ED302F1310199421CDBBDF80000BDF817
:103760000410884203D800F1310C8C4504DA8842F9
:1037700012D33131814211DB13445B102B80BDF831
:103780000430BDF8002013445B1023800120CBE7F8
:103790000020C9E70020C7E70020C5E70020C3E7F5
:1037A00010B582B00023ADF806304F4B1B78012BCB
:1037B0002DD0022B78D00BB102B010BD4B4B1B7833
:1037C00073B94B4B1B78D3B94A4B1B78002BF3D002
:1037D00048480023037041880430FEF749F8EBE7BE
:1037E0000024424B1C704448FEF72CF902210120B2
:1037F000FEF73EFF21462046FEF73AFFE1E73C4850
:103800000023037041880430FEF7C4F8DCE7374B2F
:103810001B78012B12D1364B1B784BBB344B1B78DA
:10382000002B34D1334B1B78002BC5D031480023FB
:10383000037041880430FEF71BF8BDE72B4B0122D3
:103840001A702E48FEF7FEF87820FEF719FF0028C0
:10385000B2D0FFF7F9F82A4BA3FB00239B09ADF880
:103860000630284A02210DF10600FEF7EBFFD2E7F1
:103870002021254801F0F2FA0028CFD01C4800236F
:103880000370204A81780430FEF7DCFFCAE720216C
:103890001D4801F0E3FA0028C4D1154B00221A702C
:1038A0001A48FEF7CFF8BDE7104B1B78022B04D166
:1038B0001748FEF7C7F8002412E00C4B02221A70DA
:1038C0001448FEF7BFF8F3E7134B33F82410134BFB
:1038D00053F8240001F0CEFAC82005F09DF9013418
:1038E000032CF1DD68E700BF040000203000002059
:1038F000C00A0020B802002088F100089CF10008EE
:10390000D34D62101014002000080048B4F10008E4
:10391000FCF10008E8F10008200000201000002061
:1039200008B50F48FEF78EF80E4B0F4A0F491048A6
:10393000FEF788F80F48FEF785F80F48FEF782F883
:103940000E48FEF77FF80E48FEF77CF80D48FEF7AC
:1039500079F80D48FEF776F8642000F039F808BDD4
:1039600014F200081CF2000828F2000834F20008E3
:103970003CF20008E8DE000898F20008B0F2000807
:10398000CCF20008ECF2000804F3000810B50320A4
:1039900002F048F90F2005F041FC10B10124204647
:1039A00010BD0446FEF7EEF9F9E70000034B1B7863
:1039B000034A11680B441360704700BF31000020B8
:1039C00014140020014B1868704700BF1414002025
:1039D00038B50446FFF7F6FF0546B4F1FF3F02D0C5
:1039E000044B1B781C44FFF7EDFF401BA042FAD3A9
:1039F00038BD00BF3100002030B583B00446204BF5
:103A00009B6D13F0805F0BD002F0BCF8B0F5007F27
:103A100017D0802C1FD82DD0702C2DD000211BE06A
:103A2000174DAB6D43F08053AB65AB6D03F0805326
:103A30000193019B02F0A6F8AB6D23F08053AB65B8
:103A4000E4E7802C03D9A02C03D9022104E0002153
:103A500002E0012100E003210A4A136823F0070372
:103A60000B431360136803F007038B4206D1002059
:103A700003B030BD0221EFE70121EDE70120F7E7B8
:103A80000010024000200240284A9368D26802F0E9
:103A9000030213F00C030AD00C2B06D0042B1FD00A
:103AA000082B20D00020024610E0012AF6D11F4A40
:103AB000126812F0080F0CD11C4AD2F89420C2F3FD
:103AC00003221B4951F8222043B100200C2B0DD0BA
:103AD0007047164A1268C2F30312F2E71046F5E780
:103AE00014480022F2E714480022EFE70F4BDB688E
:103AF00003F00303022B16D0032B00D10E4A0B490F
:103B0000C868C0F30210431CC868C0F3062002FB5B
:103B100000F0B0FBF3F0CB68C3F3416301335B000B
:103B2000B0FBF3F0D4E7034AE9E700BF001002401E
:103B300044F300080024F40000127A00002800F08A
:103B4000F182F0B583B00446964B9D6805F00C05F4
:103B5000DE6806F00306036813F0100F5AD0E5B1D3
:103B60000C2D18D0A369002B00F0BB808D4A136880
:103B700043F001031360FFF725FF0746894B1B68DD
:103B800013F0020F40F09A80FFF71CFFC01B0228C1
:103B9000F4D90320D1E2012EE4D1824B1B6813F04B
:103BA000020F03D0A369002B00F0BE82206A7D4B78
:103BB0001B6813F0080F5BD07A4B1B6803F0F0030F
:103BC00098425CD8774B1A6842F008021A601A686B
:103BD00022F0F002216A0A431A605A6822F47F42F6
:103BE000E16942EA01225A60002D60D0FFF74CFFE4
:103BF0006C4B9B68C3F303136B4AD35C03F01F0346
:103C0000D8406A4B18606A4B186805F007FB00281B
:103C100040F09382236813F0010F00F08180082D9B
:103C200075D00C2D71D06368B3F5803F00F097809C
:103C3000B3F5A02F00F099805A4B1A6822F4803215
:103C40001A601A6822F480221A606368002B00F060
:103C50009980FFF7B7FE0746524B1B6813F4003FED
:103C60005ED1FFF7AFFEC01B6428F5D9032064E2E4
:103C70004C4BD3F894301B0903F0F003A0E7FFF797
:103C8000BBFE002840F05282464B1A6842F0080200
:103C90001A601A6822F0F002216A0A431A605A6810
:103CA00022F47F42E16942EA01225A609EE7206ADB
:103CB000FFF7A2FE002899D001203EE2394B1A6896
:103CC00042F008021A601A6822F0F002216A0A43E0
:103CD0001A605A6822F47F42E16942EA01225A607E
:103CE00098E7304A136823F001031360FFF76AFE78
:103CF00007462C4B1B6813F0020F8BD0FFF762FEB8
:103D0000C01B0228F5D9032017E2032E8BD1254BC7
:103D10001B6813F4003F03D06368002B00F0088297
:103D2000236813F0020F58D0042D45D00C2D41D03C
:103D3000E368002B77D01B4A136843F48073136049
:103D4000FFF740FE0646174B1B6813F4806F61D1E6
:103D5000FFF738FE801B0228F5D90320EDE1114A58
:103D6000136843F4803313606FE703F18043A3F5D6
:103D70003C331A6842F480221A601A6842F4803296
:103D80001A6062E7FFF71EFE0746064B1B6813F436
:103D9000003FC5D0FFF716FEC01B6428F5D90320ED
:103DA000CBE100BF001002402CF3000858000020B7
:103DB00034000020022EBBD1A34B1B6813F4806F8C
:103DC00003D0E368002B00F0B5819F4A536823F0CD
:103DD000F853216943EA01635360236813F0080F25
:103DE0004CD063699BB3984AD2F8943043F00103F6
:103DF000C2F89430FFF7E6FD0646934BD3F89430B3
:103E000013F0020F3AD1FFF7DDFD801B0228F4D931
:103E1000032092E18C4A536823F0F853216943EA66
:103E200001635360D9E7884A136823F480731360F1
:103E3000FFF7C8FD0646844B1B6813F4806FCCD097
:103E4000FFF7C0FD801B0228F5D9032075E17E4AEB
:103E5000D2F8943023F00103C2F89430FFF7B2FD9A
:103E60000646794BD3F8943013F0020F06D0FFF7D3
:103E7000A9FD801B0228F4D903205EE1236813F01A
:103E8000040F7AD0704B9B6D13F0805F36D16E4B70
:103E90009A6D42F080529A659B6D03F080530193B6
:103EA000019B0126694B1B6813F4807F28D0A3680F
:103EB000012B39D0052B3FD0634BD3F8902022F053
:103EC0000102C3F89020D3F8902022F00402C3F836
:103ED0009020A368002B3DD0FFF774FD07465A4B96
:103EE000D3F8903013F0020F46D1FFF76BFDC01BE3
:103EF00041F288339842F2D903201EE10026D1E72F
:103F0000524A136843F480731360FFF75BFD074662
:103F10004E4B1B6813F4807FC9D1FFF753FDC01BC4
:103F20000228F5D9032008E1474AD2F8903043F03F
:103F30000103C2F89030CCE7434BD3F8902042F015
:103F40000402C3F89020D3F8902042F00102C3F895
:103F50009020BEE7FFF736FD07463B4BD3F8903085
:103F600013F0020F08D0FFF72DFDC01B41F288337C
:103F70009842F2D90320E0E0EEB9A36A002B00F0EA
:103F8000DB80022B1DD00C2D00F0DD802E4A136843
:103F900023F080731360FFF715FD04462A4B1B685E
:103FA00013F0007F00F0B780FFF70CFD001B022824
:103FB000F4D90320C1E0244A936D23F08053936524
:103FC000DBE7214BDB6803F00301E26A91420FD08B
:103FD0000C2D00F0B4801C4B1B6813F0806F40F078
:103FE000B080194B1B6813F0805F31D00120A4E032
:103FF00003F07002216B0139B2EB011FE8D103F429
:10400000FE42616BB2EB012FE2D103F40031A26BEF
:10401000073A18BF01229142DAD103F4C001E26BE2
:104020005208013AB1EB425FD2D103F0C063226C77
:104030005208013AB3EB426FCAD1034B1B6813F02D
:10404000007F4ED0002078E0001002400070004059
:104050003E4A136823F080731360FFF7B3FC0546F4
:104060003A4B1B6813F0007F06D0FFF7ABFC401BF8
:104070000228F5D9032060E0344AD3683449194056
:10408000E36A206B013843EA0013606B43EA0023C4
:10409000E06B4008013843EA4053206C4008013887
:1040A00043EA4063A06B000943EA40430B43D360FB
:1040B000136843F080731360D36843F08073D36058
:1040C000FFF780FC0446214B1B6813F0007F06D1EC
:1040D000FFF778FC001B0228F5D903202DE0002013
:1040E0002BE01A4B1A6842F080721A60DA6842F0CC
:1040F0008072DA60FFF766FC0446144B1B6813F00D
:10410000007F06D1FFF75EFC031B022BF5D90320CD
:1041100013E0002011E00D4AD1680E4B0B40D36034
:1041200000200AE001207047012006E0012004E0A1
:10413000012002E0012000E0002003B0F0BD0120DA
:10414000FBE70120F9E70120F7E700BF001002407C
:104150008C809DF9FCFFEEFE002800F0AF8070B56A
:104160000D460446594B1B6803F007038B420BD2E4
:10417000564A136823F007030B431360136803F0D8
:1041800007038B4240F09C80236813F0020F0CD091
:10419000A2684F4B9B6803F0F0039A4205D94C4943
:1041A0008B6823F0F0031A438A60236813F0010F31
:1041B00039D06368032B09D0022B26D063BB444A55
:1041C000126812F0020F06D1012076E0404A126810
:1041D00012F0007F76D03E498A6822F00302134332
:1041E0008B60FFF7EFFB0646394B9B6803F00C032F
:1041F0006268B3EB820F16D0FFF7E4FB801B41F23D
:1042000088339842F0D9032057E0314A126812F4FB
:10421000003FE0D1012050E02D4A126812F4806F77
:10422000D9D1012049E0236813F0020F0CD0A26815
:10423000274B9B6803F0F0039A4205D224498B6810
:1042400023F0F0031A438A60204B1B6803F0070336
:10425000AB420AD91D4A136823F007032B431360AE
:10426000136803F00703AB422ED1236813F0040F49
:1042700006D0174A936823F4E063E1680B43936028
:10428000236813F0080F07D0114A936823F4605392
:10429000216943EAC1039360FFF7F6FB0C4B9B686F
:1042A000C3F303130B4AD35C03F01F03D8400A4B3C
:1042B00018600A4B186804F0B1FF70BD0120704708
:1042C0000120FAE70120F8E70120F6E7002002408C
:1042D000001002402CF30008580000203400002099
:1042E000014B1868704700BF5800002008B5FFF761
:1042F000F7FF054B9B68C3F30223044AD35C03F02A
:104300001F03D84008BD00BF001002403CF3000866
:1043100008B5FFF7E5FF054B9B68C3F3C223044ACA
:10432000D35C03F01F03D84008BD00BF001002405B
:104330003CF300080F2303600B4B9A6802F0030262
:1043400042609A6802F0F00282609A6802F4E062C9
:10435000C2609B68DB0803F4E0630361034B1B68E6
:1043600003F007030B60704700100240002002407A
:10437000F8B504460F46594BDB6813F0030F18D00D
:10438000564BDB6803F003030268934202D0012519
:104390002846F8BD002A00F09E80504BDB68C3F32E
:1043A000021301334268934201D00125F0E7002552
:1043B00009E00368022B57D0032B5CD0012B42D0BD
:1043C0000125002DE4D1454A136823F08063136072
:1043D000FFF7F8FA0646414B1B6813F0006F05D053
:1043E000FFF7F0FA831B022BF5D90325002DCFD15F
:1043F000002F4ED139490B6923F41F3323F4407346
:10440000A068E2681209520442EA002213430B61D9
:10441000324A136843F080631360FFF7D3FA06460D
:104420002E4B1B6813F0006F05D1FFF7CBFA831BEF
:10443000022BF5D90325002DAAD1284A1369A169B9
:104440000B431361A4E7254A126812F0020F1ED035
:104450002248C26822F073026168013943EA0113FD
:104460001343C3600025ACE71C4A126812F4806F46
:10447000EED10125A5E7194A126812F4003FE7D1F1
:10448000164A126812F4802FE2D1012599E701251E
:1044900097E7012F0FD01148026922F0C06222F481
:1044A000FE42A16863695B08013B5B0643EA0123A6
:1044B00013430361ACE70948026922F4C00222F405
:1044C000FE42A16823695B08013B5B0543EA0123C7
:1044D000134303619CE701255AE700BF0010024027
:1044E000F8B504460F46504BDB6813F0030F18D0A5
:1044F0004D4BDB6803F003030268934202D00125B1
:104500002846F8BD002A00F08C80474BDB68C3F3D7
:10451000021301334268934201D00125F0E70025E0
:1045200009E00368022B57D0032B5CD0012B42D04B
:104530000125002DE4D13C4A136823F08053136019
:10454000FFF740FA0646384B1B6813F0005F05D0B2
:10455000FFF738FA831B022BF5D90325002DCFD1A5
:10456000002F4ED130494B6923F41F3323F440739D
:10457000A068E2681209520442EA002213434B6128
:10458000294A136843F080531360FFF71BFA06466D
:10459000254B1B6813F0005F05D1FFF713FA831B4F
:1045A000022BF5D90325002DAAD11F4A5369616951
:1045B0000B435361A4E71C4A126812F0020F1ED08D
:1045C0001948C26822F073026168013943EA011395
:1045D0001343C3600025ACE7134A126812F4806FDE
:1045E000EED10125A5E7104A126812F4003FE7D189
:1045F0000D4A126812F4802FE2D1012599E70125B6
:1046000097E70948426922F0C06222F4FE42A1689D
:1046100023695B08013B5B0643EA012313434361C3
:10462000AEE701256CE700BF001002402DE9F04124
:1046300082B00446036813F4006F33D0436EB3F5C1
:10464000000F1FD00CD823B3B3F5800F05D1002184
:104650002030FFF745FF064620E001273E4623E0D5
:10466000B3F5400F0BD10026604AD2F8883023F40E
:104670004003616E0B43C2F88830002714E0012725
:104680003E4611E0594AD36843F48033D360002694
:10469000EAE700210430FFF76BFE0646002EE3D068
:1046A000374601E000273E46236813F4805F30D090
:1046B000A36EB3F1007F1FD00DD81BB3B3F1807F81
:1046C00006D1002104F12000FFF70AFF064605E0AD
:1046D00001273E461DE0B3F1407F0AD1C6B9434AE7
:1046E000D2F8883023F04073A16E0B43C2F88830B3
:1046F0000FE001273E460CE03C4AD36843F4803388
:10470000D360EBE70021201DFFF732FE0646E5E708
:104710003746236813F4003F71D0344B9B6D13F080
:10472000805F4ED1314B9A6D42F080529A659B6DFD
:1047300003F080530193019B4FF001082C4A13684A
:1047400043F480731360FFF73DF90546284B1B685F
:1047500013F4807F05D1FFF735F9401B0228F5D906
:104760000326002E46D1214BD3F8903013F440732A
:1047700016D0D4F884209A4212D01C4AD2F8903035
:1047800023F44073D2F8901041F48031C2F89010B5
:10479000D2F8901021F48031C2F89010C2F8903015
:1047A00013F0010F10D1002E40F027810F4AD2F8EC
:1047B000903023F44073D4F884100B43C2F8903047
:1047C00019E04FF00008B9E7FFF7FCF80546074B82
:1047D000D3F8903013F0020FE5D1FFF7F3F8401B48
:1047E00041F288339842F2D90326DCE700100240F8
:1047F000007000403746B8F1000F40F00081236898
:1048000013F0010F08D09D4AD2F8883023F003033B
:10481000A16B0B43C2F88830236813F0020F08D055
:10482000964AD2F8883023F00C03E16B0B43C2F8B0
:104830008830236813F0040F08D0904AD2F88830EB
:1048400023F03003216C0B43C2F88830236813F047
:10485000080F08D0894AD2F8883023F0C003616C71
:104860000B43C2F88830236813F0100F08D0834A36
:10487000D2F8883023F44073A16C0B43C2F888301F
:10488000236813F0200F08D07C4AD2F8883023F434
:104890004063E16C0B43C2F88830236813F4007F57
:1048A00008D0764AD2F8883023F44023E16D0B43D8
:1048B000C2F88830236813F4806F08D06F4AD2F8AA
:1048C000883023F44013216E0B43C2F888302368EC
:1048D00013F0400F08D0694AD2F8883023F44053CF
:1048E000216D0B43C2F88830236813F0800F08D085
:1048F000624AD2F8883023F44043616D0B43C2F81A
:104900008830236813F4807F08D05C4AD2F888305E
:1049100023F44033A16D0B43C2F88830236813F4AD
:10492000005F0FD0554AD2F8883023F04063E16E23
:104930000B43C2F88830E36EB3F1006F65D0B3F17A
:10494000806F67D0236813F4002F0FD04B4AD2F842
:10495000883023F04063216F0B43C2F88830236F07
:10496000B3F1006F5ED0B3F1806F60D0236813F4B1
:10497000802F0FD0414AD2F8883023F04063616F16
:104980000B43C2F88830636FB3F1006F57D0B3F1B7
:10499000806F59D0236813F4804F0FD0374AD2F874
:1049A000883023F04053A16F0B43C2F88830A36FC7
:1049B000B3F1805F50D0B3F1005F55D0236813F49A
:1049C000004F08D02D4AD2F8883023F08043E16FA1
:1049D0000B43C2F88830236813F4803F09D0274A7C
:1049E000D2F8883023F00043D4F880100B43C2F88B
:1049F0008830384602B0BDE8F0813746FBE61F4AF2
:104A0000936D23F080539365F9E6D36843F48013E4
:104A1000D36097E70121201DFFF7AAFC002891D061
:104A200007468FE7D36843F48013D3609EE70121E4
:104A3000201DFFF79DFC002898D0074696E7D36815
:104A400043F48013D360A5E70121201DFFF790FCFC
:104A500000289FD007469DE70221201DFFF788FC14
:104A60000028ABD00746A9E7022104F12000FFF798
:104A700037FD0028A2D00746A0E700BF0010024083
:104A80007047704710B5494A536923F4FF6323F018
:104A900007035361536923F400435361444B1B7A6A
:104AA000DBB2042B25D0414B1B694CF2FA32134088
:104AB00024D13E4B1B6913F0010F60D03B4B012208
:104AC0001A613B4B1B7ADBB293424AD1384B9A694D
:104AD000013A9A619B69002B37D0354C6069FFF72A
:104AE000CFFF6369013363616069216900F062F897
:104AF00045E0536923F480235361D4E72C4C62686A
:104B00001A436260294A136100F076F8237ADBB217
:104B1000012B0CD0022B0ED0033BDBB2012B0FD9A3
:104B20000020FFF7AEFF224B00221A72C1E7606936
:104B3000FFF7A7FFF7E71E4B1869FFF7A2FFF2E7A1
:104B40001B4BD868FFF79DFFEDE7194C4FF0FF3383
:104B500063610023237200F04FF86069FFF790FF54
:104B60000DE000F049F8124B1B7ADBB2022B12D099
:104B7000033BDBB2012B13D90D4B00221A720C4BF5
:104B80001B7A3BB9094A536923F040735361084BC0
:104B900000221A7010BD064B1869FFF771FFEBE792
:104BA000034BD868FFF76CFFE6E700BF0020024028
:104BB0003800002011F0010F16D00E4A536923F47B
:104BC000006353610B4B5A6922F4FF62C00000F48A
:104BD000FF60104358615A6942F002025A615A69F3
:104BE00042F480325A617047024A536943F40063C9
:104BF0005361E7E700200240164B1B7FDBB2012B1D
:104C000001D0032B10D1144A116821F400711160F6
:104C1000116841F400611160116821F400611160B4
:104C2000116841F400711160023BDBB2012B03D922
:104C3000084B00221A777047074B1A6842F48052DB
:104C40001A601A6822F480521A601A6842F480626C
:104C50001A60EDE73800002000200240F0B583B074
:104C600000236BE085685E000324B44025EA040558
:104C7000CC68B4402C438460456825EA0C054C6838
:104C8000C4F300149C402C43446069E0C56A25EAE3
:104C90000C0CC4F3C0049C4044EA0C04C46265E0FC
:104CA000DD08083550F8256003F007044FEA840C4E
:104CB0000F2404FA0CF426EA040E0C6904FA0CF42E
:104CC00044EA0E0440F8254067E0062400E0002492
:104CD00004FA0EF42C430CF1020C5C4D45F82C4008
:104CE0005B4CA568D44325EA02064F6817F4801F81
:104CF00001D042EA0506564DAE60ED6804EA0506AD
:104D00004F6817F4001F01D042EA0506504DEE60CF
:104D10006D6804EA05064F6817F4003F01D042EAC7
:104D200005064B4D6E602D682C404E6816F4803F92
:104D300001D042EA0504464A146001330A6832FA97
:104D400003F400F081804FF0010C0CFA03FC1CEA24
:104D50000202F2D04C6804F00304013C012C81D91A
:104D60004C6804F0030EBEF1030F8FD04C6804F0C2
:104D70000304032C0CD0C4685D004FF0030C0CFA44
:104D800005FC24EA0C0C8C68AC4044EA0C04C460BA
:104D90004C6804F00304022C82D004684FEA430EEE
:104DA0004FF0030C0CFA0EFC24EA0C0C4C6804F0D7
:104DB000030404FA0EF444EA0C0404604C6814F48E
:104DC000403FBAD0234C256E45F001052566246E80
:104DD00004F001040194019C4FEA930C0CF10205CC
:104DE0001A4C54F8255003F003044FEA840E0F24A4
:104DF00004FA0EF425EA0405B0F1904F3FF467AFD2
:104E0000154CA04216D004F58064A04214D004F5DD
:104E10008064A04212D004F58064A04210D004F552
:104E20008064A0420ED004F58064A0423FF44DAFF0
:104E300007244DE701244BE7022449E7032447E711
:104E4000042445E7052443E703B0F0BD000001401A
:104E500000040140001002400004004803691942A8
:104E600001D001207047002070470AB1816170476E
:104E700081627047436901EA030221EA030141EAC2
:104E8000024181617047000008B5054B5B69034230
:104E900000D108BD024B5861FDF7FAF8F9E700BFF1
:104EA0000004014003689A6912F0020F01D0002249
:104EB0009A6203689A6912F0010F03D19A6942F06D
:104EC00001029A61704710B4019CC1F3090141EAE3
:104ED00002411943214321F0004102685368640DE7
:104EE00004F4806444F07F7444F4583444F47F74D0
:104EF00044F0030423EA0404214351605DF8044BA9
:104F000070472DE9F041044603689E6916F01006CB
:104F10007CD00D4690461022DA6100263746236881
:104F2000986910F0200F30D17FBBB5F1FF3FF6D06C
:104F3000FEF748FDA0EB0800A84201D8002DEED1F5
:104F400021684B6803F4804394F84220D2B2886908
:104F500010F4004F02D00BB9202A0ED123689B69B0
:104F600013F0200FDBD1FEF72DFDA0EB0800192870
:104F7000F4D946F020060127D1E74B6843F480437B
:104F80004B60FEF71FFD8046E8E70FB92022DA618B
:104F900046F0040601252268936913F4807F05D04A
:104FA00046F001064FF48071D161012513F4806F42
:104FB00006D046F0080622684FF48061D1610125D1
:104FC00013F4007F24D046F0020623684FF40072E9
:104FD000DA6101252046FFF765FF2268536823F058
:104FE000FF7323F48B3323F4FF7323F00103536027
:104FF000636C1E436664202384F84130002384F8E8
:10500000423084F840302846BDE8F0810025C2E7F0
:10501000002DF8D0DEE770B504460D46164623682D
:105020009B6913F0020F22D1324629462046FFF732
:1050300068FFF0B9B5F1FF3FF1D0FEF7C3FC801B6C
:10504000A84201D8002DEAD123689B6913F0020F12
:10505000E5D1636C43F020036364202384F841307E
:10506000002384F8423084F84030012000E0002022
:1050700070BD0120FCE72DE9F04104460F461646BD
:105080001D46DDF8188023689B6937EA03030CBFCF
:1050900001230023B34227D1424629462046FFF789
:1050A00030FF20BBB5F1FF3FEDD0FEF78BFCA0EB4E
:1050B0000800A84201D8002DE5D123689B6937EA92
:1050C00003030CBF01230023B342DCD1636C43F024
:1050D00020036364202384F84130002384F84230A5
:1050E00084F84030012000E00020BDE8F08101207C
:1050F000FBE700002DE9F04182B0044690461D46D2
:10510000089E099F184B00930023EAB2FFF7DBFECD
:105110003A4631462046FFF77EFFF8B9012D0ED101
:1051200023685FFA88F29A62009733460022402192
:105130002046FFF7A0FFA8B902B0BDE8F0812368C0
:105140004FEA18229A623A4631462046FFF763FF3B
:1051500030B923685FFA88F29A62E5E70120EBE74D
:105160000120E9E70120E7E70020008070B5044650
:105170000D46164604E023689B6913F0200F12D0F9
:1051800023689B6913F0200F1BD132462946204625
:10519000FFF7B7FEB8B9FEF715FC801BA842EAD8A6
:1051A000002DEDD1E7E7636C43F020036364202317
:1051B00084F84130002384F8423084F840300120E4
:1051C00000E0002070BD0120FCE7F8B504460E4663
:1051D0001746002518E000236364FEF7F3FBC01BAD
:1051E000B04200D886B97DB923689B6913F0040FDB
:1051F0000AD1636C43F020036364202384F84130B8
:10520000002384F84030012523689B6913F0040FC4
:105210002ED16DBB3A4631462046FFF772FE00B1F3
:10522000012523689A6912F0200FD6D0002DD4D121
:105230009A699A6912F0100FCDD01022DA61042316
:10524000636423682022DA6121684B6823F0FF73CE
:1052500023F48B3323F4FF7323F001034B6084F8B2
:105260004120002384F8423084F840300125B4E71F
:105270002846F8BD00285FD010B5044690F84130AC
:10528000002B48D0242384F841302268136823F08F
:10529000010313606368226823F07063136122685E
:1052A000936823F400439360E368012B38D0A3682C
:1052B000226843F404439360E368022B36D02268EB
:1052C000536823F4006353602268536843F000730B
:1052D00043F4004353602268D36823F40043D3604F
:1052E000236962691343A169226843EA0123D360F9
:1052F000E369216A22680B4313602268136843F054
:105300000103136000206064202384F8413020638F
:1053100084F8420010BD80F84030FCF737F9B1E75F
:10532000A368226843F400439360C5E7226853688A
:1053300043F400635360C7E7012070472DE9F0474D
:1053400082B00F460A9E90F84110C9B2202940F061
:10535000B78004469046994690F84030012B00F003
:10536000B3804FF0010A80F840A0FEF72BFB054602
:105370000090192352464FF400412046FFF77BFE70
:10538000002840F0A380212384F84130102384F8C2
:10539000423000236364C4F82480A4F82A90636335
:1053A000638D9BB2FF2B1ED9FF2323854FF08073A3
:1053B000228DEAB1226898F800109162626A013287
:1053C0006262628D92B2013A92B26285228D013A96
:1053D00092B22285013241490091D2B2394620462B
:1053E000FFF771FD18E0638D23854FF00073DFE751
:1053F0003A490091D2B239462046FFF764FD0BE0EE
:10540000628D92B22285002300934FF00073D2B2D6
:1054100039462046FFF757FD638D9BB2002B33D0F2
:105420002A4631462046FFF7F6FD002850D1626A31
:10543000236812789A62636A01336362638D9BB258
:10544000013B9BB26385238D013B9BB22385628D1B
:1054500092B2002AE0D0002BDED100953346002224
:1054600080212046FFF707FEA0BB638D9BB2FF2B78
:10547000C6D9FF222285002300934FF0807339465E
:105480002046FFF720FDC7E72A4631462046FFF7B2
:105490006DFE08BB23682022DA6121684B6823F087
:1054A000FF7323F48B3323F4FF7323F001034B606A
:1054B00084F84120002384F8423084F8403000E032
:1054C000022002B0BDE8F0870220FAE70120F8E7E9
:1054D0000120F6E70120F4E70120F2E70020008038
:1054E0002DE9F04782B00F460A9E90F84110C9B2EC
:1054F000202940F0A38004469046994690F8403019
:10550000012B00F09F804FF0010A80F840A0FEF7C9
:1055100059FA05460090192352464FF4004120469F
:10552000FFF7A9FD002840F08F80222384F8413046
:10553000102384F8423000236364C4F82480A4F864
:105540002A906363638D9BB2FF2B0BD95246A4F85C
:1055500028A0414B00934FF0807339462046FFF757
:10556000B2FC18E0628D92B222853B4B00934FF063
:105570000073D2B239462046FFF7A5FC0BE0628DDE
:1055800092B22285002300934FF00073D2B23946C5
:105590002046FFF798FC638D9BB2002B32D02A4641
:1055A00031462046FFF711FE00284FD123685A6A82
:1055B000636A1A70636A01336362228D013A92B2A0
:1055C0002285638D9BB2013B9BB26385638D9BB249
:1055D000002BE0D0002ADED1009533468021204602
:1055E000FFF749FDA0BB638D9BB2FF2BC7D9FF22FC
:1055F0002285002300934FF0807339462046FFF741
:1056000062FCC8E72A4631462046FFF7AFFD08BBDB
:1056100023682022DA6121684B6823F0FF7323F4AA
:105620008B3323F4FF7323F001034B6084F8412094
:10563000002384F8423084F8403000E0022002B0B9
:10564000BDE8F0870220FAE70120F8E70120F6E73D
:105650000120F4E70120F2E7002400802DE9F04F5B
:1056600083B00E46BDF834A00E9D90F84110C9B22B
:10567000202940F0BC800446904699460C9BCBB153
:10568000BAF1000F16D090F84030012B00F0B38033
:105690004FF0010B80F840B0FEF794F907460090F8
:1056A00019235A464FF400412046FFF7E4FC30B17D
:1056B00001209DE04FF400736364012098E02223F1
:1056C00084F84130402384F84230002363640C9A0C
:1056D0006262A4F82AA06363019700954B46424694
:1056E00031462046FFF706FD70B9638D9BB2FF2B54
:1056F0000FD901222285444B00934FF0807331462D
:105700002046FFF7E0FB21E0002384F840305846B4
:105710006EE0628D92B222853B4B00934FF0007396
:10572000D2B231462046FFF7CEFB0FE0628D92B237
:105730002285002300934FF00073D2B231462046F9
:10574000FFF7C1FB638D9BB2002B34D000972B4633
:10575000002204212046FFF78EFC00284DD123684B
:105760005A6A636A1A70636A01336362228D013A6E
:1057700092B22285638D9BB2013B9BB26385638DA0
:105780009BB2002BDED0002ADCD100972B46802173
:105790002046FFF770FC90BB638D9BB2FF2BC5D9F1
:1057A00001222285002300934FF08073314620466A
:1057B000FFF789FBC6E73A4629462046FFF7D6FCA5
:1057C000F8B923682022DA6121684B6823F0FF735F
:1057D00023F48B3323F4FF7323F001034B6084F82D
:1057E0004120002384F8423084F8403000E0022059
:1057F00003B0BDE8F08F0220FAE70120F8E70120AE
:10580000F6E70120F4E700BF0024008090F8410093
:105810007047406C704790F84130DBB2202B24D1A8
:1058200090F84030012B22D0012380F8403024230F
:1058300080F841300268136823F0010313600268A6
:10584000136823F4805313600268136819431160CE
:105850000268136843F001031360202380F841308D
:10586000002380F84030184670470220704702201D
:10587000704730B4446C04F01C0C012404FA0CF49E
:10588000056C6C60046863608368102B05D0036846
:1058900099600368DA6030BC704703689A600368F7
:1058A000D960F8E7002873D010B403460068394A7D
:1058B00090424AD8384A02443849A1FB02121209E0
:1058C00092005A64364A1A64022283F8252001683D
:1058D00021F4FF4121F070019A68DC6822431C69C1
:1058E00022435C6922439C692243DC6922431C6A8F
:1058F00022430A4302609A68B2F5804F1BD0196CAC
:10590000274A91422CD0264AD2F8A814586C00F0AD
:105910001C0C0F2000FA0CF021EA0001C2F8A814B8
:10592000D2F8A81458685C6C04F01C0C00FA0CF057
:105930000143C2F8A8140020D863012283F825206F
:1059400083F824005DF8044B7047164A024413495B
:10595000A1FB0212120992005A64134A1A64B3E7B7
:10596000D2F8A810586C00F01C0C0F2000FA0CF0B4
:1059700021EA0001C2F8A810D2F8A81058685C6C9F
:1059800004F01C0C00FA0CF00143C2F8A810D2E796
:105990000120704707040240F8FFFDBFCDCCCCCCFE
:1059A00000000240F8FBFDBF0004024038B5044689
:1059B00090F82400012832D0012084F8240094F8C3
:1059C0002500C0B2012804D0002384F8243002202E
:1059D00038BD022084F825000020E063256828688F
:1059E00020F0010028602046FFF743FF236B5BB1E6
:1059F0002268136843F00E0313602268136843F0B3
:105A0000010313600020E3E72268136823F0040316
:105A100013602268136843F00A031360EDE7022065
:105A2000D6E790F82530DBB2022B06D00423C363FF
:105A3000002380F82430012070470268136823F0A7
:105A40000E0313600268136823F001031360436CB4
:105A500003F01C03016C012202FA03F34B6080F88F
:105A60002520002380F824301846704708B590F8A8
:105A70002530DBB2022B03D00423C363012008BD11
:105A80000268136823F00E0313600268136823F0A2
:105A900001031360436C03F01C03016C012202FA42
:105AA00003F34B6080F82520002380F82430836BBB
:105AB00013B198470020E2E70020E0E738B5036C17
:105AC000196804682568436C03F01C0304229A409B
:105AD0000A4215D015F0040F12D0236813F0200FDE
