:020000040800F2
:1000000000800120FD4F00080113000803130008C1
:10001000051300080713000809130008000000007A
:10002000000000000000000000000000914C0008EB
:100030000B13000800000000314D000823480008A1
:100040004D5000084D5000084D5000080D13000899
:100050001D1300084D500008251300084D500008DE
:100060004D5000084D5000082F1300084D50000857
:100070004D5000084D5000084D500008391300083D
:10008000491300084D5000084D5000084D5000081D
:100090004D5000084D5000084D50000859130008FD
:1000A0004D5000084D5000084D5000084D500008BC
:1000B0004D5000084D5000084D5000084D500008AC
:1000C0004D5000084D5000084D5000084D5000089C
:1000D0004D500008691300087D1300084D500008BA
:1000E000911300084D5000084D5000084D50000875
:1000F0004D5000084D5000084D5000084D5000086C
:100100004D5000084D5000084D5000084D5000085B
:100110004D5000084D5000089D130008AD13000815
:100120004D5000084D5000084D5000084D5000083B
:100130004D5000084D5000084D5000084D5000082B
:100140004D5000084D5000084D5000084D5000081B
:100150004D500008BD130008CD1300084D50000895
:100160004D5000084D5000084D5000084D500008FB
:100170004D5000084D5000084D5000080000000090
:080180004D5000084D5000082D
:1001900010B5054C237833B9044B13B10448AFF3C1
:1001A00000800123237010BD100200200000000019
:1001B0009099000808B5034B1BB103490348AFF3FE
:1001C000008008BD00000000140200209099000883
:1001D000034613F8012B002AFBD1181A0138704787
:1001E00001F0FF01102A2BDB10F0070F08D010F8E8
:1001F000013B013A8B422DD010F0070F42B3F6D1EC
:10020000F0B441EA012141EA014122F007047FF004
:1002100000070023F0E80256083C85EA010586EA5B
:10022000010685FA47F5A3FA87F586FA47F6A5FA97
:1002300087F68EB9EED1F0BC01F0FF0102F00702A3
:1002400032B110F8013B013A83EA010313B1F8D14E
:100250000020704701387047002D06BF354603382F
:10026000073815F0010F07D1013015F4807F02BF68
:10027000013015F4C03F0130F0BC0138704700BFB9
:1002800081F0004102E000BF83F0004330B54FEA47
:1002900041044FEA430594EA050F08BF90EA020FB4
:1002A0001FBF54EA000C55EA020C7FEA645C7FEA47
:1002B000655C00F0E2804FEA5454D4EB5555B8BF6A
:1002C0006D420CDD2C4480EA020281EA030382EADB
:1002D000000083EA010180EA020281EA0303362D6D
:1002E00088BF30BD11F0004F4FEA01314FF4801C40
:1002F0004CEA113102D0404261EB410113F0004F52
:100300004FEA03334CEA133302D0524263EB430308
:1003100094EA050F00F0A780A4F10104D5F1200EA6
:100320000DDB02FA0EFC22FA05F2801841F1000101
:1003300003FA0EF2801843FA05F359410EE0A5F1D5
:1003400020050EF1200E012A03FA0EFC28BF4CF006
:10035000020C43FA05F3C01851EBE37101F00045BC
:1003600007D54FF0000EDCF1000C7EEB00006EEBC9
:100370000101B1F5801F1BD3B1F5001F0CD3490853
:100380005FEA30004FEA3C0C04F101044FEA4452AA
:1003900012F5800F80F09A80BCF1004F08BF5FEA31
:1003A000500C50F1000041EB045141EA050130BD11
:1003B0005FEA4C0C404141EB0101013C28BFB1F523
:1003C000801FE9D291F0000F04BF01460020B1FA6E
:1003D00081F308BF2033A3F10B03B3F120020CDA41
:1003E0000C3208DD02F1140CC2F10C0201FA0CF01F
:1003F00021FA02F10CE002F11402D8BFC2F1200C84
:1004000001FA02F120FA0CFCDCBF41EA0C01904039
:10041000E41AA2BF01EB0451294330BD6FEA040482
:100420001F3C1CDA0C340EDC04F11404C4F120026D
:1004300020FA04F001FA02F340EA030021FA04F37F
:1004400045EA030130BDC4F10C04C4F1200220FAD6
:1004500002F001FA04F340EA0300294630BD21FA14
:1004600004F0294630BD94F0000F83F4801306BFDA
:1004700081F480110134013D4EE77FEA645C18BFCE
:100480007FEA655C29D094EA050F08BF90EA020F65
:1004900005D054EA000C04BF1946104630BD91EA5D
:1004A000030F1EBF0021002030BD5FEA545C05D160
:1004B0004000494128BF41F0004130BD14F580049F
:1004C0003CBF01F5801130BD01F0004545F0FE4113
:1004D00041F470014FF0000030BD7FEA645C1ABF48
:1004E000194610467FEA655C1CBF0B46024650EA7F
:1004F000013406BF52EA033591EA030F41F40021AB
:1005000030BD00BF90F0000F04BF0021704730B530
:100510004FF4806404F132044FF000054FF0000105
:1005200050E700BF90F0000F04BF0021704730B5C6
:100530004FF4806404F1320410F0004548BF40429B
:100540004FF000013EE700BF42004FEAE2014FEAF0
:1005500031014FEA02701FBF12F07F4393F07F4FCB
:1005600081F06051704732F07F4208BF704793F0CE
:100570007F4F04BF41F40021704730B54FF46074E1
:1005800001F0004521F000411CE700BF50EA0102E4
:1005900008BF704730B54FF000050AE050EA01028D
:1005A00008BF704730B511F0004502D5404261EBFD
:1005B00041014FF4806404F132045FEA915C3FF43E
:1005C000D8AE4FF003025FEADC0C18BF03325FEADB
:1005D000DC0C18BF033202EBDC02C2F1200300FA8C
:1005E00003FC20FA02F001FA03FE40EA0E0021FAB1
:1005F00002F11444BDE600BF70B54FF0FF0C4CF49F
:10060000E06C1CEA11541DBF1CEA135594EA0C0F50
:1006100095EA0C0F00F0DEF82C4481EA030621EA8B
:100620004C5123EA4C5350EA013518BF52EA0335C6
:1006300041F4801143F4801338D0A0FB02CE4FF078
:100640000005E1FB02E506F00042E0FB03E54FF0A8
:100650000006E1FB03569CF0000F18BF4EF0010EA0
:10066000A4F1FF04B6F5007F64F5407404D25FEA9C
:100670004E0E6D4146EB060642EAC62141EA55514F
:100680004FEAC52040EA5E504FEACE2EB4F1FD0C91
:1006900088BFBCF5E06F1ED8BEF1004F08BF5FEA0F
:1006A000500E50F1000041EB045170BD06F00046C1
:1006B00046EA010140EA020081EA0301B4EB5C046E
:1006C000C2BFD4EB0C0541EA045170BD41F4801166
:1006D0004FF0000E013C00F3AB8014F1360FDEBF8B
:1006E000002001F0004170BDC4F10004203C35DA67
:1006F0000C341BDC04F11404C4F1200500FA05F3EA
:1007000020FA04F001FA05F240EA020001F000428A
:1007100021F0004110EBD37021FA04F642EB060100
:100720005EEA430E08BF20EAD37070BDC4F10C042A
:10073000C4F1200500FA04F320FA05F001FA04F2EE
:1007400040EA020001F0004110EBD37041F10001DA
:100750005EEA430E08BF20EAD37070BDC4F12005E5
:1007600000FA05F24EEA020E20FA04F301FA05F24D
:1007700043EA020321FA04F001F0004121FA04F2F5
:1007800020EA020000EBD3705EEA430E08BF20EAC5
:10079000D37070BD94F0000F0FD101F000464000FF
:1007A00041EB010111F4801F08BF013CF7D041EA81
:1007B000060195F0000F18BF704703F00046520085
:1007C00043EB030313F4801F08BF013DF7D043EA56
:1007D0000603704794EA0C0F0CEA135518BF95EA0C
:1007E0000C0F0CD050EA410618BF52EA4306D1D193
:1007F00081EA030101F000414FF0000070BD50EAB2
:10080000410606BF1046194652EA430619D094EA3B
:100810000C0F02D150EA013613D195EA0C0F05D125
:1008200052EA03361CBF104619460AD181EA030179
:1008300001F0004141F0FE4141F470014FF0000031
:1008400070BD41F0FE4141F4780170BD70B54FF0CC
:10085000FF0C4CF4E06C1CEA11541DBF1CEA13554C
:1008600094EA0C0F95EA0C0F00F0A7F8A4EB05042E
:1008700081EA030E52EA03354FEA013100F0888025
:100880004FEA03334FF0805545EA131343EA1263EE
:100890004FEA022245EA111545EA10654FEA0026A3
:1008A0000EF000419D4208BF964244F1FD0404F55C
:1008B000407402D25B084FEA3202B61A65EB0305B8
:1008C0005B084FEA32024FF480104FF4002CB6EB75
:1008D000020E75EB030E22BFB61A754640EA0C00F5
:1008E0005B084FEA3202B6EB020E75EB030E22BF35
:1008F000B61A754640EA5C005B084FEA3202B6EB76
:10090000020E75EB030E22BFB61A754640EA9C0034
:100910005B084FEA3202B6EB020E75EB030E22BF04
:10092000B61A754640EADC0055EA060E18D04FEAC2
:10093000051545EA16754FEA06164FEAC30343EA62
:1009400052734FEAC2025FEA1C1CC0D111F4801F2F
:100950000BD141EA00014FF000004FF0004CB6E728
:1009600011F4801F04BF01430020B4F1FD0C88BFC7
:10097000BCF5E06F3FF6AFAEB5EB030C04BFB6EBD2
:10098000020C5FEA500C50F1000041EB045170BDC5
:100990000EF0004E4EEA113114EB5C04C2BFD4EBF2
:1009A0000C0541EA045170BD41F480114FF0000E76
:1009B000013C90E645EA060E8DE60CEA135594EAF2
:1009C0000C0F08BF95EA0C0F3FF43BAF94EA0C0FF5
:1009D0000AD150EA01347FF434AF95EA0C0F7FF46A
:1009E00025AF104619462CE795EA0C0F06D152EABE
:1009F00003353FF4FDAE1046194622E750EA4106A2
:100A000018BF52EA43067FF4C5AE50EA41047FF4B2
:100A10000DAF52EA43057FF4EBAE12E74FF0FF3C17
:100A200006E000BF4FF0010C02E000BF4FF0010CE8
:100A30004DF804CD4FEA410C7FEA6C5C4FEA430C61
:100A400018BF7FEA6C5C1BD001B050EA410C0CBFB0
:100A500052EA430C91EA030F02BF90EA020F002012
:100A6000704710F1000F91EA030F58BF994208BF79
:100A700090422CBFD8176FEAE37040F00100704736
:100A80004FEA410C7FEA6C5C02D150EA013C07D18D
:100A90004FEA430C7FEA6C5CD6D152EA033CD3D0D8
:100AA0005DF8040B704700BF8446104662468C46D2
:100AB0001946634600E000BF01B5FFF7B7FF002805
:100AC00048BF10F1000F01BD4DF808EDFFF7F4FF2E
:100AD0000CBF012000205DF808FB00BF4DF808EDB9
:100AE000FFF7EAFF34BF012000205DF808FB00BFDC
:100AF0004DF808EDFFF7E0FF94BF012000205DF8FE
:100B000008FB00BF4DF808EDFFF7CEFF94BF0120B2
:100B100000205DF808FB00BF4DF808EDFFF7C4FFAB
:100B200034BF012000205DF808FB00BF4FEA410CF4
:100B30007FEA6C5C02D150EA013C0AD14FEA430CD7
:100B40007FEA6C5C02D152EA033C02D14FF0000014
:100B500070474FF0010070474FEA410212F5001252
:100B600015D211D56FF47873B3EB625212D94FEAF4
:100B7000C12343F0004343EA505311F0004F23FADE
:100B800002F018BF404270474FF00000704750EA33
:100B9000013005D111F0004008BF6FF000407047F0
:100BA0004FF00000704700BF4A0011D212F500124A
:100BB00011D20DD56FF47873B3EB62520ED44FEAB5
:100BC000C12343F0004343EA505323FA02F0704735
:100BD0004FF00000704750EA013002D14FF0FF3073
:100BE00070474FF0000070474FEA4102B2F1E04316
:100BF00024BFB3F5001CDCF1FE5C0DD901F0004C04
:100C00004FEAC0024CEA5070B2F1004F40EB830053
:100C100008BF20F00100704711F0804F21D113F17F
:100C20003872BCBF01F00040704741F480114FEAB8
:100C30005252C2F11802C2F1200C10FA0CF320FA41
:100C400002F018BF40F001004FEAC1234FEAD3235E
:100C500003FA0CFC40EA0C0023FA02F34FEA4303C8
:100C6000CCE77FEA625307D150EA01331EBF4FF051
:100C7000FE4040F44000704701F0004040F0FE406C
:100C800040F40000704700BF38B50022002304463E
:100C90000D46FFF723FF28B920462946BDE8384016
:100CA00000F00AB8204605F1004100F005F8404286
:100CB00061EB410138BD00BFD0B50C4B00220646A8
:100CC0000F46FFF799FCFFF76FFF0446FFF71AFC8A
:100CD000074B0022FFF790FC02460B463046394690
:100CE000FFF7D2FAFFF760FF2146D0BD0000F03DCC
:100CF0000000F04108B50268034B9A4200D008BDDD
:100D000000F078FCFBE700BF0014004072B6FEE77D
:100D100000B599B04422002107A804F0D9F90023B6
:100D2000029303930493059306934FF4007001F02C
:100D3000D9FC00283BD1214B9A6D42F080529A6534
:100D40009B6D03F080530093009B1D4A136823F4AE
:100D5000C06343F400731360136803F4C06301932A
:100D6000019B0A2207924FF480730A9301210C9190
:100D700010230B93022311931293139114920722C1
:100D800015921693179307A800F0FCFC88B90F235F
:100D900002930323039300230493059306930421F2
:100DA00002A800F0FDFF30B919B05DF804FBFFF7B1
:100DB000ADFFFFF7ABFFFFF7A9FF00BF0010024038
:100DC0000070004008B500F005FCFFF7A1FF00F03F
:100DD0000DF800F057F900F087F900F047FA03F03A
:100DE0002DFD00F019F903F03BFDFEE72DE9F04F72
:100DF0008DB000240794089409940A940B94774BBF
:100E0000DA6C42F01002DA64DA6C02F0100200923E
:100E1000009ADA6C42F00402DA64DA6C02F004023E
:100E20000192019ADA6C42F08002DA64DA6C02F024
:100E300080020292029ADA6C42F00102DA64DA6C01
:100E400002F001020392039ADA6C42F00202DA64C1
:100E5000DA6C02F002020492049ADA6C42F00802A0
:100E6000DA64DA6C02F008020592059ADA6D42F053
:100E70000102DA65DB6D03F001030693069B584F10
:100E800001220821384601F07AFA012240F203419A
:100E90004FF0904001F073FADFF84CA101220221DB
:100EA000504601F06CFA4F4E01228021304601F08D
:100EB00066FADFF8388101221146404601F05FFAF8
:100EC000402307934FF404150895099407A9404659
:100ED00001F04EF94FF4005307930895099407A9C0
:100EE000384601F045F94FF00809CDF81C9001256E
:100EF000089509944FF0030BCDF828B007A93846A0
:100F000001F036F9CDF81CB008950994CDF828B059
:100F100007A94FF0904001F02BF9302307934FF4CD
:100F200044130893099407A9384601F021F90227D0
:100F30000797089509940A9507A9504601F018F9F2
:100F40004FF480630793089509940A9507A94FF019
:100F5000904001F00DF907950894099707A93046CC
:100F600001F006F9042307930894099707A930466E
:100F700001F0FEF880230793089509940A9507A9C4
:100F8000304601F0F5F80795089509940A9507A9E8
:100F9000404601F0EDF822460521062001F0FCFB59
:100FA000062001F031FC224649460A2001F0F4FBFC
:100FB0000A2001F029FC22460521172001F0ECFB54
:100FC000172001F021FC22460521282001F0E4FB36
:100FD000282001F019FC0DB0BDE8F08F0010024090
:100FE00000080048000C00480004004800100048B9
:100FF00008B5012003F0AEFCFBE708B5012003F0C3
:10100000A9FCFBE708B5012003F0A4FCFBE708B549
:10101000012003F09FFCFBE708B50E4A00210E48B3
:1010200003F03AFC0D4B18600D4A00210D4803F007
:1010300033FC0D4B18600D4A00210D4803F02CFCC9
:101040000C4B18600C4A00210C4803F025FC0C4B9B
:10105000186008BD409A0008F10F0008380200200F
:10106000F8990008FB0F0008300200201C9A0008C5
:101070000510000834020020D49900080F10000861
:101080002C02002000B583B0164B9A6C42F002028D
:101090009A649A6C02F002020092009A9A6C42F0F2
:1010A00001029A649B6C03F001030193019B0022EF
:1010B00005210F2001F070FB0F2001F0A5FB00229D
:1010C0000521102001F068FB102001F09DFB00229B
:1010D0000521452001F060FB452001F095FB03B0A0
:1010E0005DF804FB0010024008B51148114B036085
:1010F000A3F13E53A3F57D23A3F244634360002391
:1011000083600122C260036143618361C361036242
:1011100001F048F928B90021054801F0A7F918B9EC
:1011200008BDFFF7F3FDF6E7FFF7F0FDF8E700BFB6
:101130003C0200200054004000B587B0002301931A
:1011400002930393049305930268104B9A4202D0D2
:1011500007B05DF804FB4FF4407301931223029330
:101160000123039303230493042305930DEB03014D
:10117000074800F0FDFF074B9A6D42F400129A6594
:101180009B6D03F400130093009BE1E700540040C3
:1011900000040048001002400E4B1B68DA6912F090
:1011A000100F00D1704710B510221A62094C20466A
:1011B00001F06DFB636F1B685B68C3F580630649D4
:1011C0004B80012301F8043B4FF48062204601F07C
:1011D00033FE10BD84100020980A00200E4B1B68BF
:1011E000DA6912F0100F00D1704710B510221A62A0
:1011F000094C204601F04BFB636F1B685B68C3F52D
:10120000806306494B80012301F8043B4FF4806260
:10121000204601F011FE10BDFC0F002094060020B6
:101220000F4B1B68DA6912F0100F00D1704710B530
:1012300010221A620A4C204601F029FB636F1B68DA
:101240005B68084A1360C3F5806307494B8001233C
:1012500001F8043B4FF48062204601F0EDFD10BD23
:10126000740F00200C1100209002002000B585B002
:1012700000230193029303930F48104A026041F642
:101280003F72426083604FF6FF72C260836101F07B
:1012900089FF50B900230193039301A9064801F087
:1012A000B1FF28B905B05DF804FBFFF72FFDF1E7AA
:1012B000FFF72CFDF6E700BF3411002000100040BE
:1012C00002680E4B9A4200D0704700B583B003F518
:1012D00000339A6D42F010029A659B6D03F0100383
:1012E0000193019B03220521362001F055FA362097
:1012F00001F08AFA03B05DF804FB00BF0010004063
:10130000FEE7FEE7FEE7FEE7FEE7704708B50248A6
:1013100001F0BAFD08BD00BF1011002008B500F0B3
:101320003BFE08BD08B5012001F02EF808BD08B548
:10133000102001F029F808BD08B5024801F065F950
:1013400008BD00BFE40E002008B5024801F05DF9B9
:1013500008BD00BF2C0F002008B5202001F014F8B4
:10136000402001F011F808BD08B5FFF737FF02482B
:1013700001F02EFB08BD00BFFC0F002008B5FFF7F1
:101380000BFF024801F024FB08BD00BF84100020C1
:1013900008B54FF4005000F0F7FF08BD08B502484B
:1013A00001F0D6FD08BD00BF3411002008B5024889
:1013B00001F0CEFD08BD00BFBC4D002008B50248BD
:1013C00001F023F908BD00BF9C0E002008B5FFF70F
:1013D00027FF024801F0FCFA08BD00BF740F00208F
:1013E00000B583B0114B1A6E42F001021A661A6EF4
:1013F00002F001020092009A9A6D42F080529A65C2
:101400009B6D03F080530193019B00220F216FF02D
:10141000010001F0C1F900220521042001F0BCF90E
:10142000042001F0F1F903B05DF804FB0010024064
:101430000120704708B503F00BFE162303604FF040
:10144000FF3008BD08B54FF0FF31FFF7F3FFFEE7AF
:1014500070B50C461646002506E0AFF30080214625
:1014600001F8010B01350C46B542F6DB304670BD84
:1014700010464FF0000C0AE000BF4FF060431B68BD
:10148000002BF9D04FF060431A700CF1010C844529
:1014900010DA11F8012B4FF06043D3F8803E13F0BF
:1014A000010FF2D04FF06043D3F8003E13F0010F6C
:1014B000E3D1EAE77047000008B503460B4A12681B
:1014C00042B10A4A106803446A46934206D8074A62
:1014D000136008BD054A06491160F2E703F0B8FD44
:1014E0000C2303604FF0FF30F3E700BF80110020B2
:1014F000184E00204FF0FF3070474FF400534B6000
:101500000020704701207047002070470378012BAE
:1015100003D04378012B15D07047002303700B785C
:10152000032BF9D8DFE803F005080B0200230B704A
:10153000704701230B70704700230B707047002326
:101540000B707047002343700B78012B09D0032BDD
:1015500004D0002BE0D102230B70704702230B70E4
:10156000704702230B70D7E708B54FF400511448B9
:1015700000F0FEFE20B94021124800F0F9FE80B1D3
:101580004FF400510E4800F0F3FE58B140210D48D1
:1015900000F0EEFE68B10C4B19680C4B1868FFF7B1
:1015A000B5FF08BD0A4B01221A70C82000F034F8BC
:1015B000ECE7074B01225A70C82000F02DF8EAE74B
:1015C000000800480010004800000020080000202B
:1015D0008411002010B5032001F0CCF80F2003F097
:1015E000BDFC10B10124204610BD0446FFF7F8FEF3
:1015F000F9E70000034B1B78034A11680B441360A2
:10160000704700BF0C00002088110020014B1868B3
:10161000704700BF8811002038B50446FFF7F6FF79
:101620000546B4F1FF3F02D0044B1B781C44FFF782
:10163000EDFF401BA042FAD338BD00BF0C000020D4
:1016400030B583B00446204B9B6D13F0805F0BD008
:1016500001F040F8B0F5007F17D0802C1FD82DD0B6
:10166000702C2DD000211BE0174DAB6D43F0805343
:10167000AB65AB6D03F080530193019B01F02AF839
:10168000AB6D23F08053AB65E4E7802C03D9A02C2D
:1016900003D9022104E0002102E0012100E003213E
:1016A0000A4A136823F007030B431360136803F01F
:1016B00007038B4206D1002003B030BD0221EFE7C3
:1016C0000121EDE70120F7E7001002400020024071
:1016D000284A9368D26802F0030213F00C030AD080
:1016E0000C2B06D0042B1FD0082B20D00020024644
:1016F00010E0012AF6D11F4A126812F0080F0CD12F
:101700001C4AD2F89420C2F303221B4951F822202C
:1017100043B100200C2B0DD07047164A1268C2F35B
:101720000312F2E71046F5E714480022F2E71448E6
:101730000022EFE70F4BDB6803F00303022B16D008
:10174000032B00D10E4A0B49C868C0F30210431C9A
:10175000C868C0F3062002FB00F0B0FBF3F0CB68D2
:10176000C3F3416301335B00B0FBF3F0D4E7034AFA
:10177000E9E700BF001002407C9A00080024F40052
:1017800000127A00002800F0F182F0B583B0044620
:10179000964B9D6805F00C05DE6806F003060368AD
:1017A00013F0100F5AD0E5B10C2D18D0A369002BFF
:1017B00000F0BB808D4A136843F001031360FFF70C
:1017C00025FF0746894B1B6813F0020F40F09A80F3
:1017D000FFF71CFFC01B0228F4D90320D1E2012E21
:1017E000E4D1824B1B6813F0020F03D0A369002BD6
:1017F00000F0BE82206A7D4B1B6813F0080F5BD09F
:101800007A4B1B6803F0F00398425CD8774B1A6858
:1018100042F008021A601A6822F0F002216A0A43B4
:101820001A605A6822F47F42E16942EA01225A6052
:10183000002D60D0FFF74CFF6C4B9B68C3F3031384
:101840006B4AD35C03F01F03D8406A4B18606A4BA5
:10185000186803F083FB002840F09382236813F09C
:10186000010F00F08180082D75D00C2D71D06368B8
:10187000B3F5803F00F09780B3F5A02F00F099807A
:101880005A4B1A6822F480321A601A6822F48022B5
:101890001A606368002B00F09980FFF7B7FE0746D7
:1018A000524B1B6813F4003F5ED1FFF7AFFEC01B25
:1018B0006428F5D9032064E24C4BD3F894301B091B
:1018C00003F0F003A0E7FFF7BBFE002840F05282D0
:1018D000464B1A6842F008021A601A6822F0F002B9
:1018E000216A0A431A605A6822F47F42E16942EA97
:1018F00001225A609EE7206AFFF7A2FE002899D0D5
:1019000001203EE2394B1A6842F008021A601A6858
:1019100022F0F002216A0A431A605A6822F47F42D8
:10192000E16942EA01225A6098E7304A136823F0DD
:1019300001031360FFF76AFE07462C4B1B6813F088
:10194000020F8BD0FFF762FEC01B0228F5D90320DF
:1019500017E2032E8BD1254B1B6813F4003F03D0F5
:101960006368002B00F00882236813F0020F58D040
:10197000042D45D00C2D41D0E368002B77D01B4AB5
:10198000136843F480731360FFF740FE0646174B5D
:101990001B6813F4806F61D1FFF738FE801B0228AB
:1019A000F5D90320EDE1114A136843F48033136045
:1019B0006FE703F18043A3F53C331A6842F48022B9
:1019C0001A601A6842F480321A6062E7FFF71EFE5E
:1019D0000746064B1B6813F4003FC5D0FFF716FE01
:1019E000C01B6428F5D90320CBE100BF00100240E2
:1019F000649A00083400002010000020022EBBD1A1
:101A0000A34B1B6813F4806F03D0E368002B00F036
:101A1000B5819F4A536823F0F853216943EA016373
:101A20005360236813F0080F4CD063699BB3984A46
:101A3000D2F8943043F00103C2F89430FFF7E6FD8A
:101A40000646934BD3F8943013F0020F3AD1FFF7C8
:101A5000DDFD801B0228F4D9032092E18C4A5368F3
:101A600023F0F853216943EA01635360D9E7884AB8
:101A7000136823F480731360FFF7C8FD0646844B98
:101A80001B6813F4806FCCD0FFF7C0FD801B0228C9
:101A9000F5D9032075E17E4AD2F8943023F0010392
:101AA000C2F89430FFF7B2FD0646794BD3F8943074
:101AB00013F0020F06D0FFF7A9FD801B0228F4D90E
:101AC00003205EE1236813F0040F7AD0704B9B6D06
:101AD00013F0805F36D16E4B9A6D42F080529A655A
:101AE0009B6D03F080530193019B0126694B1B689A
:101AF00013F4807F28D0A368012B39D0052B3FD069
:101B0000634BD3F8902022F00102C3F89020D3F861
:101B1000902022F00402C3F89020A368002B3DD04F
:101B2000FFF774FD07465A4BD3F8903013F0020FBD
:101B300046D1FFF76BFDC01B41F288339842F2D9C2
:101B400003201EE10026D1E7524A136843F4807354
:101B50001360FFF75BFD07464E4B1B6813F4807F55
:101B6000C9D1FFF753FDC01B0228F5D9032008E1B6
:101B7000474AD2F8903043F00103C2F89030CCE7E6
:101B8000434BD3F8902042F00402C3F89020D3F8DE
:101B9000902042F00102C3F89020BEE7FFF736FD27
:101BA00007463B4BD3F8903013F0020F08D0FFF7F5
:101BB0002DFDC01B41F288339842F2D90320E0E0AA
:101BC000EEB9A36A002B00F0DB80022B1DD00C2D98
:101BD00000F0DD802E4A136823F080731360FFF756
:101BE00015FD04462A4B1B6813F0007F00F0B780F8
:101BF000FFF70CFD001B0228F4D90320C1E0244AA2
:101C0000936D23F080539365DBE7214BDB6803F092
:101C10000301E26A91420FD00C2D00F0B4801C4BFE
:101C20001B6813F0806F40F0B080194B1B6813F0F5
:101C3000805F31D00120A4E003F07002216B0139F4
:101C4000B2EB011FE8D103F4FE42616BB2EB012F4E
:101C5000E2D103F40031A26B073A18BF012291428E
:101C6000DAD103F4C001E26B5208013AB1EB425FF2
:101C7000D2D103F0C063226C5208013AB3EB426F39
:101C8000CAD1034B1B6813F0007F4ED0002078E0D0
:101C900000100240007000403E4A136823F0807339
:101CA0001360FFF7B3FC05463A4B1B6813F0007F47
:101CB00006D0FFF7ABFC401B0228F5D9032060E0FB
:101CC000344AD36834491940E36A206B013843EA47
:101CD0000013606B43EA0023E06B4008013843EADD
:101CE0004053206C4008013843EA4063A06B000970
:101CF00043EA40430B43D360136843F0807313609F
:101D0000D36843F08073D360FFF780FC0446214B17
:101D10001B6813F0007F06D1FFF778FC001B022838
:101D2000F5D903202DE000202BE01A4B1A6842F071
:101D300080721A60DA6842F08072DA60FFF766FC3F
:101D40000446144B1B6813F0007F06D1FFF75EFCBE
:101D5000031B022BF5D9032013E0002011E00D4AEC
:101D6000D1680E4B0B40D36000200AE00120704781
:101D7000012006E0012004E0012002E0012000E053
:101D8000002003B0F0BD0120FBE70120F9E70120AE
:101D9000F7E700BF001002408C809DF9FCFFEEFECB
:101DA000002800F0AF8070B50D460446594B1B6803
:101DB00003F007038B420BD2564A136823F0070344
:101DC0000B431360136803F007038B4240F09C80C1
:101DD000236813F0020F0CD0A2684F4B9B6803F0EE
:101DE000F0039A4205D94C498B6823F0F0031A435B
:101DF0008A60236813F0010F39D06368032B09D080
:101E0000022B26D063BB444A126812F0020F06D19F
:101E1000012076E0404A126812F0007F76D03E49F9
:101E20008A6822F0030213438B60FFF7EFFB06463C
:101E3000394B9B6803F00C036268B3EB820F16D03A
:101E4000FFF7E4FB801B41F288339842F0D903206E
:101E500057E0314A126812F4003FE0D1012050E00F
:101E60002D4A126812F4806FD9D1012049E023680D
:101E700013F0020F0CD0A268274B9B6803F0F0030D
:101E80009A4205D224498B6823F0F0031A438A60F2
:101E9000204B1B6803F00703AB420AD91D4A1368A5
:101EA00023F007032B431360136803F00703AB42CF
:101EB0002ED1236813F0040F06D0174A936823F439
:101EC000E063E1680B439360236813F0080F07D0C9
:101ED000114A936823F46053216943EAC103936074
:101EE000FFF7F6FB0C4B9B68C3F303130B4AD35C61
:101EF00003F01F03D8400A4B18600A4B186803F020
:101F00002DF870BD012070470120FAE70120F8E7A5
:101F10000120F6E70020024000100240649A000809
:101F20003400002010000020014B1868704700BFEB
:101F30003400002008B5FFF7F7FF054B9B68C3F39B
:101F40000223044AD35C03F01F03D84008BD00BF3E
:101F500000100240749A00080F2303600B4B9A682C
:101F600002F0030242609A6802F0F00282609A680E
:101F700002F4E062C2609B68DB0803F4E063036183
:101F8000034B1B6803F007030B607047001002400F
:101F9000002002407047704710B5494A536923F446
:101FA000FF6323F007035361536923F40043536134
:101FB000444B1B7ADBB2042B25D0414B1B694CF2FE
:101FC000FA32134024D13E4B1B6913F0010F60D04D
:101FD0003B4B01221A613B4B1B7ADBB293424AD145
:101FE000384B9A69013A9A619B69002B37D0354C7E
:101FF0006069FFF7CFFF636901336361606921693D
:1020000000F062F845E0536923F480235361D4E77C
:102010002C4C62681A436260294A136100F076F81A
:10202000237ADBB2012B0CD0022B0ED0033BDBB2A8
:10203000012B0FD90020FFF7AEFF224B00221A72AE
:10204000C1E76069FFF7A7FFF7E71E4B1869FFF7C5
:10205000A2FFF2E71B4BD868FFF79DFFEDE7194C95
:102060004FF0FF3363610023237200F04FF8606983
:10207000FFF790FF0DE000F049F8124B1B7ADBB23E
:10208000022B12D0033BDBB2012B13D90D4B0022E4
:102090001A720C4B1B7A3BB9094A536923F04073FF
:1020A0005361084B00221A7010BD064B1869FFF7E8
:1020B00071FFEBE7034BD868FFF76CFFE6E700BF63
:1020C000002002401400002011F0010F16D00E4A2B
:1020D000536923F4006353610B4B5A6922F4FF6286
:1020E000C00000F4FF60104358615A6942F00202D8
:1020F0005A615A6942F480325A617047024A536900
:1021000043F400635361E7E700200240164B1B7F56
:10211000DBB2012B01D0032B10D1144A116821F43A
:1021200000711160116841F400611160116821F4BF
:1021300000611160116841F400711160023BDBB273
:10214000012B03D9084B00221A777047074B1A68F6
:1021500042F480521A601A6822F480521A601A6897
:1021600042F480621A60EDE7140000200020024073
:10217000F0B583B000236BE085685E000324B440B3
:1021800025EA0405CC68B4402C438460456825EA00
:102190000C054C68C4F300149C402C43446069E077
:1021A000C56A25EA0C0CC4F3C0049C4044EA0C0444
:1021B000C46265E0DD08083550F8256003F00704C7
:1021C0004FEA840C0F2404FA0CF426EA040E0C697E
:1021D00004FA0CF444EA0E0440F8254067E00624B3
:1021E00000E0002404FA0EF42C430CF1020C5C4DC8
:1021F00045F82C405B4CA568D44325EA02064F689D
:1022000017F4801F01D042EA0506564DAE60ED6816
:1022100004EA05064F6817F4001F01D042EA0506DC
:10222000504DEE606D6804EA05064F6817F4003FF4
:1022300001D042EA05064B4D6E602D682C404E6879
:1022400016F4803F01D042EA0504464A1460013387
:102250000A6832FA03F400F081804FF0010C0CFAA6
:1022600003FC1CEA0202F2D04C6804F00304013CB7
:10227000012C81D94C6804F0030EBEF1030F8FD0FE
:102280004C6804F00304032C0CD0C4685D004FF0CC
:10229000030C0CFA05FC24EA0C0C8C68AC4044EAF4
:1022A0000C04C4604C6804F00304022C82D004685F
:1022B0004FEA430E4FF0030C0CFA0EFC24EA0C0C10
:1022C0004C6804F0030404FA0EF444EA0C040460BD
:1022D0004C6814F4403FBAD0234C256E45F00105FC
:1022E0002566246E04F001040194019C4FEA930CCE
:1022F0000CF102051A4C54F8255003F003044FEA80
:10230000840E0F2404FA0EF425EA0405B0F1904F70
:102310003FF467AF154CA04216D004F58064A0428C
:1023200014D004F58064A04212D004F58064A04269
:1023300010D004F58064A0420ED004F58064A04261
:102340003FF44DAF07244DE701244BE7022449E752
:10235000032447E7042445E7052443E703B0F0BD21
:102360000000014000040140001002400004004849
:102370000369194201D001207047002070470AB15B
:10238000816170478162704708B5054B5B69034204
:1023900000D108BD024B5861FFF7E6F8F9E700BF2E
:1023A0000004014000285FD010B5044690F8413089
:1023B000002B48D0242384F841302268136823F08E
:1023C000010313606368226823F07063136122685D
:1023D000936823F400439360E368012B38D0A3682B
:1023E000226843F404439360E368022B36D02268EA
:1023F000536823F4006353602268536843F000730A
:1024000043F4004353602268D36823F40043D3604D
:10241000236962691343A169226843EA0123D360F7
:10242000E369216A22680B4313602268136843F052
:102430000103136000206064202384F8413020638E
:1024400084F8420010BD80F84030FEF775FEB1E719
:10245000A368226843F400439360C5E72268536889
:1024600043F400635360C7E70120704790F84130A0
:10247000DBB2202B24D190F84030012B22D0012355
:1024800080F84030242380F841300268136823F03C
:10249000010313600268136823F480531360026819
:1024A0001368194311600268136843F00103136055
:1024B000202380F84130002380F8403018467047D0
:1024C000022070470220704730B4446C04F01C0CAA
:1024D000012404FA0CF4056C6C6004686360836882
:1024E000102B05D0036899600368DA6030BC704730
:1024F00003689A600368D960F8E738B5044690F835
:102500002400012832D0012084F8240094F825000A
:10251000C0B2012804D0002384F82430022038BD42
:10252000022084F825000020E0632568286820F058
:10253000010028602046FFF7C7FF236B5BB12268CC
:10254000136843F00E0313602268136843F001031D
:1025500013600020E3E72268136823F0040313608C
:102560002268136843F00A031360EDE70220D6E700
:1025700090F82530DBB2022B06D00423C36300237E
:1025800080F82430012070470268136823F00E039E
:1025900013600268136823F001031360436C03F0B7
:1025A0001C03016C012202FA03F34B6080F8252022
:1025B000002380F824301846704708B590F825307D
:1025C000DBB2022B03D00423C363012008BD0268E1
:1025D000136823F00E0313600268136823F00103ED
:1025E0001360436C03F01C03016C012202FA03F335
:1025F0004B6080F82520002380F82430836B13B1D2
:1026000098470020E2E70020E0E738B5036C19683E
:1026100004682568436C03F01C0304229A400A42B4
:1026200015D015F0040F12D0236813F0200F03D13A
:10263000236823F004032360436C03F01C02016C45
:10264000042393404B60036B03B1984738BD0222CB
:102650009A400A421CD015F0020F19D0236813F0DB
:10266000200F06D1236823F00A032360012380F89A
:102670002530436C03F01C02016C022393404B6035
:10268000002380F82430C36A002BDFD09847DDE7B1
:10269000082202FA03F30B42D8D015F0080FD5D068
:1026A000236823F00E032360436C03F01C03016CCA
:1026B000012202FA03F34B60C26380F82520002355
:1026C00080F82430436B002BC0D09847BEE7C06B26
:1026D00070470000024B186800F4C060704700BFEC
:1026E00000700040B0F5007F0FD01F4B1B6803F453
:1026F000C063B3F5806F34D01B4A136823F4C06302
:1027000043F48063136000207047174B1B6803F489
:10271000C063B3F5007F20D0134A136823F4C0636D
:1027200043F400731360114B1B68322202FB03F366
:102730000F4AA2FB03239B0C013300E0013B0A4A32
:10274000526912F4806F01D0002BF7D1064B5B6900
:1027500013F4806F03D100207047002070470320DE
:1027600070470020704700BF007000403400002018
:1027700083DE1B43074AD36823F4E0631B041B0C6E
:10278000000200F4E060034343F0BF6343F400330E
:10279000D360704700ED00E000B5194BDB68C3F370
:1027A0000223C3F1070CBCF1040F28BF4FF0040C47
:1027B00003F1040EBEF1060F18D9033B4FF0FF3EA4
:1027C0000EFA0CFC21EA0C0199400EFA03F322EAFE
:1027D0000303194300280BDB0901C9B200F1604073
:1027E00000F5614080F800135DF804FB0023E5E785
:1027F00000F00F000901C9B2024B1954F4E700BF01
:1028000000ED00E014ED00E0002807DB00F01F02FF
:10281000400901239340024A42F82030704700BF2C
:1028200000E100E0026852E8003F23F0C00342E804
:1028300000310029F6D12023C3677047026852E8AF
:10284000003F23F4907342E800310029F6D102687A
:1028500002F1080353E8003F23F00103083242E885
:1028600000310029F3D1036E012B06D02023C0F8DC
:1028700080300023036683667047026852E8003F99
:1028800023F0100342E800310029F6D1EEE738B515
:102890000446C26FD0F8805003689B6813F0800F25
:1028A00001D0212A08D023689B6813F0400F42D042
:1028B000222D20D000203FE0226802F1080353E8D7
:1028C000003F23F08003083242E800310029F3D1B1
:1028D000206F10B1FFF74CFE18B92046FFF7A2FF9A
:1028E000E1E7206FFFF7F3FE2028F6D11023C4F8AC
:1028F0008430032020E0226802F1080353E8003FFF
:1029000023F04003083242E800310029F3D1606F20
:1029100010B1FFF72DFE20B92046FFF78FFF0020F2
:102920000AE0606FFFF7D3FE2028F5D11023C4F82A
:102930008430032000E0002038BD704708B50268ED
:1029400052E8003F23F0400342E800310029F6D16D
:102950002023C3670023C366FFF7EFFF08BD70475E
:102960007047704738B5846AE26FD4F880502368A6
:102970009B6813F0800F01D0212A10D023689B6838
:1029800013F0400F01D0222D10D0D4F8843043F042
:102990001003C4F884302046FFF7E3FF38BD00235E
:1029A000A4F852302046FFF73DFFE7E70023A4F8E4
:1029B0005A302046FFF742FFE7E708B5806A002358
:1029C000A0F85A30A0F85230FFF7CBFF08BD70478F
:1029D00070B504460168CB6908688D6840F60F023F
:1029E0001A4005D113F0200F02D010F0200F20D193
:1029F0002AB115F0010222D1AD4E30421FD1226E14
:102A0000012A00F0AB8013F4801F03D015F4800F6F
:102A100040F0528113F0800F03D010F0800F40F08F
:102A2000528113F0400F03D010F0400F40F052815C
:102A300070BDA36E002BFBD020469847F8E713F03B
:102A4000010F09D010F4807F06D001250D62D4F863
:102A500084102943C4F8841013F0020F09D042B146
:102A6000216802250D62D4F8841041F00401C4F8F5
:102A7000841013F0040F09D042B1216804250D62BF
:102A8000D4F8841041F00201C4F8841013F0080F48
:102A90000BD010F0200F00D13AB12268082111624A
:102AA000D4F884200A43C4F8842013F4006F0CD0B7
:102AB00010F0806F09D022684FF400611162D4F8E1
:102AC000842042F02002C4F88420D4F88420002A14
:102AD000AED013F0200F06D010F0200F03D0A36E5D
:102AE0000BB120469847D4F8842023689B6813F0E4
:102AF000400F02D112F0280F29D02046FFF79EFE8A
:102B000023689B6813F0400F1DD0226802F1080370
:102B100053E8003F23F04003083242E80031002927
:102B2000F3D1636F5BB1634A9A63606FFFF745FD52
:102B300000283FF47DAF606F836B984778E72046AD
:102B4000FFF70FFF74E72046FFF70BFF70E7204603
:102B5000FFF707FF0023C4F8843069E713F0100F74
:102B60003FF451AF10F0100F3FF44DAF10230B6244
:102B700023689B6813F0400F5FD0616F0A68536849
:102B80009BB2002B49D0B4F85800984245D9A4F81C
:102B90005A300B681B6813F0200F31D1226852E8BD
:102BA000003F23F4807342E800310029F6D1226807
:102BB00002F1080353E8003F23F00103083242E822
:102BC00000310029F3D1226802F1080353E8003FE5
:102BD00023F04003083242E800310029F3D12023DA
:102BE000C4F8803000232366226852E8003F23F0B7
:102BF000100342E800310029F6D1606FFFF7B8FCFE
:102C000002236366B4F85810B4F85A309BB2C91A5C
:102C100089B22046FFF7DBFE0AE7B4F85810994264
:102C20007FF406AF136813F0200F3FF401AF0223C7
:102C300063662046FFF7CBFEFAE6B4F85810B4F806
:102C40005A309BB2C91A89B2B4F85A309BB2002BE1
:102C50003FF4EEAE00293FF4EBAE226852E8003FAD
:102C600023F4907342E800300028F6D1226802F184
:102C7000080353E8003F23F00103083242E8003024
:102C80000028F3D12023C4F8803000232366A366F4
:102C9000226852E8003F23F0100342E80030002889
:102CA000F6D1022363662046FFF791FEC0E600BF1F
:102CB00020010004BB2900084FF480130B6220465A
:102CC00000F0E0F8B4E6E36E002B3FF4B1AE20462E
:102CD0009847ADE62046FFF731FEA9E608B5806AC1
:102CE00001234366036E012B02D0FFF739FE08BDB6
:102CF000B0F858104908FFF76AFEF8E708B5034630
:102D0000806A1B681B6813F0200F29D10023A0F8EC
:102D10005A30026852E8003F23F4807342E80031E1
:102D20000029F6D1026802F1080353E8003F23F0BE
:102D30000103083242E800310029F3D1026802F1B0
:102D4000080353E8003F23F04003083242E8003113
:102D50000029F3D12023C0F88030036E012B07D067
:102D600000234366036E012B0CD0FFF7F8FD08BD6E
:102D7000026852E8003F23F0100342E800310029C6
:102D8000F6D1EDE7B0F85810FFF721FEEFE70000AD
:102D900010B5044613464165A0F858200022C0F83B
:102DA00084202222C0F88020426F8AB11F49D1625C
:102DB000426F1F491163426F1E495163426F0021E8
:102DC00091630168426D2431406FFFF796FB20BB91
:102DD000236943B1226852E8003F43F4807342E81C
:102DE00000310029F6D1226802F1080353E8003FC0
:102DF00043F00103083242E800310029F3D1226890
:102E000002F1080353E8003F43F04003083242E870
:102E100000310029F3D1002010BD1023C4F8843004
:102E20002023C4F880300120F6E700BFFD2C000805
:102E3000DD2C00086529000838B5D0F88030202B3B
:102E400017D1C1B1CAB10023036603680C4CA34279
:102E50000CD05B6813F4000F08D0046854E8003FFE
:102E600043F0806344E80035002DF6D1FFF790FF72
:102E700000E0022038BD0120FCE70120FAE700BF96
:102E8000008000407047704710B504460A4B4FF46D
:102E900080125A610368DA6812F4806F03D101234B
:102EA00084F8213010BDDA68D2B262F49062DA6040
:102EB000FFF7E9FFF3E700BF0004014090F83D3061
:102EC000DBB2012B36D1022380F83D300268D36893
:102ED00043F00103D3600368194A93421CD0B3F155
:102EE000804F19D0A2F59432934215D002F580623A
:102EF000934211D002F5806293420DD002F59432D4
:102F0000934209D002F54062934205D01A6842F01C
:102F100001021A600020704799680A4A0A40062A8E
:102F20000AD0B2F5803F09D01A6842F001021A6057
:102F30000020704701207047002070470020704734
:102F4000002C014007000100704770477047704730
:102F500070B504460368DE681D6915F0020F10D0D5
:102F600016F0020F0DD06FF002021A6101230377F1
:102F700003689B6913F0030F64D0FFF7E6FF00239B
:102F8000237715F0040F12D016F0040F0FD023682A
:102F90006FF004021A610223237723689B6913F4FC
:102FA000407F55D02046FFF7D0FF0023237715F050
:102FB000080F12D016F0080F0FD023686FF0080228
:102FC0001A61042323772368DB6913F0030F46D0CB
:102FD0002046FFF7BAFF0023237715F0100F12D019
:102FE00016F0100F0FD023686FF010021A6108233B
:102FF00023772368DB6913F4407F37D02046FFF73F
:10300000A4FF0023237715F0010F02D016F0010F63
:1030100033D115F4025F02D016F0800F35D115F4CC
:10302000807F02D016F0800F37D115F0400F02D00C
:1030300016F0400F39D115F0200F02D016F0200FF6
:103040003BD170BDFFF780FF2046FFF77FFF96E77B
:103050002046FFF779FF2046FFF778FFA5E72046D7
:10306000FFF772FF2046FFF771FFB4E72046FFF736
:103070006BFF2046FFF76AFFC3E723686FF001028A
:103080001A612046FDF736FEC3E723686FF402524B
:103090001A61204600F003F9C1E723686FF48072DB
:1030A0001A61204600F0FCF8BFE723686FF0400289
:1030B0001A612046FFF74BFFBDE723686FF020023F
:1030C0001A61204600F0EAF8BBE700000368344AC2
:1030D000904212D0B0F1804F0FD0A2F594329042BE
:1030E0000BD002F58062904207D002F580629042D8
:1030F00003D002F59432904203D123F070034A6862
:103100001343274A90421ED0B0F1804F1BD0A2F546
:103110009432904217D002F58062904213D002F5AB
:10312000806290420FD002F5943290420BD002F5AB
:103130004062904207D002F58062904203D002F5CF
:103140008062904203D123F44073CA68134323F092
:1031500080034A69134303608B68C3620B68836210
:103160000F4B98420FD003F5006398420BD003F544
:103170004063984207D003F58063984203D003F57B
:103180008063984201D10B690363012343610369A2
:1031900013F0010F03D0036923F0010303617047AB
:1031A000002C014060B310B5044690F83D3013B3D5
:1031B000022384F83D30214651F8040BFFF786FFC7
:1031C000012384F8483084F83E3084F83F3084F896
:1031D000403084F8413084F8423084F8433084F839
:1031E000443084F8453084F8463084F8473084F819
:1031F0003D30002010BD80F83C30FEF761F8D7E785
:103200000120704790F83C30012B42D030B40123AC
:1032100080F83C30022380F83D300268536894689F
:103220001D4DAA4203D005F50065AA4203D123F43F
:1032300070034D682B4323F070030D682B435360DC
:103240000368154A934216D0B3F1804F13D0A2F50C
:10325000943293420FD002F5806293420BD002F574
:103260008062934207D002F59432934203D002F574
:103270004062934204D124F080048A6814439C6025
:10328000012380F83D30002380F83C30184630BCE4
:1032900070470220704700BF002C01407047704704
:1032A00070470000034AD2F8883043F47003C2F834
:1032B0008830704700ED00E000F1080343604FF0F4
:1032C000FF328260C3600361002303607047002304
:1032D0000361704743684B609A688A6051609960E7
:1032E0000861036801330360704730B40D68B5F1BD
:1032F000FF3F11D000F108031C465B681A68AA4220
:10330000FAD963684B6099608C60616008610368FA
:103310000133036030BC70470469F2E70369416818
:1033200082688A60416851605A68824206D00022F1
:1033300002611A68013A1A601868704782685A6018
:10334000F5E710B5044601F0B5FCA26BE36B9A42B9
:1033500004D0002401F0D0FC204610BD0124F9E780
:1033600010B5044601F0A6FCA36B23B9012401F0BB
:10337000C3FC204610BD0024F9E770B5044615468D
:10338000866B026C5AB903681BB100200136A66334
:1033900070BD806800F0D4FF0023A360F6E76DB92C
:1033A000406801F087FE226C636813446360A26882
:1033B000934219D3236863602846E7E7C06801F0A9
:1033C00079FE226C5142E3689B1AE36022689342C3
:1033D00002D2A3680B44E360022D01D00020D5E7A0
:1033E00026B1013E0020D1E72846CFE70020CDE7F7
:1033F0000346026C6AB110B50846D9681144D96019
:103400009C68A14201D31968D960D96801F052FEC5
:1034100010BD704738B5054601F04CFC95F84540A5
:1034200064B201E0013C64B2002C0ADD6B6A43B176
:1034300005F1240000F0DAFE0028F3D000F06AFF66
:10344000F0E7FF2385F8453001F056FC01F032FC2F
:1034500095F8444064B201E0013C64B2002C0ADDFE
:103460002B6943B105F1100000F0C0FE0028F3D035
:1034700000F050FFF0E7FF2385F8443001F03CFCFA
:1034800038BD38B5E0B10D46044601F013FC2368A1
:10349000E26B216C01FB0230A0600020A06363603E
:1034A000013A02FB0133E360FF2384F8443084F8DF
:1034B0004530FDB9236963B901F01EFC012038BD18
:1034C0004FF0500383F31188BFF36F8FBFF34F8F1B
:1034D000FEE704F1100000F089FE0028ECD04FF068
:1034E000E0234FF08052C3F8042DBFF34F8FBFF39A
:1034F0006F8FE1E704F11000FFF7DEFE04F1240016
:10350000FFF7DAFED8E738B51D46049C0B4649B9EB
:103510002460E063236401212046FFF7B2FF84F8B2
:103520004C5038BD2260F4E740B94FF0500383F3AC
:103530001188BFF36F8FBFF34F8FFEE710B584B0D4
:103540001C46844653B192B189B94FF0500383F3BE
:103550001188BFF36F8FBFF34F8FFEE74FF050031B
:1035600083F31188BFF36F8FBFF34F8FFEE76AB10C
:1035700050230393039B502B13D04FF0500383F33E
:103580001188BFF36F8FBFF34F8FFEE70029EFD095
:103590004FF0500383F31188BFF36F8FBFF34F8F4A
:1035A000FEE7039B012384F8463000949DF8183011
:1035B0006046FFF7A8FF204604B010BDF0B585B007
:1035C000019288B10F461D460446B1B1022D20D1AB
:1035D000E36B012B1DD04FF0500383F31188BFF331
:1035E0006F8FBFF34F8FFEE74FF0500383F31188C7
:1035F000BFF36F8FBFF34F8FFEE7036C002BE5D057
:103600004FF0500383F31188BFF36F8FBFF34F8FD9
:10361000FEE700F085FE064658B9019B002B48D016
:103620004FF0500383F31188BFF36F8FBFF34F8FB9
:10363000FEE700263DE02A4639462046FFF79DFE7C
:10364000636A7BB948B14FF0E0234FF08052C3F872
:10365000042DBFF34F8FBFF36F8F01F04DFB01209F
:1036600005B0F0BD04F1240000F0C0FD0028F4D046
:103670004FF0E0234FF08052C3F8042DBFF34F8F7B
:10368000BFF36F8FE9E701F037FB0020E8E702A8FE
:1036900000F0F2FD012619E0002384F8443021E017
:1036A000002384F8453023E02046FFF7B3FE00F006
:1036B0007DFC01F0FFFAA26BE36B9A42BBD3022DB3
:1036C000B9D0019B002BDED0002EE0D001F014FB1E
:1036D00000F0D2FB01F0EEFA94F8442052B2B2F1BD
:1036E000FF3FD9D094F8452052B2B2F1FF3FD7D076
:1036F00001F002FB01A902A800F0CAFDD8B92046DA
:10370000FFF71FFE0028CFD0019904F1100000F050
:1037100039FD2046FFF77EFE00F048FC0028C8D1A6
:103720004FF0E0234FF08052C3F8042DBFF34F8FCA
:10373000BFF36F8FBDE72046FFF76CFE00F036FC4D
:1037400000208DE72DE9F84390B10F4616461C4640
:103750000546B1B1022C20D1EB6B012B1DD04FF0EF
:10376000500383F31188BFF36F8FBFF34F8FFEE7D2
:103770004FF0500383F31188BFF36F8FBFF34F8F68
:10378000FEE7036C002BE5D04FF0500383F3118864
:10379000BFF36F8FBFF34F8FFEE701F0B1FBEFF385
:1037A00011894FF0500383F31188BFF36F8FBFF37C
:1037B0004F8FAA6BEB6B9A4206D3022C04D00020E9
:1037C00089F31188BDE8F88395F845804FFA88F8A9
:1037D000AB6B224639462846FFF7CFFDB8F1FF3FD5
:1037E00006D008F101035BB285F845300120E7E718
:1037F0006B6A0BB90120E3E705F1240000F0F6FC49
:1038000018B126B101203060DAE70120D8E70120A5
:10381000D6E7F0B585B0019290B10F460446C1B12C
:1038200000F07EFD064600BB019B002B5ED04FF0F2
:10383000500383F31188BFF36F8FBFF34F8FFEE701
:103840004FF0500383F31188BFF36F8FBFF34F8F97
:10385000FEE7036C002BE3D04FF0500383F3118895
:10386000BFF36F8FBFF34F8FFEE700263EE0394670
:103870002046FFF7BDFD013DA563236923B901F093
:103880003BFA012005B0F0BD04F1100000F0AEFCE1
:103890000028F4D04FF0E0234FF08052C3F8042DFD
:1038A000BFF34F8FBFF36F8FE9E701F025FA0020D8
:1038B000E8E702A800F0E0FC012621E0002384F8FC
:1038C000443029E0002384F845302BE02046FFF700
:1038D000A1FD00F06BFB09E02046FFF79BFD00F027
:1038E00065FB2046FFF73CFD00283FD101F0E2F9DF
:1038F000A56B002DBBD1019B002BD6D0002ED8D0BC
:1039000001F0FAF900F0B8FA01F0D4F994F8443073
:103910005BB2B3F1FF3FD1D094F845305BB2B3F165
:10392000FF3FCFD001F0E8F901A902A800F0B0FCF8
:103930000028D1D12046FFF713FD0028C6D00199F9
:1039400004F1240000F01EFC2046FFF763FD00F0A8
:103950002DFB0028CAD14FF0E0234FF08052C3F86E
:10396000042DBFF34F8FBFF36F8FBFE7002089E7B0
:103970000023072B0CD8074A52F833200AB1013331
:10398000F7E7044A42F8331002EBC303586070476C
:10399000704700BF8C11002070B504460D461646D6
:1039A00001F088F994F844305BB2B3F1FF3F0DD0D9
:1039B00094F845305BB2B3F1FF3F0BD001F09CF9B6
:1039C000A36B5BB12046FFF725FD70BD002384F893
:1039D0004430EDE7002384F84530EFE732462946CE
:1039E00004F1240000F0E6FBECE70000084B1B6844
:1039F0001B6823B9074B4FF0FF321A607047044B26
:103A00001B68DB68DB685A68024B1A60704700BFAE
:103A1000D0110020781600202DE9F04780460D4691
:103A200017469946089EDDF824A00A9C9200A5211D
:103A3000206B01F04DFB236B07F18042013A03EB51
:103A4000820727F00707B5B34FF0000CBCF10F0F4A
:103A50000BD815F80C2004EB0C0383F8342015F870
:103A60000C3013B10CF1010CF0E7002384F8433063
:103A7000372E00D93726E662E66400252565201D2D
:103A8000FFF725FC04F11800FFF721FC2461C6F1C3
:103A90003806A6616462656584F858504A46414616
:103AA000384601F0DDF82060BAF1000F01D0CAF805
:103AB0000040BDE8F087002384F83430D8E70000E8
:103AC00038B5002407E004EB840293000E48184444
:103AD000FFF7F2FB0134372CF5D90C4D2846FFF7E0
:103AE000EBFB0B4C2046FFF7E7FB0A48FFF7E4FB34
:103AF0000948FFF7E1FB0948FFF7DEFB084B1D60B3
:103B0000084B1C6038BD00BFD81100204C160020A7
:103B10006016002084160020B01600209C1600209D
:103B2000D0110020D411002010B5044601F0C2F8D5
:103B3000224A136801331360214B1B685BB1214B90
:103B40001B686BB91E4B1B68DA6AE36A9A4207D896
:103B50001B4B1C6004E01A4B1C601368012B29D01E
:103B6000194A1368013313606364E06A174B1B68DA
:103B7000984201D9154B186000EB8000211D144BB1
:103B800003EB8000FFF7A6FB01F0B6F80D4B1B68B6
:103B90007BB10B4B1B68DA6AE36A9A4209D24FF099
:103BA000E0234FF08052C3F8042DBFF34F8FBFF3D3
:103BB0006F8F10BDFFF784FFD2E700BF38160020DB
:103BC000CC11002098160020441600204816002032
:103BD000D811002010B5044690F8593063B1012B7C
:103BE00011D0022B0ED04FF0500383F31188BFF396
:103BF0006F8FBFF34F8FFEE7006B00F0B5FF2046DD
:103C000000F0B2FF10BD00F0AFFFFBE70F4B1B68E9
:103C1000D3B110B501F04EF80D4BDB68DC68201D08
:103C2000FFF77CFB0B4A1368013B1360074A1368DC
:103C3000013B136001F060F82046FFF7CBFF034B18
:103C40001B68002BE6D110BD704700BF3C1600205A
:103C5000B01600203816002008B5FFF7D7FF074B35
:103C60001B68012BF9D94FF0E0234FF08052C3F8C5
:103C7000042DBFF34F8FBFF36F8FEEE7D8110020F5
:103C800070B504460D46174B1E68174B1868043074
:103C9000FFF744FBB4F1FF3F0DD03444124B1B68D7
:103CA0005C60A64210D9114B18680F4B196804319B
:103CB000FFF71BFB70BD002DEFD00B4B19680431D3
:103CC0000B48FFF707FBF5E70A4B1868064B196826
:103CD0000431FFF70AFB084B1B68A342EAD9064BE5
:103CE0001C60E7E7C4160020CC110020D41100208E
:103CF0009C160020D01100207816002030B587B027
:103D00000B9C7CB10C9DB5B15C250495049D5C2D8C
:103D10001AD04FF0500383F31188BFF36F8FBFF3B6
:103D20004F8FFEE74FF0500383F31188BFF36F8F7F
:103D3000BFF34F8FFEE74FF0500383F31188BFF3BB
:103D40006F8FBFF34F8FFEE7049D0C9D2C63022401
:103D500085F8594000240394029505AC01940A9C0F
:103D60000094FFF759FE0C98FFF7DEFE059807B0A8
:103D700030BD2DE9F04385B00746884614461E46FF
:103D8000900000F073FE00B381465C2000F06EFEF0
:103D90000546B0B1C0F83090E5B1002385F8593040
:103DA000039302950D9B01930C9B0093334622468F
:103DB00041463846FFF730FE2846FFF7B5FE0120A2
:103DC00005E0484600F0D0FEE6E74FF0FF3005B0D2
:103DD000BDE8F0834FF0FF30F9E7000010B588B080
:103DE00000240594069407AA06A905A800F0C0FDC2
:103DF000059B0293069B019300942346079A18495A
:103E00001848FFF77BFF184B186040B100F04CFBDF
:103E1000012806D0B0F1FF3F18D008B010BD002037
:103E2000F6E74FF0500383F31188BFF36F8FBFF3B2
:103E30004F8F0E4B4FF0FF321A600D4B01221A606C
:103E40000C4B00221A6000F0CFFFE6E74FF0500362
:103E500083F31188BFF36F8FBFF34F8FFEE700BF6F
:103E6000AC9A0008593C000874160020781600200F
:103E700098160020C4160020024A1368013313600C
:103E8000704700BF40160020014B1868704700BF04
:103E9000C4160020F8B53A4B1B68002B69D1394B8A
:103EA0001D6801351D60C5B9374B1B681B6843B1E0
:103EB0004FF0500383F31188BFF36F8FBFF34F8F21
:103EC000FEE7314A1168314B186810601960304ABA
:103ED000136801331360FFF789FD2E4B1B68AB425B
:103EE0003DD900272C4B1B68DB6A03EB83039A0048
:103EF0002A4B9B58012B00D90127294B1B68002B0B
:103F00003CD001273AE001271F4B1B681B6843B3D5
:103F10001D4B1B68DB68DC6863689D4226D3261D49
:103F20003046FFF7FBF9A36A1BB104F11800FFF755
:103F3000F5F9E36A1B4A1268934201D9194A1360E2
:103F400003EB83039A00314614481044FFF7C2F98B
:103F5000E26A114B1B68DB6A9A42D4D2D4E700278D
:103F6000D2E70C4B4FF0FF321A60BBE7094A1360EF
:103F7000B8E70D4A13680133136000273846F8BDCF
:103F800040160020C4160020D0110020D4110020BB
:103F90007C16002078160020CC110020D8110020BB
:103FA000C8160020481600208016002038B5354B72
:103FB0001B6843B94FF0500383F31188BFF36F8F31
:103FC000BFF34F8FFEE700F075FE2E4B1A68013AE3
:103FD0001A601B68002B4FD12B4B1B680BB90024B8
:103FE0004BE00024294B1B681BB3284BDB68DC68C3
:103FF00004F11800FFF792F9251D2846FFF78EF906
:10400000E06A234B1B68984201D9214B186000EBF2
:10401000800029461F4B03EB8000FFF75BF9E26A43
:104020001D4B1B68DB6A9A42DCD31C4B01221A60D1
:10403000D8E70CB1FFF7DAFC194B1C6884B9174BB1
:104040001C68D4B14FF0E0234FF08052C3F8042D28
:10405000BFF34F8FBFF36F8F01240EE0013C07D0F9
:10406000FFF718FF0028F9D00C4B01221A60F5E782
:104070000B4B00221A60E2E7002400F03DFE2046D0
:1040800038BD00BF401600203816002084160020DE
:1040900048160020D8110020CC110020C81600209E
:1040A0008016002010B5A8B10446104B1B6843B120
:1040B0004FF0500383F31188BFF36F8FBFF34F8F1F
:1040C000FEE7FFF7D9FE00212046FFF7D9FDFFF7F5
:1040D0006DFF48B94FF0E0234FF08052C3F8042D34
:1040E000BFF34F8FBFF36F8F10BD00BF401600208E
:1040F0001F4B1B681BB11F4B01221A6070471D4BE1
:1041000000221A601C4B1B6803EB83018A001B49C9
:104110008A585AB90BB1013BF6E74FF0500383F3CD
:104120001188BFF36F8FBFF34F8FFEE703EB830060
:1041300082000A4450684068506003EB830C4FEAE9
:104140008C020832114488420BD003EB83029100A9
:104150000A4A0A445268D168094A1160064A136043
:104160007047406862469100044A0A445060ECE798
:1041700040160020C816002048160020D811002044
:10418000CC11002058B110B50C46094A11681831FD
:10419000FFF7ABF801212046FFF772FD10BD4FF08D
:1041A000500383F31188BFF36F8FBFF34F8FFEE788
:1041B000CC11002038B570B10D4614460A4A11687A
:1041C0001831FFF787F80CB14FF0FF35214628462C
:1041D000FFF756FD38BD4FF0500383F31188BFF34E
:1041E0006F8FBFF34F8FFEE7CC11002038B5C36847
:1041F000DC6824B304F118052846FFF78FF8184B44
:104200001B682BBB251D2846FFF788F8E06A154B75
:104210001B68984201D9134B186000EB80002946B7
:10422000114B03EB8000FFF755F8E26A0F4B1B6858
:10423000DB6A9A4211D901200D4B186038BD4FF04E
:10424000500383F31188BFF36F8FBFF34F8FFEE7E7
:1042500029460848FFF73EF8E7E70020EEE700BFF1
:104260004016002048160020D8110020CC11002054
:10427000C816002084160020034B1B680360034B04
:104280001B684360704700BF7C160020C4160020E6
:10429000F8B5C8B10C460546F9B100F00BFD1B4B53
:1042A00019686B68C81A2268B2F1FF3F26D0184E11
:1042B00036682F68B74201D08B4224D9824215D884
:1042C0000023236001241AE04FF0500383F3118888
:1042D000BFF36F8FBFF34F8FFEE74FF0500383F3B1
:1042E0001188BFF36F8FBFF34F8FFEE75B1A134444
:1042F00023602846FFF7C0FF002400E0002400F000
:10430000FBFC2046F8BD0124F9E700BFC4160020DD
:104310007C160020014B01221A607047C81600204D
:10432000054B1B6833B1054B1B680BB10020704770
:104330000220704701207047981600204016002088
:1043400000283BD038B504461E4B1B68834208D07A
:104350004FF0500383F31188BFF36F8FBFF34F8F7C
:10436000FEE7036D43B94FF0500383F31188BFF3A9
:104370006F8FBFF34F8FFEE7013B0365C16AC26CCD
:1043800091421DD00BB1002038BD051D2846FEF717
:10439000C5FFE06CE062C0F13803A3610A4B1B6803
:1043A000984201D9084B186000EB80002946074B62
:1043B00003EB8000FEF78EFF0120E5E70020704749
:1043C0000020E1E7CC11002048160020D811002081
:1043D000064B1A6813682BB90123036023B9D3680D
:1043E000186870470023F8E700207047CC160020BB
:1043F00008B54160006191420CD8D21A83699A4293
:1044000001D3012008BD011D094B1868FEF76DFF9F
:104410000020F7E79A4201D2994206D2011D054BCE
:104420001868FEF762FF0020ECE70120EAE700BF12
:10443000D0160020CC16002030B583B000F03AFC36
:10444000114B1B681BB100F057FC03B030BD0F4D82
:104450002846FEF731FF0E4C2046FEF72DFF0D4B90
:104460001D600D4B1C60002300930C4B0C4A102167
:104470000A20FFF759F8044B18600028E3D00949D7
:10448000FFF776FADFE700BFF0170020741700206F
:1044900088170020CC160020D0160020A01700207E
:1044A000D4160020B49A000810B588B0FFF7C4FFF6
:1044B000124B1B68CBB100240594069407AA06A9E9
:1044C00005A800F061FA059B0293069B0193022365
:1044D00000932346079A0A490A48FFF70FFC0A4B44
:1044E000186010B1012008B010BD4FF0500383F3E5
:1044F0001188BFF36F8FBFF34F8FFEE7F0170020D7
:10450000BC9A00080D480008F4170020B8B19C467A
:1045100003461848006858B300B585B00091019271
:10452000029305291CDCFFF7FBFE022810D00023B4
:104530001A4669460F480068FFF740F815E04FF04B
:10454000500383F31188BFF36F8FBFF34F8FFEE7E4
:104550000023069A694607480068FFF72FF804E031
:10456000002362466946FFF7EDF805B05DF804FBED
:1045700000207047F017002070B582B01B4B1B68FD
:104580001A6862B3DB681E68DC68251D2846FEF7E2
:10459000C5FE236A2046984794F8283013F0040F8C
:1045A000ECD0A36933449E4207D26360246129465C
:1045B0000E4B1868FEF799FEE0E7002100910B46CC
:1045C00032462046FFF7A2FF0028D7D14FF0500314
:1045D00083F31188BFF36F8FBFF34F8FFEE7044A59
:1045E000106802490860136002B070BDCC1600204C
:1045F000D016002038B50546FFF746FC0446074BA9
:104600001B68834205D800232B60044B1C602046A6
:1046100038BDFFF7B1FF01232B60F6E79C170020A0
:1046200070B582B006460D4617490968C968CC685E
:10463000201DFEF773FE94F828C01CF0040F08D16B
:104640002CF0010C84F828C0236A2046984702B059
:1046500070BDA16933462A4631442046FFF7C8FEA3
:104660000028F1D0002100910B4632462046FFF78A
:104670004DFF0028E8D14FF0500383F31188BFF3BA
:104680006F8FBFF34F8FFEE7CC16002070B582B05E
:1046900006460C46FFF7F0FB01A8FFF7ABFF019BB6
:1046A00033BB05460CB9B04219D224B1124A126884
:1046B0001268DAB901242246711B104B1868FFF703
:1046C0006BF9FFF773FCA8B94FF0E0234FF080526D
:1046D000C3F8042DBFF34F8FBFF36F8F0AE0FFF7CE
:1046E00065FC29463046FFF79BFF03E01C46E2E7E6
:1046F000FFF75CFC02B070BDD0160020F017002060
:1047000010B588B002E0049B002B0FDA002204A948
:104710003D4B1868FFF77DF8002873D0049B002BF1
:10472000F1DA07990698059B9847ECE7069C6369C0
:1047300013B1201DFEF7F2FD03A8FFF75BFF049BFA
:10474000092BE3D8DFE803F00505053037500505F0
:10475000303794F8283043F0010384F82830059B63
:10476000A169024619442046FFF742FE0028CDD039
:10477000236A2046984794F8283013F0040FC5D0D8
:10478000A269002100910B46059802442046FFF7DC
:10479000BDFE0028BAD14FF0500383F31188BFF358
:1047A0006F8FBFF34F8FFEE794F8283023F001039B
:1047B00084F82830AAE794F8283043F0010384F8FD
:1047C00028300599A16131B10346024601442046D3
:1047D000FFF70EFE9AE74FF0500383F31188BFF303
:1047E0006F8FBFF34F8FFEE794F8283013F0020F5E
:1047F00004D023F0010384F8283087E7204600F036
:10480000B3F983E708B010BDF017002000B583B0FE
:1048100001A8FFF7DDFD0199FFF738FFFFF770FFF3
:10482000F6E708B54FF0E0231B69FFF779FD012893
:1048300000D108BD00F0AEFAFBE70000EFF30583FE
:104840002BB9064B186828B901221A6070476FF01F
:10485000050070474FF0FF30704700BF541A00202A
:10486000EFF3058373B90A4B1B68012B0DD110B50B
:104870000024084BDC77064B02221A60FFF7AEFAE1
:10488000204610BD6FF0050070474FF0FF307047B5
:10489000541A002000ED00E0F0B587B00024059424
:1048A000EFF3058474BB68B322B31568936903B949
:1048B00018235C1E372C49D8546814F0010F47D1D7
:1048C00056696EB14FEA960C94682CB1D7685B2F8D
:1048D00002D9176907B1C6B92CB14FF0FF340EE009
:1048E0004FF0800CF0E7D4688CB9146994B14FF0A4
:1048F000FF3404E01546002418234FF0800C012CEF
:104900000AD0ACB1059807B0F0BD0124F7E74FF02D
:10491000FF34F4E70024F2E71469926802920194EC
:1049200000930B4662462946FFF7E8F90590E9E750
:1049300005AA019200930B461FFA8CF22946FFF755
:1049400018FA0128DED000230593DBE70020DAE720
:104950000020D8E708B5EFF3058333B908B9002084
:1049600008BDFFF79FFB0020FAE76FF00500F7E7AF
:10497000034B0360034B0B6080231360704700BF41
:10498000F8190020F8170020034B0360034B0B605D
:104990004FF4807313607047581E0020581A00208F
:1049A000134A12F0070F1FD0D11D21F00701C1F5E6
:1049B0003B53203313440A460E48026000214160F5
:1049C0001344083B23F007030B4803605960196048
:1049D000991A51601360094B1960094B1960094B12
:1049E0004FF000421A60704742F6E063E4E700BF10
:1049F000B81E0020AC4D0020B41E0020A04D0020A9
:104A00009C4D0020984D0020164B1A461B6883428F
:104A1000FBD3516802EB010C844509D0416800EBDF
:104A2000010C634509D00360904219D010607047B3
:104A30004068014451601046F0E710B40A4C246805
:104A4000A3420BD05B681944416013681B68036084
:104A5000904200D010605DF8044B70470460F7E7A7
:104A6000704700BFAC4D0020B41E002070B5054655
:104A7000FFF702FA364B1B68A3B1364B1B681D4289
:104A80004ED135B1083515F0070F02D025F00705D6
:104A90000835002D46D0304B1B68AB4251D32F4A0E
:104AA000146804E0FFF77CFFE7E722461C466368D2
:104AB000AB4202D22368002BF7D1254B1B68A342DF
:104AC00041D0166808362368136063685B1B102B9F
:104AD00010D9601910F0070F08D04FF0500383F37E
:104AE0001188BFF36F8FBFF34F8FFEE743606560A0
:104AF000FFF78AFF626818490B689B1A0B60184918
:104B000009688B4201D216490B60124B1B68134394
:104B1000636000232360134A13680133136002E0CB
:104B2000002600E00026FFF741FA16F0070F0CD030
:104B30004FF0500383F31188BFF36F8FBFF34F8F94
:104B4000FEE70026EFE70026EDE7304670BD00BF28
:104B5000B41E0020984D00209C4D0020AC4D00203C
:104B6000A04D0020A44D0020002834D038B50446C4
:104B7000A0F1080550F8043C174A1268134208D106
:104B80004FF0500383F31188BFF36F8FBFF34F8F44
:104B9000FEE750F8081C41B14FF0500383F3118831
:104BA000BFF36F8FBFF34F8FFEE723EA020340F896
:104BB000043CFFF761F954F8041C084A13680B44DD
:104BC00013602846FFF720FF054A1368013313607E
:104BD000FFF7ECF938BD7047984D00209C4D002040
:104BE000A84D002082B0002301930D4B1B68B3F148
:104BF000FF3F08D04FF0500383F31188BFF36F8F4E
:104C0000BFF34F8FFEE74FF0500383F31188BFF3DC
:104C10006F8FBFF34F8F019B002BFCD002B070470A
:104C20003800002008480068006880F308884FF0CA
:104C3000000080F3148862B661B6BFF34F8FBFF3F4
:104C40006F8F00DF00BF000008ED00E0DFF80C0010
:104C5000016841F4700101607047000088ED00E0D8
:104C60004FF0807340F8043C21F0010140F8081C2B
:104C7000054B40F80C3C40F8202C6FF0020340F844
:104C8000243C4438704700BFE54B0008000000009A
:104C9000074B19680868B0E8F04F80F30988BFF344
:104CA0006F8F4FF0000080F311887047AFF30080E2
:104CB000CC1100204FF0500383F31188BFF36F8FA6
:104CC000BFF34F8F0B4A136801331360012B00D0E1
:104CD00070474FF0E023D3F8043D13F0FF0FF7D0F7
:104CE0004FF0500383F31188BFF36F8FBFF34F8FE3
:104CF000FEE700BF38000020094B1B6843B94FF0A6
:104D0000500383F31188BFF36F8FBFF34F8FFEE71C
:104D1000013B034A13600BB983F31188704700BF4E
:104D2000380000200000000000000000000000002B
:104D3000EFF30980BFF36F8F154B1A681EF0100F49
:104D400008BF20ED108A20E9F04F10602DE909001E
:104D50004FF0500080F31188BFF34F8FBFF36F8F78
:104D6000FFF7C6F94FF0000080F3118809BC1968FD
:104D70000868B0E8F04F1EF0100F08BFB0EC108AC2
:104D800080F30988BFF36F8F704700BFAFF30080D7
:104D9000CC11002008B54FF0500383F31188BFF306
:104DA0006F8FBFF34F8FFFF775F828B14FF0E023F7
:104DB0004FF08052C3F8042D002383F3118808BDFF
:104DC0004FF0E022002313619361054B1B680549F6
:104DD000A1FB03139B09013B536107231361704738
:104DE00034000020D34D62104FF0E023D3F8002DA3
:104DF0003D4B9A421CD04FF0E023D3F8002D3B4BA3
:104E00009A421ED030B583B0394B1A78D2B2019293
:104E1000FF221A701B78DBB28DF803309DF8033047
:104E200003F05003334A1370334B07221A601BE020
:104E30004FF0500383F31188BFF36F8FBFF34F8F91
:104E4000FEE74FF0500383F31188BFF36F8FBFF37A
:104E50004F8FFEE7284A1368013B13609DF803302B
:104E60005B00DBB28DF803309DF8033013F0800F48
:104E7000F0D1214B1B68032B08D04FF0500383F374
:104E80001188BFF36F8FBFF34F8FFEE71B021A4AE3
:104E9000136003F4E0631360019BDBB2144A1370E8
:104EA0004FF0E024D4F8203D43F47003C4F8203DD3
:104EB000D4F8203D43F07043C4F8203DFFF780FF55
:104EC00000250E4B1D60FFF7C1FED4F8343F43F0C0
:104ED0004043C4F8343FFFF7A5FEFFF709F9FFF799
:104EE00081FE284603B030BD71C20F4170C20F4130
:104EF00000E400E0B44D0020B84D00203800002050
:104F0000EFF305830F2B0FD9114A9B5CDBB2114ADB
:104F100012789A4208D94FF0500383F31188BFF3F7
:104F20006F8FBFF34F8FFEE74FF0E023D3F80C3DB8
:104F300003F4E063084A1268934208D94FF0500323
:104F400083F31188BFF36F8FBFF34F8FFEE7704776
:104F5000F0E300E0B44D0020B84D002030B589B03A
:104F60000446214B9A6D42F020029A659B6D03F036
:104F700020030193019B02A903A8FCF7EDFF069B08
:104F8000CBB9FCF7D7FF03461848A0FB03239B0CC3
:104F9000013B1748174A026040F2E732C2604360A3
:104FA0000023036183608361FEF7FCF8054630B19E
:104FB000284609B030BDFCF7BDFF4300E4E70C48CC
:104FC000FDF77CFF05460028F2D13720FDF71CFCD9
:104FD0000F2C01D90125EBE7002221463720FDF7F0
:104FE000DBFB054B1C60E3E70010024083DE1B4344
:104FF000BC4D00200014004010000020DFF834D029
:10500000FEF750F90C480D490D4A002302E0D45830
:10501000C4500433C4188C42F9D30A4A0A4C002302
:1050200001E013600432A242FBD300F017F8FBF753
:10503000C9FEFEE7008001200000002010020020D1
:10504000E89F000810020020184E0020FEE7000034
:10505000014B1868704700BF3C00002070B50D4D33
:105060000D4C641BA4100026A64209D10B4D0C4C1C
:1050700004F08EFC641BA4100026A64205D170BD6E
:1050800055F8043B98470136EEE755F8043B98473E
:105090000136F2E7D89F0008D89F0008D89F000883
:1050A000DC9F0008024B0146186800F085B800BF7D
:1050B0003C0000200A44914200F1FF3300D17047C8
:1050C00010B511F8014B03F8014F9142F9D110BD11
:1050D00002440346934200D1704703F8011BF9E7ED
:1050E00037B5002944D051F8043C0190002BA1F1C0
:1050F0000404B8BFE41803F02FF81E4A019813689F
:1051000033B96360146003B0BDE8304003F02AB8DF
:10511000A34208D9256861198B4201BF19685B68F1
:1051200049192160EDE71A465B680BB1A342FAD931
:1051300011685518A5420BD1246821445418A34284
:105140001160E0D11C685B68536021441160DAE7AC
:1051500002D90C230360D6E7256861198B4204BF8E
:1051600019685B68636004BF491921605460CAE72D
:1051700003B030BD084E002070B50E4E0C463168AD
:10518000054611B900F006FF30602146284600F0C0
:1051900001FF431C0AD0C41C24F00304A04207D022
:1051A000211A284600F0F6FE013001D14FF0FF34FD
:1051B000204670BD0C4E00202DE9F041CD1C25F09D
:1051C000030508350C2D38BF0C25002D074601DBE3
:1051D000A94205D90C233B6000263046BDE8F0818A
:1051E0002E4E02F0B9FF33681C4634BB29463846C0
:1051F000FFF7C2FF431C04464DD134682646002EFB
:1052000040D123683146384604EB030800F0C2FE63
:1052100080453AD1216803356D1A25F0030508351C
:105220000C2D38BF0C2529463846FFF7A5FF013065
:105230002BD023682B4423600EE02268521B1ED41F
:105240000B2A16D96119A342256018BF59606368FB
:1052500008BF316062514B60384604F10B0602F022
:1052600081FF26F00706231DF21AB6D09B1BA35020
:10527000B3E76268A3420CBF32605A60ECE7234692
:105280006468B2E734467668B9E70C233B60384679
:1052900002F068FFA1E72560DEE700BF084E0020AE
:1052A0002DE9FF4755EC104B002D0E4619462B46B5
:1052B000BBBF05F100431D4600232D230B700D9B42
:1052C000DDF830A0914623F02008BCBF22461446EA
:1052D000B8F1460F05D0B8F1450F00D101360221D3
:1052E00000E0032103AB019302AB009345EC104BAC
:1052F0005346324601F0BCFDB8F1470F074602D1D4
:1053000019F0010F22D0B8F1460F07EB060910D1B2
:105310003B78302B0AD10022002320462946FBF798
:10532000D3FB18B9C6F10106CAF80060DAF80030FC
:1053300099440022002320462946FBF7C5FB08B10B
:10534000CDF80C903022039B4B4507D3039B0E9A5C
:10535000DB1B3846136004B0BDE8F087591C03918D
:105360001A70F0E7F7B503460029B8BF494203F8C1
:10537000022BB4BF2D222B22092942702ADD0DF108
:105380000704A4460A27A6460A4691FBF7F607FB40
:1053900016153035632A04F1FF340EF8015C3146EE
:1053A000F1DC3031AEF1020504F8011C441C294641
:1053B00061450AD30DF10902A2EB0E02654588BFD3
:1053C00000221344181A03B0F0BD11F8012B04F8A1
:1053D000012FEDE7302330318370C170031DF1E7F9
:1053E0002DE9F04F2DED028B8DB00C46DDF860807D
:1053F00016461F46054602F099FED0F800A050461A
:10540000FAF7E6FE00230A9323680593D8F80030E4
:1054100094F818B0073323F0070303F10802C8F823
:105420000020D3E90023C4E91223D4E9128929F02A
:1054300000430793CDF8188008EE100A9F4BDDE972
:1054400006014FF0FF32FBF771FB88BBDDE9060177
:105450009A4B4FF0FF32FBF74BFB48BB0022002377
:1054600040464946FBF73AFB10B12D2384F8433000
:10547000934B9448BBF1470F94BF98468046032353
:105480002361059B23F0040222604FF0000900977E
:1054900033460BAA2146284600F0D8F9013040F0E7
:1054A00090804FF0FF300DB0BDEC028BBDE8F08F67
:1054B00042464B4640464946FBF738FB40B14B4617
:1054C000002BBCBF2D2384F843307F487F4BD1E7AE
:1054D00063680BF0DF0206925A1C3FD1062363601B
:1054E000059B616843F48062002303930AABCDE916
:1054F00001B309AB49EC108B009322600DF123033B
:105500002846FFF7CDFE069B0999472B804608D118
:10551000C81C02DB6368994241DDABF1020B5FFA04
:105520008BFBBBF1650F20D801395A4604F15000BE
:105530000991FFF717FF0A9A1318012A8146236180
:1055400002DC2268D20701D5013323619DF82330A4
:10555000002B9CD02D2384F8433098E7069A472AE5
:10556000BED1002BBCD10123B9E7BBF1660F18D126
:10557000002963680BDD216113B92268D00702D5C9
:1055800001330B442361A1654FF00009DEE713B935
:105590002268D20701D50233F4E70123F2E74FF086
:1055A000670B0A9B994205DB23682161D807EAD57E
:1055B0004B1CE7E70029D4BFC1F1020201221344CA
:1055C000E0E723685A0507D4236942463146284656
:1055D000B84701302CD164E7BBF1650F40F2E080A1
:1055E000D4E9120100220023FBF76EFA002834D020
:1055F000374A012331462846B84701303FF451AFBE
:10560000DDE909239A4202DB2368D80710D518EE9A
:10561000103A524631462846B84701303FF441AF70
:105620004FF0000804F11A090A9B013B434509DCCD
:1056300023689B0700F10581E0680B9B9842B8BF87
:10564000184630E701234A4631462846B84701301C
:105650003FF427AF08F10108E6E7099B002B39DC8E
:105660001B4A012331462846B84701303FF419AFA1
:10567000DDE90923134302D12368D907D8D518EEF1
:10568000103A524631462846B84701303FF409AF38
:105690004FF0000904F11A0A099B5B424B4501DCFB
:1056A0000A9B92E70123524631462846B84701300B
:1056B0003FF4F7AE09F10109EEE700BFFFFFEF7F0E
:1056C000C89A0008CC9A0008D49A0008D09A00081A
:1056D000D89A00080A9AA36D9A42A8BF1A46002ACF
:1056E000914637DC4FF0000B29EAE97904F11A0200
:1056F000A36D0593A3EB09035B4533DCDDE90923C7
:105700009A423BDB2368DA0738D40A9B059A099949
:105710009A1AA3EB01099145A8BF9146B9F1000F70
:1057200035DC4FF0000829EAE97904F11A0ADDE9CD
:1057300009239B1AA3EB090343457FF779AF0123A4
:10574000524631462846B84701303FF4AAAE08F128
:105750000108ECE71346314642462846B847013077
:10576000C0D19EE60123314628460592B847013054
:105770003FF497AE059A0BF1010BB9E718EE103A1A
:10578000524631462846B8470130BED189E6059ACF
:105790004B46424431462846B8470130C1D180E6E5
:1057A0000A9A012A01DCDB0738D50123424631463B
:1057B0002846B84701303FF474AE18EE103A52460E
:1057C00031462846B84701303FF46BAED4E91201A8
:1057D00000220023FBF778F9D8B90A9B08F10102EF
:1057E000013B31462846B84701300ED159E6012326
:1057F000524631462846B84701303FF452AE08F1D0
:1058000001080A9B013B4345F1DC4B4604F1500281
:10581000DCE64FF0000804F11A0AF2E701234246E1
:10582000DFE701234A4631462846B84701303FF4B6
:1058300038AE08F10108E3680B995B1A4345F0DCC8
:10584000FAE64FF0000804F11909F4E72DE9F047F2
:10585000164699468A680B69DDF820809342B8BFE6
:105860001346336091F8432007460C460AB10133D2
:1058700033602368990642BF33680233336025687A
:1058800015F0060506D104F1190AE36832689B1A7F
:10589000AB4226DC94F84320131E226818BF012374
:1058A00092062BD404F1430249463846C0470130E2
:1058B0001ED02368E568326803F00603042B08BF96
:1058C000AD1AA36822690CBF25EAE575002593424D
:1058D000C4BF9B1AED1800261A34B5421AD1002015
:1058E00008E00123524649463846C047013003D1FB
:1058F0004FF0FF30BDE8F0870135C6E7E1185A1CCC
:10590000302081F84300224494F8451082F8431077
:105910000233C7E70123224649463846C0470130D3
:10592000E6D00136D9E700002DE9FF470F7E0C9D38
:10593000782F914680460C469A4601F1430207D8DB
:10594000622F0AD8002F00F0D880582F00F0A380D3
:1059500004F1420584F842703AE0A7F16303152B85
:10596000F6D801A151F823F0C1590008D559000813
:10597000515900085159000851590008515900085F
:10598000D5590008515900085159000851590008CB
:1059900051590008E15A0008055A0008C35A000886
:1059A0005159000851590008035B0008515900087B
:1059B000055A00085159000851590008CB5A0008EF
:1059C0002B681A1D1B682A6004F1420584F84230D6
:1059D0000123A3E020682968060601F104030AD523
:1059E0000E682B60002E03DA2D23764284F84330B4
:1059F0005E480A2319E00E682B6010F0400F18BFB4
:105A000036B2EFE72B682068191D2960010601D521
:105A10001E6802E04606FBD51E8854486F2F0CBF57
:105A200008230A23002184F843106568A560002D2F
:105A3000A2BF216821F0040121600EB9002D4DD0D4
:105A40001546B6FBF3F103FB1167C75D05F8017D51
:105A50003746BB420E46F4D9082B0BD12368DE072C
:105A600008D5236961689942DEBF302305F8013CFF
:105A700005F1FF35521B2261CDF800A04B4603AA69
:105A800021464046FFF7E2FE01304CD14FF0FF3097
:105A900004B0BDE8F087354881F84570296823686F
:105AA00051F8046B29601D0614D5DF0744BF43F08D
:105AB000200323601EB9236823F0200323601023F2
:105AC000B0E7236843F0200323607823284884F854
:105AD0004530E3E7590648BFB6B2E6E71546BBE7EF
