:020000040800F2
:1000000000800120BDA40008211C0008231C00085A
:10001000251C0008271C0008291C000800000000FF
:1000200000000000000000000000000051A10008D6
:100030002B1C000800000000F1A10008DB9C000858
:100040000DA500080DA500080DA500082D1C000831
:100050003D1C00080DA50008451C00080DA5000862
:100060000DA500080DA500084F1C00080DA50008EF
:100070000DA500080DA500080DA50008591C0008D5
:10008000691C00080DA500080DA500080DA50008B5
:100090000DA500080DA500080DA50008791C000895
:1000A0000DA500080DA500080DA500080DA5000868
:1000B0000DA500080DA500080DA500080DA5000858
:1000C0000DA500080DA500080DA500080DA5000848
:1000D0000DA50008891C0008991C00080DA5000842
:1000E000AD1C00080DA500080DA500080DA5000811
:1000F0000DA500080DA500080DA500080DA5000818
:100100000DA500080DA500080DA500080DA5000807
:100110000DA500080DA50008B91C0008C91C0008A1
:100120000DA500080DA500080DA500080DA50008E7
:100130000DA500080DA500080DA500080DA50008D7
:100140000DA500080DA500080DA500080DA50008C7
:100150000DA50008D91C0008E91C00080DA5000821
:100160000DA500080DA500080DA500080DA50008A7
:100170000DA500080DA500080DA500080000000051
:080180000DA500080DA5000803
:1001900010B5054C237833B9044B13B10448AFF3C1
:1001A00000800123237010BD5002002000000000D9
:1001B00028EF000808B5034B1BB103490348AFF310
:1001C000008008BD000000005402002028EF000855
:1001D000034613F8012B002AFBD1181A0138704787
:1001E00001F0FF01102A2BDB10F0070F08D010F8E8
:1001F000013B013A8B422DD010F0070F42B3F6D1EC
:10020000F0B441EA012141EA014122F007047FF004
:1002100000070023F0E80256083C85EA010586EA5B
:10022000010685FA47F5A3FA87F586FA47F6A5FA97
:1002300087F68EB9EED1F0BC01F0FF0102F00702A3
:1002400032B110F8013B013A83EA010313B1F8D14E
:100250000020704701387047002D06BF354603382F
:10026000073815F0010F07D1013015F4807F02BF68
:10027000013015F4C03F0130F0BC0138704700BFB9
:1002800081F0004102E000BF83F0004330B54FEA47
:1002900041044FEA430594EA050F08BF90EA020FB4
:1002A0001FBF54EA000C55EA020C7FEA645C7FEA47
:1002B000655C00F0E2804FEA5454D4EB5555B8BF6A
:1002C0006D420CDD2C4480EA020281EA030382EADB
:1002D000000083EA010180EA020281EA0303362D6D
:1002E00088BF30BD11F0004F4FEA01314FF4801C40
:1002F0004CEA113102D0404261EB410113F0004F52
:100300004FEA03334CEA133302D0524263EB430308
:1003100094EA050F00F0A780A4F10104D5F1200EA6
:100320000DDB02FA0EFC22FA05F2801841F1000101
:1003300003FA0EF2801843FA05F359410EE0A5F1D5
:1003400020050EF1200E012A03FA0EFC28BF4CF006
:10035000020C43FA05F3C01851EBE37101F00045BC
:1003600007D54FF0000EDCF1000C7EEB00006EEBC9
:100370000101B1F5801F1BD3B1F5001F0CD3490853
:100380005FEA30004FEA3C0C04F101044FEA4452AA
:1003900012F5800F80F09A80BCF1004F08BF5FEA31
:1003A000500C50F1000041EB045141EA050130BD11
:1003B0005FEA4C0C404141EB0101013C28BFB1F523
:1003C000801FE9D291F0000F04BF01460020B1FA6E
:1003D00081F308BF2033A3F10B03B3F120020CDA41
:1003E0000C3208DD02F1140CC2F10C0201FA0CF01F
:1003F00021FA02F10CE002F11402D8BFC2F1200C84
:1004000001FA02F120FA0CFCDCBF41EA0C01904039
:10041000E41AA2BF01EB0451294330BD6FEA040482
:100420001F3C1CDA0C340EDC04F11404C4F120026D
:1004300020FA04F001FA02F340EA030021FA04F37F
:1004400045EA030130BDC4F10C04C4F1200220FAD6
:1004500002F001FA04F340EA0300294630BD21FA14
:1004600004F0294630BD94F0000F83F4801306BFDA
:1004700081F480110134013D4EE77FEA645C18BFCE
:100480007FEA655C29D094EA050F08BF90EA020F65
:1004900005D054EA000C04BF1946104630BD91EA5D
:1004A000030F1EBF0021002030BD5FEA545C05D160
:1004B0004000494128BF41F0004130BD14F580049F
:1004C0003CBF01F5801130BD01F0004545F0FE4113
:1004D00041F470014FF0000030BD7FEA645C1ABF48
:1004E000194610467FEA655C1CBF0B46024650EA7F
:1004F000013406BF52EA033591EA030F41F40021AB
:1005000030BD00BF90F0000F04BF0021704730B530
:100510004FF4806404F132044FF000054FF0000105
:1005200050E700BF90F0000F04BF0021704730B5C6
:100530004FF4806404F1320410F0004548BF40429B
:100540004FF000013EE700BF42004FEAE2014FEAF0
:1005500031014FEA02701FBF12F07F4393F07F4FCB
:1005600081F06051704732F07F4208BF704793F0CE
:100570007F4F04BF41F40021704730B54FF46074E1
:1005800001F0004521F000411CE700BF50EA0102E4
:1005900008BF704730B54FF000050AE050EA01028D
:1005A00008BF704730B511F0004502D5404261EBFD
:1005B00041014FF4806404F132045FEA915C3FF43E
:1005C000D8AE4FF003025FEADC0C18BF03325FEADB
:1005D000DC0C18BF033202EBDC02C2F1200300FA8C
:1005E00003FC20FA02F001FA03FE40EA0E0021FAB1
:1005F00002F11444BDE600BF70B54FF0FF0C4CF49F
:10060000E06C1CEA11541DBF1CEA135594EA0C0F50
:1006100095EA0C0F00F0DEF82C4481EA030621EA8B
:100620004C5123EA4C5350EA013518BF52EA0335C6
:1006300041F4801143F4801338D0A0FB02CE4FF078
:100640000005E1FB02E506F00042E0FB03E54FF0A8
:100650000006E1FB03569CF0000F18BF4EF0010EA0
:10066000A4F1FF04B6F5007F64F5407404D25FEA9C
:100670004E0E6D4146EB060642EAC62141EA55514F
:100680004FEAC52040EA5E504FEACE2EB4F1FD0C91
:1006900088BFBCF5E06F1ED8BEF1004F08BF5FEA0F
:1006A000500E50F1000041EB045170BD06F00046C1
:1006B00046EA010140EA020081EA0301B4EB5C046E
:1006C000C2BFD4EB0C0541EA045170BD41F4801166
:1006D0004FF0000E013C00F3AB8014F1360FDEBF8B
:1006E000002001F0004170BDC4F10004203C35DA67
:1006F0000C341BDC04F11404C4F1200500FA05F3EA
:1007000020FA04F001FA05F240EA020001F000428A
:1007100021F0004110EBD37021FA04F642EB060100
:100720005EEA430E08BF20EAD37070BDC4F10C042A
:10073000C4F1200500FA04F320FA05F001FA04F2EE
:1007400040EA020001F0004110EBD37041F10001DA
:100750005EEA430E08BF20EAD37070BDC4F12005E5
:1007600000FA05F24EEA020E20FA04F301FA05F24D
:1007700043EA020321FA04F001F0004121FA04F2F5
:1007800020EA020000EBD3705EEA430E08BF20EAC5
:10079000D37070BD94F0000F0FD101F000464000FF
:1007A00041EB010111F4801F08BF013CF7D041EA81
:1007B000060195F0000F18BF704703F00046520085
:1007C00043EB030313F4801F08BF013DF7D043EA56
:1007D0000603704794EA0C0F0CEA135518BF95EA0C
:1007E0000C0F0CD050EA410618BF52EA4306D1D193
:1007F00081EA030101F000414FF0000070BD50EAB2
:10080000410606BF1046194652EA430619D094EA3B
:100810000C0F02D150EA013613D195EA0C0F05D125
:1008200052EA03361CBF104619460AD181EA030179
:1008300001F0004141F0FE4141F470014FF0000031
:1008400070BD41F0FE4141F4780170BD70B54FF0CC
:10085000FF0C4CF4E06C1CEA11541DBF1CEA13554C
:1008600094EA0C0F95EA0C0F00F0A7F8A4EB05042E
:1008700081EA030E52EA03354FEA013100F0888025
:100880004FEA03334FF0805545EA131343EA1263EE
:100890004FEA022245EA111545EA10654FEA0026A3
:1008A0000EF000419D4208BF964244F1FD0404F55C
:1008B000407402D25B084FEA3202B61A65EB0305B8
:1008C0005B084FEA32024FF480104FF4002CB6EB75
:1008D000020E75EB030E22BFB61A754640EA0C00F5
:1008E0005B084FEA3202B6EB020E75EB030E22BF35
:1008F000B61A754640EA5C005B084FEA3202B6EB76
:10090000020E75EB030E22BFB61A754640EA9C0034
:100910005B084FEA3202B6EB020E75EB030E22BF04
:10092000B61A754640EADC0055EA060E18D04FEAC2
:10093000051545EA16754FEA06164FEAC30343EA62
:1009400052734FEAC2025FEA1C1CC0D111F4801F2F
:100950000BD141EA00014FF000004FF0004CB6E728
:1009600011F4801F04BF01430020B4F1FD0C88BFC7
:10097000BCF5E06F3FF6AFAEB5EB030C04BFB6EBD2
:10098000020C5FEA500C50F1000041EB045170BDC5
:100990000EF0004E4EEA113114EB5C04C2BFD4EBF2
:1009A0000C0541EA045170BD41F480114FF0000E76
:1009B000013C90E645EA060E8DE60CEA135594EAF2
:1009C0000C0F08BF95EA0C0F3FF43BAF94EA0C0FF5
:1009D0000AD150EA01347FF434AF95EA0C0F7FF46A
:1009E00025AF104619462CE795EA0C0F06D152EABE
:1009F00003353FF4FDAE1046194622E750EA4106A2
:100A000018BF52EA43067FF4C5AE50EA41047FF4B2
:100A10000DAF52EA43057FF4EBAE12E74FF0FF3C17
:100A200006E000BF4FF0010C02E000BF4FF0010CE8
:100A30004DF804CD4FEA410C7FEA6C5C4FEA430C61
:100A400018BF7FEA6C5C1BD001B050EA410C0CBFB0
:100A500052EA430C91EA030F02BF90EA020F002012
:100A6000704710F1000F91EA030F58BF994208BF79
:100A700090422CBFD8176FEAE37040F00100704736
:100A80004FEA410C7FEA6C5C02D150EA013C07D18D
:100A90004FEA430C7FEA6C5CD6D152EA033CD3D0D8
:100AA0005DF8040B704700BF8446104662468C46D2
:100AB0001946634600E000BF01B5FFF7B7FF002805
:100AC00048BF10F1000F01BD4DF808EDFFF7F4FF2E
:100AD0000CBF012000205DF808FB00BF4DF808EDB9
:100AE000FFF7EAFF34BF012000205DF808FB00BFDC
:100AF0004DF808EDFFF7E0FF94BF012000205DF8FE
:100B000008FB00BF4DF808EDFFF7CEFF94BF0120B2
:100B100000205DF808FB00BF4DF808EDFFF7C4FFAB
:100B200034BF012000205DF808FB00BF4FEA410CF4
:100B30007FEA6C5C02D150EA013C0AD14FEA430CD7
:100B40007FEA6C5C02D152EA033C02D14FF0000014
:100B500070474FF0010070474FEA410212F5001252
:100B600015D211D56FF47873B3EB625212D94FEAF4
:100B7000C12343F0004343EA505311F0004F23FADE
:100B800002F018BF404270474FF00000704750EA33
:100B9000013005D111F0004008BF6FF000407047F0
:100BA0004FF00000704700BF4A0011D212F500124A
:100BB00011D20DD56FF47873B3EB62520ED44FEAB5
:100BC000C12343F0004343EA505323FA02F0704735
:100BD0004FF00000704750EA013002D14FF0FF3073
:100BE00070474FF0000070474FEA4102B2F1E04316
:100BF00024BFB3F5001CDCF1FE5C0DD901F0004C04
:100C00004FEAC0024CEA5070B2F1004F40EB830053
:100C100008BF20F00100704711F0804F21D113F17F
:100C20003872BCBF01F00040704741F480114FEAB8
:100C30005252C2F11802C2F1200C10FA0CF320FA41
:100C400002F018BF40F001004FEAC1234FEAD3235E
:100C500003FA0CFC40EA0C0023FA02F34FEA4303C8
:100C6000CCE77FEA625307D150EA01331EBF4FF051
:100C7000FE4040F44000704701F0004040F0FE406C
:100C800040F40000704700BF53B94AB9002908BFBB
:100C900000281CBF4FF0FF314FF0FF3000F0AAB921
:100CA000ADF1080C6DE904CE00F03CF8DDF804E08D
:100CB000DDE9022304B0704738B500220023044662
:100CC0000D46FFF70BFF28B920462946BDE83840FE
:100CD00000F00AB8204605F1004100F005F8404256
:100CE00061EB410138BD00BFD0B50C4B0022064678
:100CF0000F46FFF781FCFFF757FF0446FFF702FCA2
:100D0000074B0022FFF778FC02460B463046394677
:100D1000FFF7BAFAFFF748FF2146D0BD0000F03DCB
:100D20000000F0412DE9F047089D04468E46002B57
:100D30004DD18A42944669D9B2FA82F252B101FA8F
:100D400002F3C2F1200120FA01F10CFA02FC41EA9F
:100D5000030E94404FEA1C48210CBEFBF8F61FFA24
:100D60008CF708FB16E341EA034306FB07F19942BF
:100D70000AD91CEB030306F1FF3080F01F81994272
:100D800040F21C81023E63445B1AA4B2B3FBF8F04C
:100D900008FB103344EA034400FB07F7A7420AD9D3
:100DA0001CEB040400F1FF3380F00A81A74240F2FB
:100DB00007816444023840EA0640E41B00261DB166
:100DC000D4400023C5E900433146BDE8F0878B429B
:100DD00009D9002D00F0EF800026C5E9000130465A
:100DE0003146BDE8F087B3FA83F6002E4AD18B4234
:100DF00002D3824200F2F980841A61EB03030120DE
:100E00009E46002DE0D0C5E9004EDDE702B9FFDEC9
:100E1000B2FA82F2002A40F09280A1EB0C014FEA74
:100E20001C471FFA8CFE0126200CB1FBF7F307FBD1
:100E3000131140EA01410EFB03F0884208D91CEB74
:100E4000010103F1FF3802D2884200F2CB80434611
:100E5000091AA4B2B1FBF7F007FB101144EA0144F0
:100E60000EFB00FEA64508D91CEB040400F1FF317F
:100E700002D2A64500F2BB800846A4EB0E0440EA6D
:100E800003409CE7C6F12007B34022FA07FC4CEA76
:100E9000030C20FA07F401FA06F31C43F9404FEA69
:100EA0001C4900FA06F3B1FBF9F8200C1FFA8CFE7E
:100EB00009FB181140EA014108FB0EF0884202FAD2
:100EC00006F20BD91CEB010108F1FF3A80F0888093
:100ED000884240F28580A8F102086144091AA4B250
:100EE000B1FBF9F009FB101144EA014100FB0EFED1
:100EF0008E4508D91CEB010100F1FF346CD28E4500
:100F00006AD90238614440EA0840A0FB0294A1EB90
:100F10000E01A142C846A64656D353D05DB1B3EBED
:100F2000080261EB0E0101FA07F722FA06F3F1401D
:100F30001F43C5E9007100263146BDE8F087C2F1C4
:100F40002003D8400CFA02FC21FA03F3914001433C
:100F50004FEA1C471FFA8CFEB3FBF7F007FB103675
:100F60000B0C43EA064300FB0EF69E4204FA02F421
:100F700008D91CEB030300F1FF382FD29E422DD974
:100F8000023863449B1B89B2B3FBF7F607FB1633A9
:100F900041EA034106FB0EF38B4208D91CEB010129
:100FA00006F1FF3816D28B4214D9023E6144C91AA9
:100FB00046EA004638E72E46284605E70646E3E6B9
:100FC0001846F8E64B45A9D2B9EB020864EB0C0EC3
:100FD0000138A3E74646EAE7204694E74046D1E7D2
:100FE000D0467BE7023B614432E7304609E7644480
:100FF000023842E7704700BF08B50268034B9A42C7
:1010000000D008BD03F020FAFBE700BF0014004049
:1010100072B6FEE700B599B04422002107A809F096
:10102000C3FA0023029303930493059306934FF4AA
:10103000007005F0FDFA00283BD1214B9A6D42F07B
:1010400080529A659B6D03F080530093009B1D4A6C
:10105000136823F4C06343F400731360136803F44C
:10106000C0630193019B0A2207924FF480730A9395
:1010700001210C9110230B930223119312931391CE
:101080001492072215921693179307A803F0A4FA57
:1010900088B90F230293032303930023049305933A
:1010A0000693042102A803F0A5FD30B919B05DF83C
:1010B00004FBFFF7ADFFFFF7ABFFFFF7A9FF00BF92
:1010C000001002400070004008B503F0ADF9FFF7D2
:1010D000A1FF00F037F800F025FA00F089FC4FF48A
:1010E000165000F0A1FA4FF4E13000F0B7FA00F02A
:1010F00043FA142003F0BAF900F046FC00F0DCFBE0
:1011000001F007FC01F0DAFE012001F08EFD01F094
:10111000D9FC02F049FA4FF4FA7003F0A7F901F094
:1011200067FA03F063F902F0D1FF01214FF4007078
:1011300003F038F908F0DEFD00F0BEF908F0ECFD30
:10114000FEE700002DE9F04F8DB0002407940894CD
:1011500009940A940B94B94BDA6C42F01002DA64E9
:10116000DA6C02F010020092009ADA6C42F004028B
:10117000DA64DA6C02F004020192019ADA6C42F04D
:101180008002DA64DA6C02F080020292029ADA6C6F
:1011900042F00102DA64DA6C02F001020392039A6F
:1011A000DA6C42F00202DA64DA6C02F002020492B3
:1011B000049ADA6C42F00802DA64DA6C02F008028F
:1011C0000592059ADA6D42F00102DA65DB6D03F0F3
:1011D00001030693069BDFF86C820122082140463A
:1011E00004F091FB012240F203414FF0904004F0E3
:1011F0008AFBDFF8549201220221484604F083FB67
:101200008F4F01228021384604F07DFBDFF83CA29D
:1012100001221146504604F076FB402307934FF419
:10122000041BCDF820B0099403260A9607A950465E
:1012300004F062FA4FF400530793CDF820B00994FC
:101240000A9607A9404604F057FA08230793012598
:10125000089509940A9607A9404604F04DFA0796A6
:10126000089509940A9607A94FF0904004F044FAB3
:10127000302307934FF444130893099407A9404679
:1012800004F03AFA02230793089509940A9507A9EE
:10129000484604F031FA4FF48063079308950994A7
:1012A0000A9507A94FF0904004F026FA802307938F
:1012B000089509940A9507A9384604F01DFA079580
:1012C000089509940A9507A9504604F015FA4FF0BD
:1012D000B008CDF81C800895099402230A9307A949
:1012E0004FF0904004F008FA4023079308940994C3
:1012F00007A94FF0904004F0FFF92A4641464FF00D
:10130000904004F000FB22460521384604F0FBFA29
:101310004FF00508CDF81C8008940223099307A913
:10132000384604F0E9F92A464FF48041484604F073
:10133000EAFA22464FF68271504604F0E4FA224659
:1013400047F60841484604F0DEFA22464FF47F4152
:10135000384604F0D8FA2A464FF480714FF0904096
:1013600004F0D1FA4FF682730793089509940A9610
:1013700007A9504604F0C0F947F60C4307930895B7
:1013800009940A9607A9484604F0B6F94FF47F433A
:101390000793089509940A9607A9384604F0ACF912
:1013A0004FF480730793089509940A9607A94FF0A4
:1013B000904004F0A1F90795CDF820B0099407A951
:1013C000384604F099F90795CDF820B0099407A99B
:1013D000384604F091F9224607210A2005F082F9E7
:1013E0000A2005F0B7F922464146172005F07AF9A0
:1013F000172005F0AFF92A464146282005F072F97A
:10140000282005F0A7F922464146172005F06AF981
:10141000172005F09FF922464146282005F062F981
:10142000282005F097F922464146062005F05AF992
:10143000062005F08FF90DB0BDE8F08F00100240D6
:10144000000C004800080048000400480010004854
:1014500008B50022044B33F82010044B53F8200049
:1014600004F051FA08BD00BF3C0000202C00002011
:1014700008B50122044B33F82010044B53F8200028
:1014800004F041FA08BD00BF3C0000202C00002001
:1014900008B5012008F0BAFCFBE708B5012008F008
:1014A000B5FCFBE708B5012008F0B0FCFBE708B588
:1014B000012008F0ABFCFBE708B50E4A00210E48FE
:1014C00008F046FC0D4B18600D4A00210D4808F04D
:1014D0003FFC0D4B18600D4A00210D4808F038FC08
:1014E0000C4B18600C4A00210C4808F031FC0C4BE6
:1014F000186008BDE0EF0008911400087802002091
:1015000098EF00089B14000870020020BCEF000850
:10151000A51400087402002074EF0008AF1400083E
:101520006C02002000B583B0124B9A6C42F00202AC
:101530009A649A6C02F002020092009A9A6C42F04D
:1015400001029A649B6C03F001030193019B00224A
:101550000521102005F0C6F8102005F0FBF8002248
:101560000521452005F0BEF8452005F0F3F803B04D
:101570005DF804FB0010024008B51148114B0360F0
:10158000A3F13E53A3F57D23A3F2446343600023FC
:1015900083600122C260036143618361C3610362AE
:1015A00004F0B6FB28B90021054804F082FE18B902
:1015B00008BDFFF72DFDF6E7FFF72AFDF8E700BFAE
:1015C0007C0200200054004000B587B00023019346
:1015D00002930393049305930268104B9A4202D03E
:1015E00007B05DF804FB4FF440730193122302939C
:1015F0000123039303230493042305930DEB0301B9
:10160000074804F079F8074B9A6D42F400129A6586
:101610009B6D03F400130093009BE1E7005400402E
:10162000000400480010024008B50A4B0A4A1A603C
:10163000586000229A60DA601A610C2159619A613F
:101640001A625A62184605F070FE00B908BDFFF72D
:10165000DFFCFBE7B00B00200080004008B50B4B1F
:101660000B4A1A60586000229A60DA601A610C21F5
:1016700059619A61DA611A625A62184605F055FE9C
:1016800000B908BDFFF7C4FCFBE700BFC00C002099
:101690000044004030B5ABB00446002125912691AE
:1016A000279128912991882203A808F07DFF2368BB
:1016B0005E4A934207D05E4A934248D05D4A9342C5
:1016C00071D02BB030BD202303934FF400631693E9
:1016D00003A803F0F9FC002833D1574BDA6D42F030
:1016E0000102DA65DB6D03F001030093009B032325
:1016F00025930222269201222792289308232993D8
:1017000025A94E4803F0F8FF4D484E4B03600423D3
:10171000436000238360C360802202614361836170
:10172000C361036204F00CFE70B9454B63679C62B1
:1017300000220521462004F0D5FF462005F00AF8D6
:10174000BFE7FFF765FCC8E7FFF762FCEDE70123A1
:1017500003930223119303A803F0B6FC00BB364B9E
:101760001A6E42F480421A661B6E03F480430193A2
:10177000019BC02325930223269301232793032350
:1017800028930723299325A92F4803F0B5FF0022AA
:101790000F21252004F0A6FF252004F0DBFF90E7B1
:1017A000FFF736FCDBE702230393129303A803F051
:1017B0008BFC002834D1204B9A6D42F400329A659C
:1017C0009B6D03F400330293029B0C2325930225A7
:1017D000269501232793032328930723299325A9DB
:1017E0004FF0904003F088FF1848194B03604560A4
:1017F00000238360C3608022026143618361C3610F
:10180000036204F09DFD70B9104B63679C62002277
:101810000F21262004F066FF262004F09BFF50E7EE
:10182000FFF7F6FBC7E7FFF7F3FBEDE700800040AB
:101830000038014000440040001002400008004809
:10184000D80A00208004024000040048680B0020F1
:101850006C000240064BDB6913F0800FFAD080B2B7
:10186000034B1885024BDB6913F0400FFAD0704729
:101870000044004070B506460D46002403E0305D8C
:10188000FFF7E8FF0134A542F9D870BD0DE0094B20
:10189000DB6913F0800FFAD0013092B2054B1A8544
:1018A000044BDB6913F0400FFAD00278002AEED126
:1018B000704700BF0044004038B50B4C236810252A
:1018C0001D62022002F0D2FD236840221A624FF40A
:1018D00080620649204605F0ADFD226813682B435F
:1018E000136023681D6238BDC00C0020D80600209C
:1018F000064BDB6913F0800FFAD080B2034B1885DA
:10190000024BDB6913F0400FFAD0704700800040B3
:1019100070B506460D46002403E0305DFFF7E8FF92
:101920000134A542F9D870BD10B5044602E0013477
:10193000FFF7DEFF20780028F9D110BD0F4B1B68A0
:10194000DA6912F0100F00D1704710B510221A6238
:101950000A4C204604F053FF636F1B685B68084A1B
:101960001360C3F5806307494B80012301F8043BF2
:101970004FF48062204605F05DFD10BDB00B0020E5
:10198000480D0020D002002038B50B4C23681025EC
:101990001D62022002F06AFD236840221A624FF4A1
:1019A00080620649204605F045FD226813682B43F6
:1019B000136023681D6238BDB00B0020D4020020E4
:1019C0000FB400B5ADF20C4D0DF5826353F8042B46
:1019D00001934FF4806102A80AF090FC02A8FFF77F
:1019E00055FF0DF20C4D5DF804EB04B0704700009C
:1019F00000B587B0002301930293039304930593EA
:101A000000931B481B4A026043607F228260FF22D2
:101A1000C260036143618361C36105F097FD50B902
:101A20000021134805F00CFE43F2F223984205D141
:101A300007B05DF804FBFFF7EBFAF1E715238DF82B
:101A4000043057238DF8053006238DF8003010231D
:101A50008DF801300C238DF8023018238DF80330F7
:101A600043F2F2220021024805F0DEFDE0E700BF6C
:101A70004C0D00200028004010B5A2B0044688227A
:101A80000021684608F090FD2268114B9A4201D06F
:101A900022B010BD4FF4003300934FF40073219334
:101AA000684603F011FB78B90A4AD2F8903043F443
:101AB0000043C2F8903000220521032004F012FEFA
:101AC000032004F047FEE3E7FFF7A2FAECE700BFCC
:101AD000002800400010024002680E4B9A4200D0DD
:101AE000704700B583B003F500339A6D42F01002E1
:101AF0009A659B6D03F010030193019B032205215E
:101B0000362004F0EFFD362004F024FE03B05DF82B
:101B100004FB00BF0010004000B587B00023019314
:101B2000029303930493059302680E4B9A4202D0EA
:101B300007B05DF804FB03F55043DA6C42F0020293
:101B4000DA64DB6C03F002030093009B4FF4004364
:101B50000193022302930E23059301A9024803F087
:101B6000CBFDE5E7004001400004004810B596B009
:101B700004462948294B0360072343600023836000
:101B800040F6B832C2600361436106F039F80028BC
:101B900032D100231393159313A91F4806F002FABC
:101BA00000282CD160230C930D9400230E930F93E7
:101BB00010931193129304220CA9174806F096F87B
:101BC00000BB0023019302930393049305934FF406
:101BD0000052069207930B9301A90F4806F02EFAC4
:101BE00098B90D4C2046FFF797FF0421204606F0D8
:101BF00029F968B916B010BDFFF70AFAC9E7FFF76F
:101C000007FACFE7FFF704FADBE7FFF701FAE8E7A7
:101C1000FFF7FEF9EEE700BF700D00200040014025
:101C2000FEE7FEE7FEE7FEE7FEE7704708B502487D
:101C300005F0E0FC08BD00BF4C0D002008B503F026
:101C40006FFC08BD08B5012003F06CFE08BD08B5A7
:101C5000102003F067FE08BD08B5024804F07CFCC4
:101C600008BD00BF200B002008B5024804F074FC3A
:101C700008BD00BF680B002008B5202003F052FE0D
:101C8000402003F04FFE08BD08B5024804F058FE9E
:101C900008BD00BF380C002008B502F0AFFA0248BA
:101CA00004F04EFE08BD00BFC00C002008B54FF484
:101CB000005003F037FE08BD08B5024805F047FEA6
:101CC00008BD00BFBC0D002008B5024805F03FFE6E
:101CD00008BD00BFDC50002008B5024804F03CFC01
:101CE00008BD00BFD80A002008B5FFF727FE02484C
:101CF00004F026FE08BD00BFB00B002000B583B085
:101D0000114B1A6E42F001021A661A6E02F00102BD
:101D10000092009A9A6D42F080529A659B6D03F092
:101D200080530193019B00220F216FF0010004F00A
:101D3000D9FC00220521042004F0D4FC042004F086
:101D400009FD03B05DF804FB00100240012070475C
:101D500008B508F0E1FB162303604FF0FF3008BD23
:101D600008B54FF0FF31FFF7F3FFFEE770B50C4603
:101D70001646002506E0AFF30080214601F8010B6E
:101D800001350C46B542F6DB304670BD10464FF0CB
:101D9000000C0AE000BF4FF060431B68002BF9D035
:101DA0004FF060431A700CF1010C844510DA11F801
:101DB000012B4FF06043D3F8803E13F0010FF2D0B7
:101DC0004FF06043D3F8003E13F0010FE3D1EAE790
:101DD0007047000008B503460B4A126842B10A4A30
:101DE000106803446A46934206D8074A136008BD48
:101DF000054A06491160F2E708F08EFB0C230360E8
:101E00004FF0FF30F3E700BF080E002038510020EC
:101E10004FF0FF3070474FF400534B600020704785
:101E2000012070470020704738B5054602F018FBC6
:101E3000044602F015FB001BA842FAD338BD00008F
:101E400010B50446114B1B7853B902F009FB104B37
:101E50001B6898420CD202F003FB012090B910BD20
:101E600002F0FEFA0A4B1860084B00221A70ECE7E9
:101E700002F0F6FA064B1B68C31AA34234BF0020D7
:101E80000120EBE7014B01221A70E8E70500002072
:101E90000C0E002005E0203B01F8013B10F8013B4F
:101EA00053B10378A3F16102D2B2192AF3D9202BDE
:101EB000F4D001F8013BF1E770470CE001300CF180
:101EC000010C02789CF800309A4202D10AB1002B32
:101ED000F4D14BB1013003782BB10B780BB18C46A8
:101EE000EFE7002070470020704770B515461C468C
:101EF000FFF7E3FF58B38446034600211A78EAB19E
:101F00002A78DAB1AE46002004E001330EF1010E6A
:101F10000130C0B21E789EF80020964202D10EB168
:101F2000002AF2D14AB110B1013B0138C0B20133ED
:101F30000144C9B20131C9B2E0E7012239B132B17D
:101F40001CF8013B04F8013B0139C9B2F6E770BD4A
:101F500010B586460020024606E0392B21D903EB56
:101F6000001057380132D2B28A4219D20EEB020465
:101F70001EF80230A3F1410C5FFA8CFCBCF1190F82
:101F800001D82033DBB22370A3F1300C5FFA8CFC54
:101F9000BCF1090FE1D9A3F16104E4B2192CDCD939
:101FA00010BD03EB00103038DCE70378012B03D0C1
:101FB0004378012B15D07047002303700B78032B57
:101FC000F9D8DFE803F005080B0200230B70704717
:101FD00001230B70704700230B70704700230B70B8
:101FE0007047002343700B78012B09D0032B04D0DA
:101FF000002BE0D102230B70704702230B70704757
:1020000002230B70D7E7000010B54FF400513D4894
:1020100003F072FC20B940213B4803F06DFCA0B1F5
:102020004FF40051374803F067FC78B1402136483F
:1020300003F062FC88B1354B1968354B1868FFF71F
:10204000B4FF344B1B78012B0ED010BD324B012254
:102050001A70C82007F0DAFEE8E72F4B01225A7009
:10206000C82007F0D3FEE6E701212C4803F044FC2A
:102070000028EAD1062004F07BFB294B1B7A4BB1E8
:10208000284B01225A61962007F0C0FE062004F07A
:1020900061FBDAE7244C2146A01E01F0ADFBA31F33
:1020A0000122A27093ED037A34F8022C07EE902AF5
:1020B000F8EEE77A27EE877AB4F90E2007EE902A39
:1020C000F8EEE77A77EE877AFCEEE77A17EE902A59
:1020D00024F8062C93ED047ADA8807EE902AF8EEBD
:1020E000E77A27EE877AB4F9102007EE902AF8EE07
:1020F000E77A77EE877AFCEEE77A17EE902A24F8F3
:10210000042CBDE700080048001000480000002033
:10211000080000200C000020100E0020000C0048D9
:102120000C100020000401401210002008B5022805
:1021300003D0032806D0022008BD1021044803F074
:10214000DBFBF9E72021024803F0D6FBF4E700BFF0
:102150000008004808B510BB89B1012921D14FF012
:10216000904003F0C9FB01281BD1002201214FF050
:10217000904003F0C8FB0A20FFF756FE11E0012152
:102180004FF0904003F0B8FB58B9012211464FF0D0
:10219000904003F0B8FB0A20FFF746FE01E001285B
:1021A00000D008BD022910D00329FAD108210E4819
:1021B00003F0A2FB0128F4D1002208210A4803F011
:1021C000A2FB0A20FFF730FEEBE70821064803F0E8
:1021D00093FB0028E5D101220821034803F093FB7B
:1021E0000A20FFF721FEDCE70008004808B50D488B
:1021F000FFF7E6FB02210120FFF7ACFF00220221DE
:102200004FF0904003F07FFB0F20FFF70DFE0122FF
:1022100002214FF0904003F076FBC820FFF704FE48
:1022200008BD00BF04F0000810B5044601461D4873
:10223000FFF7C6FB202C16D863B2EBB1013C1F2C74
:102240001AD8DFE804F0161A191E191919221919DB
:1022500019191919192619191919191919191919E1
:1022600019191919192A402C06D10F48FFF7A8FB94
:1022700002E00E48FFF7A4FB10BD0D48FFF7A0FBDE
:10228000FAE70C48FFF79CFBF6E70B48FFF798FBD3
:10229000F2E70A48FFF794FBEEE70948FFF790FBE7
:1022A000EAE700BF18F00008E0F000082CF0000892
:1022B00044F0000858F000086CF0000898F000089E
:1022C000B8F0000838B504460D46084B01221A70D4
:1022D0000320FFF72BFFA04206D12846FFF7B0FDF1
:1022E0000028F5D0002000E0012038BD05000020C6
:1022F000F0B5C7B007460C46002541954295439579
:102300004495459502210120FFF724FF29462846E0
:10231000FFF720FF01AE31463846FFF7BBFD3046E0
:10232000FDF756FF3218274B19889B78315293706E
:10233000254800F8045B4FF48062294608F034F920
:102340003046FFF7F1FA214B01221A701E4A12782B
:102350002AB94FF4FA70FFF773FD0028F6D01A4837
:10236000002300F8043B1A49FFF7A7FD0546F0B12A
:1023700041AB184A18493846FFF7B7FD0022013231
:10238000D2B202F58C710DEB010C1CF8140C002874
:10239000F5D13A220CF8142C23460D4A41A90F48D6
:1023A000FFF7A3FD281E18BF012047B0F0BD0B4E5C
:1023B0003046FDF70DFF02463146204608F0E6F8AC
:1023C000F0E700BF38F10008D0020020050000202F
:1023D00004F1000820F1000824F10008D4020020D4
:1023E00070B506462F48FFF7EBFA02210120FFF7F0
:1023F000B1FE01210020FFF7ADFE2B4B01221A7028
:102400000220FFF793FE05460320FFF78FFE0446E8
:102410004FF47A7006FB00F0FFF712FD0246F8B9A0
:10242000224B1B784BB3224B1B7853BB012DE7D1BA
:10243000012CE5D11C4B01221A701D4B1B782BB9C6
:102440004FF49670FFF7FCFC0028F6D0184B1B7871
:10245000FBB91848FFF7B4FA0122174B1A700AE0CB
:102460000024154B1C7003210120FFF773FE134855
:10247000FFF7A6FA2246104670BD0F4B00211970D7
:10248000F9E70B480023037041880430FFF7F2F9A5
:10249000CCE707480023037041880430FFF7EAF9CE
:1024A000D7E700BF28F10008050000200400002045
:1024B000D00200204CF10008AA0E00203CF10008D8
:1024C000F8B506460D46046803E0204608F056F8C5
:1024D0003C4624B3A768012D09D0022D12D0002D4F
:1024E000F6D160680028F0D008F048F8EDE72388BE
:1024F000002BEDD1606808B108F040F8204608F0E4
:102500003DF8E5E72388002BE2D1002FE0D060689A
:1025100008B108F033F8204608F030F8D8E7002377
:102520003360F8BD08B5034B00221A70FFF7F0F9CD
:1025300008BD00BFD0020020F8B50646036893B17D
:102540001D469B68002BFBD10C2008F00FF80746B6
:1025500050B3174B5C8804803CB9002343607B6810
:1025600043B1002415E01D46EEE7204607F0FEFFCC
:102570007860F4E76CB1384608F000F80D48FFF7D2
:102580001FFA0EE07A680A4B23441B791355013475
:10259000A4B23B88A342F5D80023BB6033680BB1DB
:1025A000AF60F8BD3760FCE70348FFF709FAF8E7CA
:1025B000D002002060F10008B0F1000870B50646B6
:1025C0000C46084D96220021284607F0EDFF2946CB
:1025D0003046FFF78DFE02212819FFF7B9FCC0B283
:1025E00070BD00BF140E002008B5FFF7B3FD08BD95
:1025F00008B5FFF7FBFD08BD08B5FFF7F1FE08BD04
:1026000038B50446084D00232B70FFF7F1FF2B78F7
:1026100023B103210120FFF79DFD38BD2046FFF7C0
:10262000DFFE2870F5E700BFAA0E002070B5064651
:102630000D461446594B1B78062B27D800212046FF
:10264000FFF73EFF564B1B78002B00F0A080002DBB
:1026500000F09F8002210120FFF77CFD0121002076
:10266000FFF778FD4FF47A710020FFF72BFEA8B139
:1026700029463046FFF756FF4FF47A710120FFF7E5
:1026800021FE88B1454B00221A7023E0434B002203
:102690001A704FF49670FFF7B3FFCFE73F4A1378F5
:1026A00001331370082075E03C4A1378013313702E
:1026B00020206FE03B4B1B78012B24D0394B0022AC
:1026C0005A80394B1B781F2B2BD00320FFF72EFD90
:1026D00000284DD14EF660210020FFF7F3FD0028C1
:1026E00059D064210120FFF7EDFD304B01221A7013
:1026F0002C4B1B78002BDDD14FF49670FFF7A0FB1D
:102700000028F5D0D6E7274B59880029D6D018469F
:10271000002300F8043BFFF7ADF82046FFF70CFF5D
:10272000CFE70320FFF702FD0028CED11D4B5B88C9
:10273000092BCAD8012211461D48FFF73FFF012887
:1027400007D1022225211B48FFF738FF164B1870CE
:10275000BBE7134C00232370134A13701648FFF78E
:102760002FF94FF49670FFF73BFE2070042011E024
:102770000220FFF7DBFC20B10B4B00221A70012076
:1027800008E0094A137801331370042002E00220A4
:1027900000E0402070BD1020FCE700BF120E0020BA
:1027A000AA0E0020D0020020130E002005000020F9
:1027B000E8F10008F4F1000800F2000870B5C0B0BC
:1027C00005460C46164600210091FB2201A807F0A1
:1027D000EBFE22462946684607F0D8FE22466946A7
:1027E0000648FFF7EDF8324621462846FFF71EFF60
:1027F0000446FFF719FD204640B070BD14F20008F2
:1028000038B504460D4603F04FFD60B90A4B23600E
:102810000123E360094B636000232361A361E3614B
:102820002362A5606361204603F072FA002120460E
:1028300003F03FFD38BD00BF00540040BC7D701068
:1028400008B501460148FFF7DBFF08BDAC0E0020CC
:1028500000487047AC0E0020F0B585B007460D4625
:102860001646FFF7F5FF184B1B88ADF80C30002318
:102870008DF80E308DF80C70022E22D104462B7884
:102880008DF80D306B788DF80E30104B01221A70D8
:1028900004E04FF4FA70FFF7D3FA90B94FF47A736B
:1028A0000093032303AA8021204603F095FA40B148
:1028B000204603F0FCFC0428EBD0054BF3221A70F1
:1028C000E7E705B0F0BD00BF40EF000805000020BD
:1028D000AB0E002000B583B08023ADF80430022297
:1028E00001A91046FFF7B8FF0F2001F0BFFD03B0AC
:1028F0005DF804FB00B583B0030A8DF804308DF851
:102900000500022201A91046FFF7A6FF03B05DF8FB
:1029100004FB08B58020FFF793FFFFF7DBFF4FF4C0
:102920008050FFF7E7FF0A2001F0A0FD08BD00007E
:1029300070B584B00D4616468DF80F00FFF788FF7E
:1029400004461D4B01221A7004E04FF4FA70FFF7A1
:1029500077FA98B94FF47A70009001230DF10F02C5
:102960008021204603F038FA40B1204603F09FFC56
:102970000428EAD0114BF5221A70E6E70E4B01222B
:102980001A7004E04FF4FA70FFF75AFA90B94FF456
:102990007A70009033462A468121204603F0EEFAF1
:1029A00040B1204603F083FC0428EBD0034BF42213
:1029B0001A70E7E704B070BD05000020AB0E0020E0
:1029C00000B583B0022201A90020FFF7B1FF9DF8F6
:1029D00004009DF8053043EA002003B05DF804FBD5
:1029E00000B583B0022201A90120FFF7A1FF9DF8E5
:1029F00004009DF8053043EA002003B05DF804FBB5
:102A000008B501460148FFF7FBFE08BD000F002096
:102A100000487047000F00202DE9F04385B0814643
:102A2000884617461E46FFF7F3FF05460D4B012269
:102A30001A704FF47A7402940196009743464A46FE
:102A40003821284603F058FB40B14FF4FA70FFF7E5
:102A5000F7F90028EDD0044BED221A7005B0BDE85F
:102A6000F08300BF05000020AB0E002070B584B0DD
:102A700006460D46FFF7CCFF04460023ADF80C30A8
:102A80008DF80C602B788DF80D300C4B01221A70EC
:102A90004FF47A730093022303AA3821204603F0EF
:102AA0009BF940B14FF4FA70FFF7CAF90028EFD054
:102AB000034BED221A7004B070BD00BF050000206A
:102AC000AB0E002000B583B03820FFF799FF01233B
:102AD0000DF1070219462A20FFF79EFF9DF80730E7
:102AE00023F001038DF8073001220DF107012A20A0
:102AF000FFF7BCFF01230DF1060219460E20FFF778
:102B00008BFF9DF8063043F001038DF8063001225B
:102B10000DF106010E20FFF7A9FF9DF8073043F0E5
:102B200001038DF8073001220DF107012A20FFF77C
:102B30009DFF0A2001F09AFC03B05DF804FB000041
:102B400008B501460148FFF75BFE08BD540F0020A1
:102B500000487047540F002070B584B006460D46FB
:102B6000FFF7F6FF04460023ADF80C308DF80C603B
:102B70002B788DF80D300C4B01221A704FF47A73BC
:102B80000093022303AAC021204603F025F940B197
:102B90004FF4FA70FFF754F90028EFD0034BEF22FF
:102BA0001A7004B070BD00BF05000020AB0E0020FD
:102BB00000B583B0E8B9B8238DF8073001220DF1D4
:102BC00007012620FFF7C8FF07238DF807300122F1
:102BD0000DEB03011320FFF7BFFFB9238DF807307A
:102BE00001220DF107012620FFF7B6FF03B05DF8C3
:102BF00004FB21238DF8073001220DF10701262067
:102C0000FFF7AAFF00238DF8073001220DF107011D
:102C10002720FFF7A1FF11238DF8073001220DF1C6
:102C200007012820FFF798FFE0E710B50446C02011
:102C3000FFF786FF2046FFF7BBFF0A2001F016FCD6
:102C400010BD00002DE9F04385B081468846174647
:102C50001E46FFF77DFF05460D4B01221A704FF40B
:102C60007A7402940196009743464A46C02128464A
:102C700003F042FA40B14FF4FA70FFF7E1F8002890
:102C8000EDD0044BEF221A7005B0BDE8F08300BF11
:102C900005000020AB0E002000B583B001230DF12C
:102CA000070219460020FFF7CDFF9DF8070003B08B
:102CB0005DF804FB00B583B000238DF807308DF874
:102CC00006308DF80530FFF7E7FF01230DF107020D
:102CD00019461846FFF7B6FF01230DF10602194603
:102CE0000220FFF7AFFF01230DF105021946032073
:102CF000FFF7A8FF9DF807009DF806301B0243EA86
:102D000000439DF805001843FDF70CFC0022054B1D
:102D1000FDF772FCFDF768FF00EE100A03B05DF8E6
:102D200004FB00BF0000903F08B501460148FFF7D3
:102D300067FD08BDA80F002000487047A80F0020BD
:102D400070B584B00D4616468DF80F00FFF7F4FFFE
:102D50000446174B01221A704FF47A700090012339
:102D60000DF10F028821204603F036F840B14FF4F0
:102D7000FA70FFF765F80028EED00E4BF2221A70B9
:102D80000B4B01221A704FF47A70009033462A469A
:102D90008921204603F0F2F840B14FF4FA70FFF7B2
:102DA0004FF80028EFD0034BF1221A7004B070BD29
:102DB00005000020AB0E002000B583B0022201A95F
:102DC0000020FFF7BDFF9DF804009DF8053043EAA1
:102DD000002003B05DF804FBD0B5FFF7EDFF04461B
:102DE000C0F30F3301209840FDF79CFB0AA3D3E901
:102DF0000023FDF701FC06460F46C4F30B00FDF768
:102E000091FB32463B46FDF7F7FBFDF7EDFE00EE8A
:102E1000100AD0BDAFF300807B14AE47E17A843F47
:102E200070B584B006460D46FFF786FF04460E4B8C
:102E30001B88ADF80C3000238DF80E308DF80C6037
:102E40002B788DF80D306B788DF80E304FF47A7347
:102E50000093032303AA8821204602F0BDFF002827
:102E6000F4D104B070BD00BF44EF000800B583B0DA
:102E7000022201A90120FFF763FF9DF804209DF8BD
:102E8000053043EA0223C3F30B0242F4404213F439
:102E9000C06F05D123F4C0631B051B0D43F44442EE
:102EA000130A8DF804308DF80520022201A90120B3
:102EB000FFF7B6FF002003B05DF804FB08B58820DB
:102EC000FFF732FFFFF7D2FF0A2001F0CFFA08BD6B
:102ED00038B50546164C00220821204602F013FDA5
:102EE00000224FF40051204602F00DFD00224FF465
:102EF00080714FF0904002F006FD0E4B5A69D2B23D
:102F00005A615A6942EA05225A6101224FF48071DE
:102F10004FF0904002F0F7FC01224FF400512046A0
:102F200002F0F1FC01220821204602F0ECFC38BD41
:102F3000000400480010004838B50546164C012230
:102F40000821204602F0DFFC00224FF40051204609
:102F500002F0D9FC00224FF480714FF0904002F053
:102F6000D2FC0E4B5A69D2B25A615A6942EA052222
:102F70005A6101224FF480714FF0904002F0C3FC7F
:102F800001224FF40051204602F0BDFC012208212D
:102F9000204602F0B8FC38BD00040048001000488C
:102FA00038B5914C00224FF48051204602F0ABFC22
:102FB00000224FF40061204602F0A5FC01224FF4EC
:102FC0008061204602F09FFC142001F04FFA01229C
:102FD0004FF40051204602F096FC01224FF480711C
:102FE0004FF0904002F08FFC804D012202212846D4
:102FF00002F089FC00220821204602F084FC142003
:1030000001F034FA00224FF48041204602F07BFCAC
:10301000142001F02BFA01228021284602F073FCD3
:103020000A2001F023FA00228021284602F06BFCDE
:10303000962001F01BFA01228021284602F063FC51
:10304000782001F013FA1120FFF742FF0A2001F067
:103050000DFA3A20FFF73CFF0520FFF76DFF362001
:10306000FFF736FF0020FFF767FFB220FFF730FFC2
:103070000C20FFF761FF0C20FFF75EFF0020FFF739
:103080005BFF3320FFF758FF3320FFF755FFB720D2
:10309000FFF71EFF3520FFF74FFFBB20FFF718FF9C
:1030A0003520FFF749FFC020FFF712FF2C20FFF764
:1030B00043FFC220FFF70CFF0120FFF73DFFC320B5
:1030C000FFF706FF0F20FFF737FFC420FFF700FFD1
:1030D0002020FFF731FFC620FFF7FAFE1120FFF78F
:1030E0002BFFD020FFF7F4FEA420FFF725FFA1203F
:1030F000FFF722FFE820FFF7EBFE0320FFF71CFF9E
:10310000E920FFF7E5FE0920FFF716FF0920FFF78A
:1031100013FF0820FFF710FFE020FFF7D9FED020B3
:10312000FFF70AFF0020FFF707FF0520FFF704FF66
:103130000E20FFF701FF1520FFF7FEFE0D20FFF721
:10314000FBFE3720FFF7F8FE4320FFF7F5FE472090
:10315000FFF7F2FE0920FFF7EFFE1520FFF7ECFE68
:103160001220FFF7E9FE1620FFF7E6FE1920FFF711
:10317000E3FEE120FFF7ACFED020FFF7DDFE0020EC
:10318000FFF7DAFE0520FFF7D7FE0D20FFF7D4FE8C
:103190000C20FFF7D1FE0620FFF7CEFE2D20FFF713
:1031A000CBFE4420FFF7C8FE4020FFF7C5FE0E20EF
:1031B000FFF7C2FE1C20FFF7BFFE1820FFF7BCFE82
:1031C0001620FFF7B9FE1920FFF7B6FE1120FFF712
:1031D0007FFE782001F04AF92920FFF779FE2C20A4
:1031E000FFF776FE38BD00BF00040048001000481D
:1031F000F8B505460E4614461F462A20FFF768FE1E
:10320000280AFFF799FEE8B2FFF796FE2C44013C2E
:103210002046002C29DBC0F30720FFF78DFE634218
:10322000E0B2DBB258BF5842C0B2FFF785FE2B2098
:10323000FFF74EFE300AFFF77FFEF0B2FFF77CFE8D
:10324000F419013C2046002C12DBC0F30720FFF7E5
:1032500073FE6342E0B2DBB258BF5842C0B2FFF720
:103260006BFE2C20FFF734FEF8BD04F1FF00D2E71F
:1032700004F1FF00E9E7000038B504461C4B188054
:103280001C4D01220821284602F03DFB00224FF48C
:103290000051284602F037FB00224FF480714FF0B6
:1032A000904002F030FB144A5369DBB2536151691C
:1032B00023029BB20B435361104B5A69D2B25A613D
:1032C00004F47F44586904435C6101224FF4807127
:1032D0004FF0904002F017FB01224FF400512846B6
:1032E00002F011FB00220821284602F00CFB38BD39
:1032F000081000200004004800100048000C00489E
:1033000038B51D4614461346FFF772FF0D4B0022D9
:103310001A800EE02846FFF7AFFF0B480188013105
:103320000180094909888C42F4D8064A1388013380
:103330001380044B1B889C4203D9034B00221A8044
:10334000EFE738BD00100020061000202DE9F047FF
:10335000814688461F46203A5FFA82FA002614E02A
:103360006D080134E4B2072C0DD815F0010FF7D029
:1033700008EB060109EB04003B46012289B280B24A
:10338000FFF7BEFFECE70136F6B20F2E05D8044B6F
:1033900003EB0A139D5D0024E5E7BDE8F08700BF5D
:1033A0004CF2000810B504464FF4A073F02200213F
:1033B0000846FFF71DFF0E4B00221A800FE0204643
:1033C000FFF75AFF0B4A138801331380094B1B8800
:1033D000B3F5A07FF3D3064A138801331380044B5F
:1033E0001B88EF2B03D8034B00221A80EEE710BD99
:1033F000FE0F002004100020F8B504460D461646C6
:103400001F460BE0B5F5A07F10D83B4616F8012B00
:1034100029462046FFF79AFF0834A4B2327862B1F9
:10342000F02CEFD91035ADB20024EBE74FF6FF706A
:10343000FFF7B8FF00252C46E7E7F8BD2DE9F0417E
:1034400080460F4616461C46BDF818505B1A121AE5
:103450009BB292B2FFF7CCFE0D4BA3F800800EE0BA
:103460002846FFF709FF0B49088801300880094BFF
:103470001888A042F4D3064A138801331380044B02
:103480001B88B34202D2034B1F80F0E7BDE8F081F6
:10349000FC0F0020021000202DE9F84380460F4663
:1034A00016469946089C9DF82430012B03D0042B26
:1034B00015D0BDE8F883A9EB0103121A9BB292B2B2
:1034C000FFF796FE07E034F8020BFFF7D5FE013553
:1034D000AE42F8D80137B945EBD94546F8E7A9EB34
:1034E0000109161A1FFA89F3B2B2FFF781FE09FB30
:1034F00006F64FEAD60806F007074FF0000914E079
:1035000040F69320FFF7B8FE7600F6B20135EDB233
:10351000072D07D816F0800FF2D14DF2DB60FFF7D0
:10352000ABFEF1E7013409F10109C14502D2267869
:103530000025EDE74FF0000813E040F69320FFF779
:103540009BFE7600F6B20135EDB2072D07D816F0D6
:10355000800FF2D14DF2DB60FFF78EFEF1E708F14C
:103560000108B845A5D226780025EEE700B583B05E
:103570004BF6FE60FFF716FF4DF2DB630093692305
:10358000F02200210846FFF759FF04230193054B61
:103590000093CC23F02269210020FFF77DFF03B0C8
:1035A0005DF804FB3CF8000808B50421154802F05A
:1035B000A3F9012806D0144B00221A70124B1B7875
:1035C00053B908BD01210F4802F096F90128F2D144
:1035D0000D4B01221A70F1E7FFF7E2FC00F018F83A
:1035E00040F2DC50FEF7C2FAFFF7C0FF4BF6FE6078
:1035F000FFF7D8FE1F23054A78211E20FFF7FCFEA7
:10360000DFE700BF000C00480C00002034F2000887
:1036100008B5012210214FF0904002F074F9012208
:1036200020214FF0904002F06EF9012280214FF0EE
:10363000904002F068F908BD38B50446002515E051
:10364000002280214FF0904002F05DF96400E4B266
:10365000002220214FF0904002F055F90122202154
:103660004FF0904002F04FF90135EDB2072D09D827
:1036700014F0800FE4D0012280214FF0904002F03E
:1036800042F9E3E738BD0021062306E01A46013B74
:10369000DBB2002AFAD10131C9B28AB28242F5D333
:1036A000704738B50446002220214FF0904002F0C8
:1036B0002AF9002210214FF0904002F024F9204610
:1036C000FFF7BAFF0620FFF7DEFF012220214FF0AF
:1036D000904002F018F9002220214FF0904002F0B3
:1036E00012F90024254601E00135EDB20F2D17D85F
:1036F0006400A4B2002220214FF0904002F003F9B0
:10370000012220214FF0904002F0FDF840214FF0BF
:10371000904002F0F1F80128E6D10134A4B2E3E7C9
:103720002409012210214FF0904002F0ECF82046CD
:1037300038BD000030B589B00546002409E02846B0
:10374000FFF7AFFF08AB03EB440323F8200C013471
:10375000A4B20E2CF3D900201AE001339BB20E2B39
:1037600015D808AA02EB400232F8202C08A901EB78
:10377000430131F8201C8A42EFD908AD05EB400C1B
:103780002CF8201C05EB430121F8202CE5E720460E
:103790000D2803D8441CA4B22346E0E700220523E9
:1037A00008E008A901EB430131F8201C0A4492B259
:1037B00001339BB2092BF4D9034BA3FB0232C2F3B2
:1037C0008F0009B030BD00BFCDCCCCCC70B5064663
:1037D0000D46D020FFF7AEFF04469020FFF7AAFF6A
:1037E000632C05D9632805D934802880012070BD59
:1037F0000020FCE70020FAE730B583B005460C4610
:1038000001A90DF10600FFF7E1FF08B903B030BDD3
:1038100069460DF10200FFF7D9FF0028F6D0BDF888
:103820000230BDF80620934203D803F131019142E2
:1038300005DA93421ED302F1310199421CDBBDF837
:103840000000BDF80410884203D800F1310C8C450B
:1038500004DA884212D33131814211DB13445B1008
:103860002B80BDF80430BDF8002013445B1023808A
:103870000120CBE70020C9E70020C7E70020C5E70B
:103880000020C3E703460021084604E011B90130D7
:1038900040B2012101331A781AB1202AF6D0002152
:1038A000F8E701B97047013840B2FBE738B570B1AD
:1038B0000C460546A1B106F05DFC2560002363605F
:1038C0000C4B1A6854601C6006F076FC38BD4FF053
:1038D000500383F31188BFF36F8FBFF34F8FFEE761
:1038E0004FF0500383F31188BFF36F8FBFF34F8FF7
:1038F000FEE700BF1000002038B50A46094B1B68E0
:1039000053B1084C25682B68596807F001FE6B68B5
:1039100023602BB1012038BD024B03491960F0E749
:103920000020F8E7281400201400002058B110B53A
:103930000446082006F0F6FA014668B12046FFF773
:10394000B5FF012010BD4FF0500383F31188BFF382
:103950006F8FBFF34F8FFEE74FF0500383F3118853
:10396000BFF36F8FBFF34F8FFEE700002DE9F047E5
:103970000746884691462B4B1B68ABB10126294B65
:103980001B680BB1002E3DD0002B44D01B689B68F8
:103990003A46494640469847064610B9214B002210
:1039A0001A603046BDE8F0871E4B1F4A1A6009E0D6
:1039B0003846FFF767FF8442E1D10126DFE76A68F6
:1039C000184B1A60174B1D68D5B1D5F800A0DAF86E
:1039D00000603046FCF7FCFB0446024631463846A0
:1039E00007F082FD06460028E9D13B5D202B01D07F
:1039F000002BE4D19AF90C40002CD9DA0126BEE75D
:103A00000126BCE74A460949404607F081FD054BBF
:103A100000221A60C5E74A460549404607F078FD8E
:103A20000026BEE72414002014000020D80301085B
:103A30003004010800487047241000200023136060
:103A40009C460EE0013003780BB1202BFAD10378AD
:103A5000202B01D10130FAE7A3B10CF1010C614533
:103A60000ED08C45EFD300207047136801331360EC
:103A700001310B780BB1202BF7D1136823B17047BC
:103A80000146F6E7002070470020704708B5034B59
:103A9000034A044907F000FD002008BD240000206F
:103AA0001C000020C804010800285BD0F0B52DEDF3
:103AB000028B83B0144605460A46002106F074FDC9
:103AC00001AA01212046FFF7B9FF06466A460221F6
:103AD0002046FFF7B3FF002E4DD000284BD006F054
:103AE00016FD0446A0F57A7241F288339A424FD807
:103AF000554B1B78022B56D1019F3A46534930460D
:103B000007F0F2FC00285CD03A465149304607F0F5
:103B1000EBFC002865D03A464E49304607F0E4FCFD
:103B2000002872D03A464C49304607F0DDFC0028A8
:103B300040F08380FEF754FFFCF7F4FC0022474B73
:103B4000FCF784FEFDF750F808EE100A204600F05E
:103B50008DFCFDEEC87A17EE902A4149284607F001
:103B60009BFC10E04FF0500383F31188BFF36F8F7D
:103B7000BFF34F8FFEE73B4C0FCC28606960AA6013
:103B8000EB6023782B74002003B0BDEC028BF0BDFA
:103B9000354C0FCC28606960AA60EB602068286112
:103BA00023792B75EFE7284B02221A702F4F0FCF86
:103BB00028606960AA60EB603A88BB782A82AB749F
:103BC0009AE7FFF709F9B0EE408A204600F04EFC74
:103BD000FDEEC87A17EE902A2549284607F05CFCCE
:103BE000D1E7FFF767F8B0EE408A204600F03EFCD0
:103BF0009FED207AC8EE077AFDEEE77A17EE902A5D
:103C00001D49284607F048FCBDE7FEF7D9FEFCF742
:103C100089FC0022114BFCF719FEFCF7E5FF08EECA
:103C2000100A204600F022FCFDEEC87A17EE902A1A
:103C30001249284607F030FCA5E7324610492846CD
:103C400007F02AFC9FE700BF2300002010050108B1
:103C500030050108600501088405010800408F4017
:103C60008C050108D0040108E4040108FC040108E3
:103C70001405010800007A443C05010868050108A4
:103C8000A8050108C0B170B582B004460023ADF8A4
:103C90000630384B1B78012B17D1374B1B78002B84
:103CA00037D1354B1B78002B42D1344B1B78002B7E
:103CB00057D1002002B070BD4FF0500383F311883C
:103CC000BFF36F8FBFF34F8FFEE72A4B01221A70AD
:103CD0002B4D0FCD20606160A260E36028682061F9
:103CE000AA88AB79A282A3757820FEF785FC08B973
:103CF0000120DFE7FEF764FE224AA2FB00239B09B6
:103D0000ADF80630204A02210DF10600FEF756FDFF
:103D1000C3E720211D4801F0EFFD0028C1D016485F
:103D200000230370184A81780430FEF747FDBCE792
:103D30002021164801F0E0FD0028B6D10E4B0022EC
:103D40001A70134E06F1300E35460FCD20606160BB
:103D5000A260E3602E4610347545F5D128682060D6
:103D6000A3E706480024047041880430FDF782FD73
:103D700020469FE722000020D4060020D002002029
:103D8000C4050108D34D6210A414002000080048A7
:103D9000DC05010838B558B18446204B1B7883B93F
:103DA0001F4B1B784BBB1F4B1B7873BB002038BDD0
:103DB0004FF0500383F31188BFF36F8FBFF34F8F22
:103DC000FEE70024154B1C70174D0FCDCCF80000FA
:103DD000CCF80410CCF80820CCF80C302A88AB784A
:103DE000ACF810208CF8123002210120FEF7FCFB09
:103DF00021462046FEF7F8FBD2E70948002303706E
:103E000041880430FDF784FDCDE7064800230370A8
:103E100041880430FDF72EFDC8E700BF21000020D7
:103E2000D4060020D00200201006010870B582B030
:103E30000546104601AA0121FFF700FE0446019E37
:103E400032461B4907F050FBB8B1324619492046AB
:103E500007F04AFBF0B132461749204607F044FB11
:103E6000F0B132461549204607F03EFB50B9012219
:103E70008021134801F047FD04E00122114611485A
:103E800001F041FD22461049284607F005FB0020BD
:103E900002B070BD012202210C4801F034FDF1E7AF
:103EA00001224FF480614FF0904001F02CFDE9E7D2
:103EB000240601082C06010834060108380601080A
:103EC000000C0048001000484006010800040048AB
:103ED00070B582B00546104601AA0121FFF7AEFD7C
:103EE0000446019E32461B4907F0FEFAB8B132463D
:103EF0001949204607F0F8FAF0B132461749204632
:103F000007F0F2FAF0B132461549204607F0ECFA14
:103F100050B900228021134801F0F5FC04E0002292
:103F20000121114801F0EFFC22461049284607F014
:103F3000B3FA002002B070BD002202210C4801F04B
:103F4000E2FCF1E700224FF480614FF0904001F075
:103F5000DAFCE9E7240601082C060108340601080A
:103F600038060108000C0048001000485C060108F3
:103F70000004004838B510B10546002414E04FF0A5
:103F8000500383F31188BFF36F8FBFF34F8FFEE7AA
:103F90000B4B33F824100B4B53F8240001F0B8FC02
:103FA000642000F063FA0134032CF1DD064C0FCCE1
:103FB00028606960AA60EB6020682861002038BD35
:103FC0003C0000202C0000207806010880B3F0B5EA
:103FD00083B0144605460A46002106F0E5FA204E55
:103FE00001AA31682046FFF729FD074631680131F3
:103FF00031606A462046FFF721FD0646384606F046
:1040000086FA0446304606F082FA032C0DD80128C1
:1040100017D0F8B92046FDF72BFA22461149284659
:1040200007F03AFA0E4B01221A60002003B0F0BDEF
:104030004FF0500383F31188BFF36F8FBFF34F8F9F
:10404000FEE72046FDF704FA22460749284607F016
:1040500023FAE7E702460549284607F01DFAE1E79B
:1040600028000020A40601088C060108BC060108EF
:10407000A0B110B50446134B186820601B7923715A
:104080002046FCF7A5F8044404230C2B0FDC202267
:104090002270002204F8012F0133F6E74FF050039D
:1040A00083F31188BFF36F8FBFF34F8FFEE7562264
:1040B0000549204606F06AFA04F1550005F078FB40
:1040C000002010BD54EF0008EC06010808B50E48AA
:1040D000FFF72CFC0D48FFF729FC0D48FFF726FCE5
:1040E0000C48FFF723FC0C48FFF720FC0B48FFF7B8
:1040F0001DFC0B48FFF71AFC0A48FFF717FC0A489B
:10410000FFF714FC08BD00BF700A0108800A01080F
:10411000400A0108600A0108500A0108000A010863
:10412000100A0108200A0108300A010838B50C46B7
:1041300000220121204604F061F90A4D2860002286
:104140000121601804F05AF9074B18602B6833B14D
:1041500028B14FF4E130FDF781FAFDF7ADFB002007
:1041600038BD00BF301400202C14002008B5034BCC
:10417000186804F0A9FA00B1012008BD301400202D
:1041800010B584B08DF8071000230DF10701124817
:10419000006804F057F9012803D00024204604B039
:1041A00010BD044600220DF10F010B4B186804F0FE
:1041B0008BFA0128F2D1094802F0A1FD00F021009C
:1041C0002128EBD04FF47A7301220DF10F0103483F
:1041D00002F0E4FFE2E700BF2C140020C00C002036
:1041E00038B505460C4604E000222846FFF7C8FF14
:1041F000013494F900100029F6D138BD10B582B011
:10420000002301931E4B1B68DA6912F0100F10D1C6
:104210001B4802F095FB019B4BB14FF0E0234FF0A0
:104220008052C3F8042DBFF34F8FBFF36F8F02B0DE
:1042300010BD10221A62124C204602F0E0FA636FA1
:104240001B685B68C3F580630E4A538001231370BB
:1042500000240AE00B492144002301AA04310A4842
:10426000006804F0CAF90134A4B2064B5B88A3428B
:10427000F0D84FF480620549014803F0DBF8C7E746
:10428000C00C0020D406002030140020D8060020E6
:1042900030B583B0FFF7CEFB05464FF480614FF495
:1042A000E130FFF743FF384B18604F223749FFF7E3
:1042B00097FF002432E002223549334B1868FFF79C
:1042C0008FFF002C53D04FF4806229463148FFF70E
:1042D0004DFB04462846FBF77BFF82B229462A4B5A
:1042E0001868FFF77DFF002CEDD12A4C32222146C1
:1042F000294807F00DF932220021204606F054F932
:1043000038222649204B1868FFF76AFF0024002353
:104310001A4619462248006804F094F84FF0FF321C
:104320000DF10701184B1868FFF720FF0128F5D1A0
:104330004FF496711A4B186804F075FA0128EDD104
:104340009DF907300A2BB6D00D2BB4D0082B13D013
:104350007F2B11D0DBB2A3F12002D2B25E2AD6D8D5
:10436000312CD4D80B4A13550134E4B2CFE70A49B3
:10437000084807F0B1F8A6E7002CC8D0013CE4B229
:10438000044B00221A55C2E79C140020900A010831
:1043900038F100083414002068140020E00A0108F5
:1043A000A014002030B583B004460D46012004F06F
:1043B00019F90B4B186048B1002301930095224670
:1043C0000849094804F01EFD03B030BD4FF050030A
:1043D00083F31188BFF36F8FBFF34F8FFEE700BFEA
:1043E000A01400201C0B01089142000808B50848E1
:1043F000FDF7E6FA074B084A08490948FDF7E0FAD5
:104400000848FDF7DDFA642000F030F808BD00BF71
:10441000200B0108280B0108340B0108400B010890
:10442000480B010838F1000810B5032002F048F9E4
:104430000F2005F0F3FF10B10124204610BD044603
:10444000FDF75CFCF9E70000034B1B78034A116899
:104450000B441360704700BF4C000020A8140020DC
:10446000014B1868704700BFA814002038B50446F7
:10447000FFF7F6FF0546B4F1FF3F02D0044B1B786F
:104480001C44FFF7EDFF401BA042FAD338BD00BF2C
:104490004C00002030B583B00446204B9B6D13F0D8
:1044A000805F0BD002F0BCF8B0F5007F17D0802CF5
:1044B0001FD82DD0702C2DD000211BE0174DAB6DD7
:1044C00043F08053AB65AB6D03F080530193019BC8
:1044D00002F0A6F8AB6D23F08053AB65E4E7802CC7
:1044E00003D9A02C03D9022104E0002102E001211C
:1044F00000E003210A4A136823F007030B4313600B
:10450000136803F007038B4206D1002003B030BDCF
:104510000221EFE70121EDE70120F7E7001002405B
:1045200000200240284A9368D26802F0030213F088
:104530000C030AD00C2B06D0042B1FD0082B20D044
:104540000020024610E0012AF6D11F4A126812F03C
:10455000080F0CD11C4AD2F89420C2F303221B4945
:1045600051F8222043B100200C2B0DD07047164A81
:104570001268C2F30312F2E71046F5E7144800226E
:10458000F2E714480022EFE70F4BDB6803F0030368
:10459000022B16D0032B00D10E4A0B49C868C0F37A
:1045A0000210431CC868C0F3062002FB00F0B0FBF9
:1045B000F3F0CB68C3F3416301335B00B0FBF3F06E
:1045C000D4E7034AE9E700BF00100240BC0B010832
:1045D0000024F40000127A00002800F0F182F0B507
:1045E00083B00446964B9D6805F00C05DE6806F026
:1045F0000306036813F0100F5AD0E5B10C2D18D044
:10460000A369002B00F0BB808D4A136843F00103BF
:104610001360FFF725FF0746894B1B6813F0020F55
:1046200040F09A80FFF71CFFC01B0228F4D903203A
:10463000D1E2012EE4D1824B1B6813F0020F03D0AC
:10464000A369002B00F0BE82206A7D4B1B6813F02B
:10465000080F5BD07A4B1B6803F0F00398425CD8DC
:10466000774B1A6842F008021A601A6822F0F002CA
:10467000216A0A431A605A6822F47F42E16942EAD9
:1046800001225A60002D60D0FFF74CFF6C4B9B68F5
:10469000C3F303136B4AD35C03F01F03D8406A4B88
:1046A00018606A4B186805F0B9FE002840F0938244
:1046B000236813F0010F00F08180082D75D00C2DB8
:1046C00071D06368B3F5803F00F09780B3F5A02FF9
:1046D00000F099805A4B1A6822F480321A601A68E6
:1046E00022F480221A606368002B00F09980FFF7A3
:1046F000B7FE0746524B1B6813F4003F5ED1FFF72D
:10470000AFFEC01B6428F5D9032064E24C4BD3F8FC
:1047100094301B0903F0F003A0E7FFF7BBFE00286D
:1047200040F05282464B1A6842F008021A601A683A
:1047300022F0F002216A0A431A605A6822F47F428A
:10474000E16942EA01225A609EE7206AFFF7A2FE71
:10475000002899D001203EE2394B1A6842F0080245
:104760001A601A6822F0F002216A0A431A605A6835
:1047700022F47F42E16942EA01225A6098E7304A16
:10478000136823F001031360FFF76AFE07462C4B02
:104790001B6813F0020F8BD0FFF762FEC01B0228CC
:1047A000F5D9032017E2032E8BD1254B1B6813F498
:1047B000003F03D06368002B00F00882236813F0E9
:1047C000020F58D0042D45D00C2D41D0E368002BAA
:1047D00077D01B4A136843F480731360FFF740FEE1
:1047E0000646174B1B6813F4806F61D1FFF738FE44
:1047F000801B0228F5D90320EDE1114A136843F428
:10480000803313606FE703F18043A3F53C331A68EC
:1048100042F480221A601A6842F480321A6062E719
:10482000FFF71EFE0746064B1B6813F4003FC5D07A
:10483000FFF716FEC01B6428F5D90320CBE100BFAB
:1048400000100240A40B010874000020500000205A
:10485000022EBBD1A34B1B6813F4806F03D0E36817
:10486000002B00F0B5819F4A536823F0F85321696B
:1048700043EA01635360236813F0080F4CD0636967
:104880009BB3984AD2F8943043F00103C2F89430B5
:10489000FFF7E6FD0646934BD3F8943013F0020F72
:1048A0003AD1FFF7DDFD801B0228F4D9032092E105
:1048B0008C4A536823F0F853216943EA016353603B
:1048C000D9E7884A136823F480731360FFF7C8FDA3
:1048D0000646844B1B6813F4806FCCD0FFF7C0FDF5
:1048E000801B0228F5D9032075E17E4AD2F8943066
:1048F00023F00103C2F89430FFF7B2FD0646794B6E
:10490000D3F8943013F0020F06D0FFF7A9FD801BF7
:104910000228F4D903205EE1236813F0040F7AD053
:10492000704B9B6D13F0805F36D16E4B9A6D42F0E9
:1049300080529A659B6D03F080530193019B012681
:10494000694B1B6813F4807F28D0A368012B39D0F2
:10495000052B3FD0634BD3F8902022F00102C3F81F
:104960009020D3F8902022F00402C3F89020A3688E
:10497000002B3DD0FFF774FD07465A4BD3F890301B
:1049800013F0020F46D1FFF76BFDC01B41F28833D5
:104990009842F2D903201EE10026D1E7524A13685B
:1049A00043F480731360FFF75BFD07464E4B1B68B3
:1049B00013F4807FC9D1FFF753FDC01B0228F5D93E
:1049C000032008E1474AD2F8903043F00103C2F8CF
:1049D0009030CCE7434BD3F8902042F00402C3F868
:1049E0009020D3F8902042F00102C3F89020BEE757
:1049F000FFF736FD07463B4BD3F8903013F0020F1C
:104A000008D0FFF72DFDC01B41F288339842F2D940
:104A10000320E0E0EEB9A36A002B00F0DB80022B5C
:104A20001DD00C2D00F0DD802E4A136823F080731A
:104A30001360FFF715FD04462A4B1B6813F0007F37
:104A400000F0B780FFF70CFD001B0228F4D903200B
:104A5000C1E0244A936D23F080539365DBE7214B3B
:104A6000DB6803F00301E26A91420FD00C2D00F0E5
:104A7000B4801C4B1B6813F0806F40F0B080194B62
:104A80001B6813F0805F31D00120A4E003F07002B6
:104A9000216B0139B2EB011FE8D103F4FE42616BD7
:104AA000B2EB012FE2D103F40031A26B073A18BF39
:104AB00001229142DAD103F4C001E26B5208013ABB
:104AC000B1EB425FD2D103F0C063226C5208013ACD
:104AD000B3EB426FCAD1034B1B6813F0007F4ED07B
:104AE000002078E000100240007000403E4A136849
:104AF00023F080731360FFF7B3FC05463A4B1B6845
:104B000013F0007F06D0FFF7ABFC401B0228F5D95D
:104B1000032060E0344AD36834491940E36A206BCB
:104B2000013843EA0013606B43EA0023E06B40085E
:104B3000013843EA4053206C4008013843EA40639F
:104B4000A06B000943EA40430B43D360136843F072
:104B500080731360D36843F08073D360FFF780FCE9
:104B60000446214B1B6813F0007F06D1FFF778FC49
:104B7000001B0228F5D903202DE000202BE01A4B62
:104B80001A6842F080721A60DA6842F08072DA6065
:104B9000FFF766FC0446144B1B6813F0007F06D138
:104BA000FFF75EFC031B022BF5D9032013E0002066
:104BB00011E00D4AD1680E4B0B40D36000200AE093
:104BC00001207047012006E0012004E0012002E0FE
:104BD000012000E0002003B0F0BD0120FBE7012030
:104BE000F9E70120F7E700BF001002408C809DF933
:104BF000FCFFEEFE002800F0AF8070B50D460446C5
:104C0000594B1B6803F007038B420BD2564A1368BB
:104C100023F007030B431360136803F007038B4271
:104C200040F09C80236813F0020F0CD0A2684F4B19
:104C30009B6803F0F0039A4205D94C498B6823F036
:104C4000F0031A438A60236813F0010F39D06368B8
:104C5000032B09D0022B26D063BB444A126812F002
:104C6000020F06D1012076E0404A126812F0007F60
:104C700076D03E498A6822F0030213438B60FFF727
:104C8000EFFB0646394B9B6803F00C036268B3EBFD
:104C9000820F16D0FFF7E4FB801B41F28833984265
:104CA000F0D9032057E0314A126812F4003FE0D1F6
:104CB000012050E02D4A126812F4806FD9D10120F2
:104CC00049E0236813F0020F0CD0A268274B9B68C1
:104CD00003F0F0039A4205D224498B6823F0F003D5
:104CE0001A438A60204B1B6803F00703AB420AD9C2
:104CF0001D4A136823F007032B431360136803F066
:104D00000703AB422ED1236813F0040F06D0174AD5
:104D1000936823F4E063E1680B439360236813F026
:104D2000080F07D0114A936823F46053216943EABE
:104D3000C1039360FFF7F6FB0C4B9B68C3F30313AF
:104D40000B4AD35C03F01F03D8400A4B18600A4B90
:104D5000186805F063FB70BD012070470120FAE779
:104D60000120F8E70120F6E7002002400010024091
:104D7000A40B01087400002050000020014B1868AB
:104D8000704700BF7400002008B5FFF7F7FF054B20
:104D90009B68C3F30223044AD35C03F01F03D8408B
:104DA00008BD00BF00100240B40B010808B5FFF7B2
:104DB000E5FF054B9B68C3F3C223044AD35C03F0B1
:104DC0001F03D84008BD00BF00100240B40B01080B
:104DD0000F2303600B4B9A6802F0030242609A684B
:104DE00002F0F00282609A6802F4E062C2609B689E
:104DF000DB0803F4E0630361034B1B6803F0070364
:104E00000B6070470010024000200240F8B50446D5
:104E10000F46594BDB6813F0030F18D0564BDB6875
:104E200003F003030268934202D001252846F8BD2F
:104E3000002A00F09E80504BDB68C3F3021301335D
:104E40004268934201D00125F0E7002509E003689C
:104E5000022B57D0032B5CD0012B42D00125002D13
:104E6000E4D1454A136823F080631360FFF7F8FA32
:104E70000646414B1B6813F0006F05D0FFF7F0FAB0
:104E8000831B022BF5D90325002DCFD1002F4ED146
:104E900039490B6923F41F3323F44073A068E26897
:104EA0001209520442EA002213430B61324A13688A
:104EB00043F080631360FFF7D3FA06462E4B1B685E
:104EC00013F0006F05D1FFF7CBFA831B022BF5D946
:104ED0000325002DAAD1284A1369A1690B43136148
:104EE000A4E7254A126812F0020F1ED02248C268B9
:104EF00022F073026168013943EA01131343C3606E
:104F00000025ACE71C4A126812F4806FEED101252F
:104F1000A5E7194A126812F4003FE7D1164A126851
:104F200012F4802FE2D1012599E7012597E7012F9F
:104F30000FD01148026922F0C06222F4FE42A1683B
:104F400063695B08013B5B0643EA0123134303618A
:104F5000ACE70948026922F4C00222F4FE42A168CB
:104F600023695B08013B5B0543EA012313430361AB
:104F70009CE701255AE700BF00100240F8B504463F
:104F80000F46504BDB6813F0030F18D04D4BDB6816
:104F900003F003030268934202D001252846F8BDBE
:104FA000002A00F08C80474BDB68C3F30213013307
:104FB0004268934201D00125F0E7002509E003682B
:104FC000022B57D0032B5CD0012B42D00125002DA2
:104FD000E4D13C4A136823F080531360FFF740FA92
:104FE0000646384B1B6813F0005F05D0FFF738FA10
:104FF000831B022BF5D90325002DCFD1002F4ED1D5
:1050000030494B6923F41F3323F44073A068E268EE
:105010001209520442EA002213434B61294A1368E1
:1050200043F080531360FFF71BFA0646254B1B68BD
:1050300013F0005F05D1FFF713FA831B022BF5D99C
:105040000325002DAAD11F4A536961690B4353619F
:10505000A4E71C4A126812F0020F1ED01948C26859
:1050600022F073026168013943EA01131343C360FC
:105070000025ACE7134A126812F4806FEED10125C7
:10508000A5E7104A126812F4003FE7D10D4A1268F2
:1050900012F4802FE2D1012599E7012597E709480D
:1050A000426922F0C06222F4FE42A16823695B08D3
:1050B000013B5B0643EA012313434361AEE701254D
:1050C0006CE700BF001002402DE9F04182B00446B9
:1050D000036813F4006F33D0436EB3F5000F1FD095
:1050E0000CD823B3B3F5800F05D100212030FFF792
:1050F00045FF064620E001273E4623E0B3F5400F7A
:105100000BD10026604AD2F8883023F44003616E48
:105110000B43C2F88830002714E001273E4611E017
:10512000594AD36843F48033D3600026EAE700216C
:105130000430FFF76BFE0646002EE3D0374601E051
:1051400000273E46236813F4805F30D0A36EB3F18E
:10515000007F1FD00DD81BB3B3F1807F06D1002193
:1051600004F12000FFF70AFF064605E001273E464E
:105170001DE0B3F1407F0AD1C6B9434AD2F8883066
:1051800023F04073A16E0B43C2F888300FE0012773
:105190003E460CE03C4AD36843F48033D360EBE7EF
:1051A0000021201DFFF732FE0646E5E7374623685B
:1051B00013F4003F71D0344B9B6D13F0805F4ED1E0
:1051C000314B9A6D42F080529A659B6D03F080538B
:1051D0000193019B4FF001082C4A136843F480733C
:1051E0001360FFF73DF90546284B1B6813F4807FD9
:1051F00005D1FFF735F9401B0228F5D90326002E0B
:1052000046D1214BD3F8903013F4407316D0D4F824
:1052100084209A4212D01C4AD2F8903023F4407372
:10522000D2F8901041F48031C2F89010D2F890106A
:1052300021F48031C2F89010C2F8903013F0010FC1
:1052400010D1002E40F027810F4AD2F8903023F47D
:105250004073D4F884100B43C2F8903019E04FF03B
:105260000008B9E7FFF7FCF80546074BD3F8903084
:1052700013F0020FE5D1FFF7F3F8401B41F288333A
:105280009842F2D90326DCE700100240007000408B
:105290003746B8F1000F40F00081236813F0010F8A
:1052A00008D09D4AD2F8883023F00303A16B0B434A
:1052B000C2F88830236813F0020F08D0964AD2F85B
:1052C000883023F00C03E16B0B43C2F8883023686D
:1052D00013F0040F08D0904AD2F8883023F030033E
:1052E000216C0B43C2F88830236813F0080F08D0F4
:1052F000894AD2F8883023F0C003616C0B43C2F8AE
:105300008830236813F0100F08D0834AD2F8883011
:1053100023F44073A16C0B43C2F88830236813F068
:10532000200F08D07C4AD2F8883023F44063E16C27
:105330000B43C2F88830236813F4007F08D0764A04
:10534000D2F8883023F44023E16D0B43C2F8883053
:10535000236813F4806F08D06F4AD2F8883023F4A2
:105360004013216E0B43C2F88830236813F0400FBE
:1053700008D0694AD2F8883023F44053216D0B439A
:10538000C2F88830236813F0800F08D0624AD2F840
:10539000883023F44043616D0B43C2F888302368A2
:1053A00013F4807F08D05C4AD2F8883023F440336D
:1053B000A16D0B43C2F88830236813F4005F0FD04F
:1053C000554AD2F8883023F04063E16E0B43C2F8AF
:1053D0008830E36EB3F1006F65D0B3F1806F67D0B2
:1053E000236813F4002F0FD04B4AD2F8883023F0F3
:1053F0004063216F0B43C2F88830236FB3F1006F15
:105400005ED0B3F1806F60D0236813F4802F0FD08B
:10541000414AD2F8883023F04063616F0B43C2F8F1
:105420008830636FB3F1006F57D0B3F1806F59D0FC
:10543000236813F4804F0FD0374AD2F8883023F016
:105440004053A16F0B43C2F88830A36FB3F1805F64
:1054500050D0B3F1005F55D0236813F4004F08D04B
:105460002D4AD2F8883023F08043E16F0B43C2F815
:105470008830236813F4803F09D0274AD2F8883057
:1054800023F00043D4F880100B43C2F8883038462C
:1054900002B0BDE8F0813746FBE61F4A936D23F06A
:1054A00080539365F9E6D36843F48013D36097E79C
:1054B0000121201DFFF7AAFC002891D007468FE7A5
:1054C000D36843F48013D3609EE70121201DFFF7CA
:1054D0009DFC002898D0074696E7D36843F48013D4
:1054E000D360A5E70121201DFFF790FC00289FD085
:1054F00007469DE70221201DFFF788FC0028ABD05E
:105500000746A9E7022104F12000FFF737FD002834
:10551000A2D00746A0E700BF0010024070477047C6
:1055200010B5494A536923F4FF6323F0070353611D
:10553000536923F400435361444B1B7ADBB2042BC1
:1055400025D0414B1B694CF2FA32134024D13E4B1B
:105550001B6913F0010F60D03B4B01221A613B4BDA
:105560001B7ADBB293424AD1384B9A69013A9A616D
:105570009B69002B37D0354C6069FFF7CFFF63691B
:10558000013363616069216900F062F845E05369A5
:1055900023F480235361D4E72C4C62681A43626081
:1055A000294A136100F076F8237ADBB2012B0CD084
:1055B000022B0ED0033BDBB2012B0FD90020FFF7EB
:1055C000AEFF224B00221A72C1E76069FFF7A7FF06
:1055D000F7E71E4B1869FFF7A2FFF2E71B4BD868ED
:1055E000FFF79DFFEDE7194C4FF0FF336361002398
:1055F000237200F04FF86069FFF790FF0DE000F0B4
:1056000049F8124B1B7ADBB2022B12D0033BDBB200
:10561000012B13D90D4B00221A720C4B1B7A3BB98C
:10562000094A536923F040735361084B00221A70F2
:1056300010BD064B1869FFF771FFEBE7034BD86805
:10564000FFF76CFFE6E700BF002002405400002097
:1056500011F0010F16D00E4A536923F40063536111
:105660000B4B5A6922F4FF62C00000F4FF60104344
:1056700058615A6942F002025A615A6942F4803212
:105680005A617047024A536943F400635361E7E784
:1056900000200240164B1B7FDBB2012B01D0032BF5
:1056A00010D1144A116821F400711160116841F49D
:1056B00000611160116821F400611160116841F40A
:1056C00000711160023BDBB2012B03D9084B0022B1
:1056D0001A777047074B1A6842F480521A601A68AA
:1056E00022F480521A601A6842F480621A60EDE770
:1056F0005400002000200240F0B583B000236BE08E
:1057000085685E000324B44025EA0405CC68B440F3
:105710002C438460456825EA0C054C68C4F30014EA
:105720009C402C43446069E0C56A25EA0C0CC4F334
:10573000C0049C4044EA0C04C46265E0DD080835FE
:1057400050F8256003F007044FEA840C0F2404FA94
:105750000CF426EA040E0C6904FA0CF444EA0E0474
:1057600040F8254067E0062400E0002404FA0EF427
:105770002C430CF1020C5C4D45F82C405B4CA568A9
:10578000D44325EA02064F6817F4801F01D042EA8D
:105790000506564DAE60ED6804EA05064F6817F43D
:1057A000001F01D042EA0506504DEE606D6804EA24
:1057B00005064F6817F4003F01D042EA05064B4D3D
:1057C0006E602D682C404E6816F4803F01D042EA8E
:1057D0000504464A146001330A6832FA03F400F003
:1057E00081804FF0010C0CFA03FC1CEA0202F2D09B
:1057F0004C6804F00304013C012C81D94C6804F08E
:10580000030EBEF1030F8FD04C6804F00304032C89
:105810000CD0C4685D004FF0030C0CFA05FC24EAC0
:105820000C0C8C68AC4044EA0C04C4604C6804F076
:105830000304022C82D004684FEA430E4FF0030C9D
:105840000CFA0EFC24EA0C0C4C6804F0030404FA75
:105850000EF444EA0C0404604C6814F4403FBAD0DF
:10586000234C256E45F001052566246E04F00104E5
:105870000194019C4FEA930C0CF102051A4C54F868
:10588000255003F003044FEA840E0F2404FA0EF4AB
:1058900025EA0405B0F1904F3FF467AF154CA042E4
:1058A00016D004F58064A04214D004F58064A042B0
:1058B00012D004F58064A04210D004F58064A042A8
:1058C0000ED004F58064A0423FF44DAF07244DE7AD
:1058D00001244BE7022449E7032447E7042445E772
:1058E000052443E703B0F0BD00000140000401407F
:1058F00000100240000400480369194201D0012051
:105900007047002070470AB181617047816270471B
:10591000436901EA030221EA030141EA024181618C
:105920007047000008B5054B5B69034200D108BD14
:10593000024B5861FCF768FBF9E700BF0004014027
:1059400003689A6912F0020F01D000229A6203687C
:105950009A6912F0010F03D19A6942F001029A612B
:10596000704710B4019CC1F3090141EA0241194397
:10597000214321F0004102685368640D04F48064FF
:1059800044F07F7444F4583444F47F7444F00304C6
:1059900023EA0404214351605DF8044B70472DE96C
:1059A000F041044603689E6916F010067CD00D464F
:1059B00090461022DA61002637462368986910F075
:1059C000200F30D17FBBB5F1FF3FF6D0FEF748FD89
:1059D000A0EB0800A84201D8002DEED121684B6849
:1059E00003F4804394F84220D2B2886910F4004F47
:1059F00002D00BB9202A0ED123689B6913F0200F27
:105A0000DBD1FEF72DFDA0EB08001928F4D946F0F4
:105A100020060127D1E74B6843F480434B60FEF733
:105A20001FFD8046E8E70FB92022DA6146F0040640
:105A300001252268936913F4807F05D046F00106A2
:105A40004FF48071D161012513F4806F06D046F0C8
:105A5000080622684FF48061D161012513F4007FAC
:105A600024D046F0020623684FF40072DA61012563
:105A70002046FFF765FF2268536823F0FF7323F485
:105A80008B3323F4FF7323F001035360636C1E43D5
:105A90006664202384F84130002384F8423084F87F
:105AA00040302846BDE8F0810025C2E7002DF8D03F
:105AB000DEE770B504460D46164623689B6913F071
:105AC000020F22D1324629462046FFF768FFF0B97F
:105AD000B5F1FF3FF1D0FEF7C3FC801BA84201D80F
